:1000000087C30000B6C30000B4C30000B2C3000041
:10001000B0C30000AEC30000ACC30000AAC3000020
:10002000A8C30000A6C30000A4C30000A2C3000030
:10003000A0C300009EC300009CC300009AC3000040
:1000400098C3000096C3000094C3000092C3000050
:1000500090C300008EC300008CC300000C94480CB9
:1000600088C300000C940E100C94E50F82C30000AE
:1000700080C300007EC300007CC300007AC3000080
:1000800078C3000076C3000074C3000072C3000090
:1000900070C300006EC300006CC300006AC30000A0
:1000A00068C3000066C3000064C3000062C30000B0
:1000B00060C300005EC300005CC300005AC30000C0
:1000C00058C3000056C3000054C3000052C30000D0
:1000D00050C300004EC300004CC300004AC30000E0
:1000E00048C30000650B680B570B5B0B5F0B9F0B46
:1000F0006C0B700B760B7A0B7E0B840B880B8C0BC6
:100100009F0B920B960B9A0B00000000003E5B4F7A
:100110005B3E3E6B4F6B3E1C3E7C3E1C183C7E3C67
:10012000181C577D571C1C5E7F5E1C00183C180075
:10013000FFE7C3E7FF0018241800FFE7DBE7FF3005
:10014000483A060E2629792926407F050507407F73
:1001500005253F5A3CE73C5A7F3E1C1C08081C1CE6
:100160003E7F14227F22145F5F005F5F06097F01DC
:100170007F006689956A606060606094A2FFA294C7
:1001800008047E040810207E201008082A1C080895
:100190001C2A08081E101010100C1E0C1E0C3038E3
:1001A0003E3830060E3E0E06000000000000005FE4
:1001B00000000007000700147F147F14242A7F2A00
:1001C00012231308646236495620500008070300C2
:1001D000001C2241000041221C002A1C7F1C2A080E
:1001E000083E080800807030000808080808000071
:1001F00060600020100804023E5149453E00427FE5
:10020000400072494949462141494D331814127F33
:100210001027454545393C4A4949314121110907D3
:100220003649494936464949291E00001400000054
:100230004034000000081422411414141414004126
:1002400022140802015909063E415D594E7C1211E3
:10025000127C7F494949363E414141227F4141411B
:100260003E7F494949417F090909013E4141517396
:100270007F0808087F00417F41002040413F017F07
:10028000081422417F404040407F021C027F7F04CF
:1002900008107F3E4141413E7F090909063E415118
:1002A000215E7F09192946264949493203017F0108
:1002B000033F4040403F1F2040201F3F4038403F09
:1002C000631408146303047804036159494D43001F
:1002D0007F4141410204081020004141417F040256
:1002E00001020440404040400003070800205454ED
:1002F00078407F28444438384444442838444428CB
:100300007F385454541800087E090218A4A49C781D
:100310007F0804047800447D40002040403D007F79
:100320001028440000417F40007C047804787C0859
:100330000404783844444438FC182424181824242D
:1003400018FC7C08040408485454542404043F4412
:10035000243C4040207C1C2040201C3C4030403C41
:1003600044281028444C9090907C4464544C4400A1
:100370000836410000007700000041360800020105
:100380000204023C2623263C1EA1A161123A4040F1
:10039000207A38545455592155557941225454786E
:1003A00042215554784020545579400C1E52721207
:1003B0003955555559395454545939555454580090
:1003C00000457C410002457D420001457C407D1294
:1003D00011127DF0282528F07C54554500205454F6
:1003E0007C547C0A097F4932494949323A444444A1
:1003F0003A324A4848303A4141217A3A42402078DC
:10040000009DA0A07D3D4242423D3D4040403D3CDC
:1004100024FF2424487E4943662B2FFC2F2BFF0901
:1004200029F620C0887E09032054547941000044F5
:100430007D413048484A32384040227A007A0A0AE0
:10044000727D0D19317D2629292F28262929292653
:1004500030484D4020380808080808080808382F98
:1004600010C8ACBA2F102834FA00007B0000081422
:100470002A142222142A14085500550055AA55AAF8
:1004800055AAFF55FF55FF000000FF00101010FF98
:1004900000141414FF001010FF00FF1010F010F0F3
:1004A000141414FC001414F700FF0000FF00FF14E4
:1004B00014F404FC141417101F10101F101F141430
:1004C000141F00101010F0000000001F101010107A
:1004D0001F10101010F010000000FF10101010106E
:1004E00010101010FF10000000FF140000FF00FFAC
:1004F00000001F10170000FC04F414141710171448
:1005000014F404F40000FF00F71414141414141469
:10051000F700F7141414171410101F101F141414DC
:10052000F4141010F010F000001F101F0000001F46
:1005300014000000FC140000F010F01010FF10FF79
:10054000141414FF141010101F00000000F010FF0E
:10055000FFFFFFFFF0F0F0F0F0FFFFFF00000000F2
:1005600000FFFF0F0F0F0F0F3844443844FC4A4A76
:100570004A347E02020606027E027E02635549412B
:10058000633844443C04407E201E2006027E020262
:1005900099A5E7A5991C2A492A1C4C7201724C3076
:1005A0004A4D4D303048784830BC625A463D3E494D
:1005B0004949007E0101017E2A2A2A2A2A44445FF1
:1005C000444440514A444040444A51400000FF01E5
:1005D00003E080FF000008086B6B083612362436F3
:1005E000060F090F06000018180000001010003058
:1005F00040FF0101001F01011E00191D1712003CE0
:100600003C3C3C000000000000000A0B02090C0DFD
:100610000E080703040100000000000000000000B5
:1006200000000000000000000000000000000000CA
:100630000000000012111000000000000000000087
:1006400000000000000000000000000000000000AA
:100650002100240027002A002D0030003300010172
:100660000000040107010A010102102020080810FF
:100670002040102040800201020108040201010212
:1006800004081020408080402010080402018004EB
:100690000201804020100804020108040201010246
:1006A000040810204080010204081020408000004F
:1006B0002200250028002B002E003100340002010A
:1006C0000000050108010B010505050507050808DF
:1006D0000808020202020A0A0808040404040101CC
:1006E00001010101010103030303030303030407E1
:1006F00007070C0C0C0C0C0C0C0C02020202060678
:100700000606060606060B0B0B0B0B0B0B0B061651
:1007100011241FBECFEFD1E2DEBFCDBF00E00CBF82
:1007200012E0A0E0B2E0E8E7F2E300E00BBF02C0B5
:1007300007900D92A235B107D9F723E0A2E5B2E008
:1007400001C01D92A133B207E1F713E0C8E8D3E07E
:1007500000E006C021970109802FFE010E942219A6
:10076000C738D10780E00807A9F70E9446120C9409
:100770003A1946CCFC01918D228D892F90E0805C46
:100780009F4F821B91098F739927089580E090E015
:10079000892B21F00E94740F811125C080E090E028
:1007A000892B41F080E090E0892B21F00E9400002D
:1007B00081111CC080E090E0892B41F080E090E046
:1007C000892B21F00E940000811113C080E090E08D
:1007D000892BA1F080E090E0892B81F00E9400003D
:1007E00081110AC008950E940000D8CF0E94000025
:1007F000E1CF0E940000EACF0C94000008953FB7BB
:10080000F8948091570290915802A0915902B091AA
:100810005A0226B5A89B05C02F3F19F00196A11DCD
:10082000B11D3FBFBA2FA92F982F8827820F911D86
:10083000A11DB11DBC01CD0142E0660F771F881FCD
:10084000991F4A95D1F70895DC019C96ED91FC9192
:100850009D979081D1968C91892B80830895CF921A
:10086000DF92EF92FF920F931F93CF93DF9300D00D
:1008700000D0CDB7DEB76C01DC01ED91FC910284B4
:10088000F385E02D2D833E834B835C8369837A83DC
:100890001995D601ED91FC910684F785E02D2D8107
:1008A0003E814B815C8169817A81C6011995D601AF
:1008B000ED91FC910688F789E02DC60126960FB6CA
:1008C000F894DEBF0FBECDBFDF91CF911F910F9186
:1008D000FF90EF90DF90CF901994EF92FF920F93DB
:1008E0001F93CF93DF9300D000D0CDB7DEB77C014C
:1008F000DC01ED91FC910284F385E02D2D833E8394
:100900004B835C8369837A831995D701ED91FC91C0
:100910000288F389E02D2D813E814B815C816981C4
:100920007A81C7011995D701ED91FC910688F78965
:10093000E02DC70126960FB6F894DEBF0FBECDBFDF
:10094000DF91CF911F910F91FF90EF901994EF924B
:10095000FF920F931F93CF93DF9300D000D0CDB7BA
:10096000DEB77C01DC01ED91FC910284F385E02D82
:100970002D833E834B835C8369837A831995D701EA
:10098000ED91FC910088F189E02D2D813E814B8114
:100990005C8169817A81C7011995D701ED91FC913C
:1009A0000688F789E02DC70126960FB6F894DEBFBA
:1009B0000FBECDBFDF91CF911F910F91FF90EF90B0
:1009C00019940F931F93CF93DF9300D000D0CDB72E
:1009D000DEB78C01DC01ED91FC910284F385E02D02
:1009E0002D833E834B835C8369837A831995D80179
:1009F000ED91FC910484F585E02D2D813E814B81A4
:100A00005C8169817A81C8011995D801ED91FC91C9
:100A10000688F789E02DC80126960FB6F894DEBF48
:100A20000FBECDBFDF91CF911F910F911994EF921F
:100A3000FF920F931F93DC01ED91FC910684F785E3
:100A4000E02D780101E010E019951F910F91FF90C2
:100A5000EF900895EF92FF920F931F93DC01ED91B9
:100A6000FC910684F785E02D7801890121E030E0D2
:100A700019951F910F91FF90EF9008950895FC0133
:100A80006370658B8481958126813781613039F06F
:100A9000633029F0918780873387228708953187D3
:100AA00020879387828708952F923F924F925F927B
:100AB0006F927F928F929F92AF92BF92CF92DF926E
:100AC000EF92FF920F931F93CF93DF93CDB7DEB7D3
:100AD0006C970FB6F894DEBF0FBECDBF9C8F8B8F87
:100AE0005B011A011F830E833701C982DC0158960E
:100AF0004D915C9159974115510509F0E5C0189643
:100B00008D919C911997681779070CF0CAC11A96B4
:100B10008D919C911B97281639060CF0C2C18C2C24
:100B2000912CFB0136E0C39EE00DF11D1124FB87E3
:100B3000EA871E161F060CF0B4C1C40133E0880F0B
:100B4000991F3A95E1F79D878C87820D931D1816A2
:100B500019060CF0A6C157968C91811103C0203B59
:100B600008F02F5FAB8DBC8DED91FC911197028445
:100B7000F385E02DCD012A8F19952A8DB5E02B9FA5
:100B800090011124F5013596FF87EE87BB82AA827A
:100B90002501A9014A195B09598B488BC1010896A7
:100BA0009B8B8A8BE889F989E40DF51DE85FFE4F80
:100BB0009491988761013D822C82A885A0FF13C083
:100BC000AB8DBC8DED91FC91B981B13031F40484D1
:100BD000F585E02D2E813F8116C00684F785E02D36
:100BE000EE80FF801AC0EE81FF816E167F06F1F065
:100BF000AB8DBC8DED91FC91B981B13051F4048481
:100C0000F585E02D9301A601B2018B8D9C8D199580
:100C10000DC00684F785E02D7301840194014C8199
:100C20005D816A817B818B8D9C8D1995E885E69528
:100C3000E887FFEFCF1ADF0A2C813D81280D391D8F
:100C40003D832C834A895B89C416D50609F0B5CF4C
:100C50005FEF451A550A8A819B81880D991D9B83F8
:100C60008A83AE85BF854A165B0609F09BCFEE816D
:100C7000FF816E167F0609F4F2C0EB8DFC8DA0811A
:100C8000B181F981F13079F4B5016B5F7F4F5096F6
:100C9000ED91FC915197830128E030E0A1018B8D0B
:100CA0009C8D1995DCC06A857B85681979091E962B
:100CB000ED91FC911F9773010C851D859401A10195
:100CC0008B8D9C8D1995CBC0FA01349694913297F7
:100CD00065917491291BCB01B7E02B9F800D911D6D
:100CE0001124FA01259134913B8B2A8BFC0145910B
:100CF00054915B834A83FC013296C490319654919F
:100D00005E87329614913196D4908981823058F062
:100D1000612E012E000C7708AD2D0D2C000CBB0BA5
:100D2000B987A88704C019861886612C712CAB8DF1
:100D3000BC8DED91FC9111970284F385E02DCD01DE
:100D40001995B9818B2E912C689CC001699C900DDE
:100D5000789C900D1124FC01EA0DFB1DFD87EC87AA
:100D60001C82712C612CE12F110FFF0B95012E0FAE
:100D70003F1F3B872A87AC0CB11CA5014E0F5F1F9C
:100D80005F8B4E8BC1018D0D911DD7FC9A95998F6C
:100D9000888F4E85641608F062C0862D90E04885E5
:100DA0005985480F591F489D9001499D300D589D08
:100DB000300D1124D901A20DB31DB98BA88BAA84C3
:100DC000BB844C845D84DC80BA85DB1AE88DF98DA8
:100DD000E80FF91FFD8BEC8B8D2D8A0D2E893F8935
:100DE000A216B306B9F1877061F48A819B810196DE
:100DF000EA89FB89AA81BB81EA0FFB1F74909B8360
:100E00008A8377FE20C0AB8DBC8DED91FC91B981BA
:100E1000B13061F40484F585E02D2E813F814C8949
:100E20005D89B5018B8D9C8D19950DC00684F78564
:100E3000E02DEE80FF808401940148895989B20138
:100E40008B8D9C8D1995770CEFEFAE1ABE0A480C6E
:100E5000591CC2CF3C813C0D3C8363949ACFAB8D2F
:100E6000BC8DED91FC9111970688F789E02DCD019D
:100E70006C960FB6F894DEBF0FBECDBFDF91CF9159
:100E80001F910F91FF90EF90DF90CF90BF90AF90A8
:100E90009F908F907F906F905F904F903F902F909A
:100EA00019946C960FB6F894DEBF0FBECDBFDF91DC
:100EB000CF911F910F91FF90EF90DF90CF90BF9057
:100EC000AF909F908F907F906F905F904F903F90EA
:100ED0002F900895AF92BF92CF92EF92FF920F930F
:100EE0001F93CF93DF93EC01262F888D998D009768
:100EF00009F03FC06A3059F41D861C862C898E8506
:100F00009F8538E0239F800D911D112440C06D30D6
:100F100009F4A8C08E898823C1F03C898C859D8501
:100F200046E0349F800D911D11244885598548174E
:100F300059075CF41D861C868E859F8548E0349F8A
:100F4000800D911D11249F878E87EA88FB88088970
:100F500019894E855F856C857D85CC88CE01A4DDA1
:100F60002C898C859D8536E0239F800D911D112451
:100F700042C06A3079F41D861C862C89FC013696A5
:100F8000E4918E859F852E9F800D911D11249F8752
:100F90008E8768C06D3009F465C0FC0134963491C9
:100FA000631708F45FC03196E491E61708F45AC05D
:100FB000FC013296A590B490462F50E0431B510996
:100FC00037E0349FB001359F700D1124A60EB71E77
:100FD000F501329634913196E491332311F0E11109
:100FE0000DC0F5013496E4912C898C859D85E29F96
:100FF000800D911D11249D878C8734C0F501359695
:1010000044915E89552311F16C89E32FF0E0E40FE0
:10101000F11D47FDFA956E9FD0016F9FB00D112411
:101020004C855D854A0F5B1FE885F985E417F50758
:101030006CF41D861C86FC013696E4918E859F8596
:101040006E9F800D911D11249F878E87EA88FB88F3
:10105000088919894E855F856C857D85CC88CE0190
:1010600023DDBFCF81E090E0DF91CF911F910F9101
:10107000FF90EF90CF90BF90AF9008956F927F92C6
:101080008F929F92AF92BF92CF92DF92EF92FF9298
:101090000F931F93CF93DF93EC014B015A0169012A
:1010A0003801E881F9810284F385E02D1995E88102
:1010B000F9810288F389E02D87019601A501B40129
:1010C000CE011995E881F981A501460D571D4150C2
:1010D00051090288F389E02D9601B401CE011995DA
:1010E000E881F9810088F189E02D9301A501B4011F
:1010F000CE011995E881F981C80CD91CB60161505F
:1011000071090088F189E02D9301A501CE0119959F
:10111000E881F9810688F789E02DCE01DF91CF9132
:101120001F910F91FF90EF90DF90CF90BF90AF9005
:101130009F908F907F906F901994CF92DF92EF9253
:10114000FF920F931F93CF93DF9300D000D0CDB7C2
:10115000DEB76C01DC01ED91FC916217730789F435
:10116000041715072CF4942F852FA801092F182F89
:10117000041B150B98012F5F3F4F048CF58DE02D5C
:1011800012C04017510709F5261737072CF4962F80
:10119000872FB901292F382F261B370B2F5F3F4F81
:1011A000068CF78DE02D8701C601199526960FB69E
:1011B000F894DEBF0FBECDBFDF91CF911F910F918D
:1011C000FF90EF90DF90CF9008950284F385E02D9B
:1011D0002D833E834B835C8369837A831995D60183
:1011E000ED91FC910488F589E02D2D813E814B81A4
:1011F0005C8169817A81C6011995D601ED91FC91D6
:101200000688F789E02DC60126960FB6F894DEBF52
:101210000FBECDBFDF91CF911F910F91FF90EF9047
:10122000DF90CF901994EF92FF920F931F93DC0100
:10123000ED91FC9111971A960D911C911B971896A0
:101240002D913C91199700A0F1A1E02D7B0140E088
:1012500050E060E070E019951F910F91FF90EF90C2
:1012600008954F925F926F927F928F929F92AF926A
:10127000BF92CF92DF92EF92FF920F931F93CF9383
:10128000DF931F921F92CDB7DEB76C015A0139016F
:101290004801DC01ED91FC910284F385E02D698326
:1012A0007A8319956981462E7A81572E640C751CB4
:1012B000D601ED91FC91461457046CF40088F18935
:1012C000E02D87019401A501B201C6011995BFEF78
:1012D0004B1A5B0AEDCF0688F789E02DC6010F9007
:1012E0000F90DF91CF911F910F91FF90EF90DF90C2
:1012F000CF90BF90AF909F908F907F906F905F90B6
:101300004F901994AF92BF92CF92DF92EF92FF92DB
:101310000F931F93CF93DF9300D01F92CDB7DEB70B
:101320005C016901DC01ED91FC910284F385E02D03
:101330004B835C8369837A831995D501ED91FC9188
:1013400069817A819B012C0D3D1D21503109048852
:10135000F589E02D78014B815C818A01C5011995E1
:10136000D501ED91FC910688F789E02DC5010F901C
:101370000F900F900F90DF91CF911F910F91FF90E1
:10138000EF90DF90CF90BF90AF901994AF92BF9243
:10139000CF92DF92EF92FF920F931F93CF93DF9341
:1013A00000D01F92CDB7DEB75C016901DC01ED9181
:1013B000FC910284F385E02D4B835C8369837A83FF
:1013C0001995D501ED91FC914B815C81C40ED51E20
:1013D000B1E0CB1AD1080488F589E02D78018601A7
:1013E00069817A819B01C5011995D501ED91FC9127
:1013F0000688F789E02DC5010F900F900F900F9090
:10140000DF91CF911F910F91FF90EF90DF90CF90E0
:10141000BF90AF9019940895EF92FF920F931F938E
:10142000DC01ED91FC9100A0F1A1E02D19951F9137
:101430000F91FF90EF9008950F931F93DC01ED91B2
:10144000FC91068CF78DE02D19951F910F91089551
:101450000F931F93DC01ED91FC91048CF58DE02D31
:1014600019951F910F910895DC01ED91FC91008475
:10147000F185E02D199408952F923F924F925F923B
:101480006F927F928F929F92AF92BF92CF92DF9294
:10149000EF92FF920F931F93CF93DF9300D0CDB7BE
:1014A000DEB74C017B836A836A01590117019801F9
:1014B000241B350B37FF03C0319521953109C50138
:1014C0004A815B81841B950B97FF03C091958195A1
:1014D000910951E059838217930714F019820BC0C8
:1014E0009A2D8B2D5801092F182F9A818B81DB8221
:1014F000CA82C92ED82E8A819B81A816B9065CF4AF
:101500009C2D8D2D6801092F182F9A818B81BB820C
:10151000AA82A92EB82E2501AA81BB814A1A5B0A8C
:1015200038016C187D0877FE03C0719461947108CE
:10153000720157FE03C0BFEFEB1AFB0AF594E79464
:10154000C016D1061CF00FEF1FEF1FC001E010E026
:101550001CC0D401ED91FC91B9810484F585E02D86
:101560009101BB23C1F04A815B81B601C401199589
:10157000E618F708F7FE04C0C00ED11EE40CF51CF7
:10158000EA81FB813196FB83EA834A815B81A41661
:10159000B506FCF604C0A6016A817B81E7CF0F90F7
:1015A0000F900F90DF91CF911F910F91FF90EF90CF
:1015B000DF90CF90BF90AF909F908F907F906F9073
:1015C0005F904F903F902F900895089580E090E0B5
:1015D00008950E943619FC0181A187FF1EC0428D2B
:1015E000538D648D758D20E080E092E1AAE7B0E034
:1015F000481759076A077B0740F4B695A795979552
:1016000087952F5F2630A1F727E091E09227892F59
:10161000806A869591708CBD9DBDA4A5B5A59C9151
:1016200081A9809589238C930895FC01848DDF0125
:10163000A80FB11DA35ABF4F2C91848D90E0019645
:101640008F739927848FA689B7892C93A089B18934
:101650008C9180648C93938D848D981306C002883E
:10166000F389E02D80818F7D80830895362F90E06F
:10167000FC01E85FF94F4491FC01E859F94F2491CE
:10168000FC01E853F94F9491992309F46BC044236A
:1016900009F455C050E0FA013197E231F10508F044
:1016A0004EC08827EE58FF4F8F4F0C94221980911F
:1016B00080008F7707C0809180008F7D03C080916C
:1016C0008000877F809380003AC084B58F7702C006
:1016D00084B58F7D84BD33C08091B0008F7703C007
:1016E0008091B0008F7D8093B00029C080919000E0
:1016F0008F7707C0809190008F7D03C0809190000C
:10170000877F809390001BC08091A0008F7707C0D7
:101710008091A0008F7D03C08091A000877F80937F
:10172000A0000DC0809120018F7707C0809120011B
:101730008F7D03C080912001877F80932001E92F56
:10174000F0E0EE0FFF1FE255F94FA591B4918FB76E
:10175000F894EC91311103C020952E2301C02E2B5B
:101760002C938FBF0895CF93DF9390E0FC01E8594D
:10177000F94F2491FC01E853F94F8491882361F1DA
:1017800090E0880F991FFC01E25BF94FC591D4915D
:10179000FC01E255F94FA591B491611109C09FB7C1
:1017A000F8948881209582238883EC912E230BC0A6
:1017B000623061F49FB7F8943881822F809583233B
:1017C0008883EC912E2B2C939FBF06C08FB7F89483
:1017D000E8812E2B28838FBFDF91CF910895863328
:1017E00008F0865390917B00282F2870977F922BCA
:1017F00090937B008770806480937C0080917A0056
:10180000806480937A0080917A0086FDFCCF80917D
:1018100078002091790090E0922B08958F929F920A
:10182000AF92BF92CF92DF92EF92FF926B017C0159
:101830000E94FF034B015C01C114D104E104F104D7
:10184000F1F00E94FF03DC01CB0188199909AA0974
:10185000BB09883E9340A105B10570F321E0C21A8F
:10186000D108E108F10888EE880E83E0981EA11CDB
:10187000B11CC114D104E104F10419F7DDCFFF90CC
:10188000EF90DF90CF90BF90AF909F908F90089592
:101890001F920F920FB60F9211242F933F938F93A5
:1018A0009F93AF93BF938091530290915402A09164
:1018B0005502B09156023091520223E0230F2D378A
:1018C00020F40196A11DB11D05C026E8230F029644
:1018D000A11DB11D20935202809353029093540294
:1018E000A0935502B09356028091570290915802EE
:1018F000A0915902B0915A020196A11DB11D809389
:10190000570290935802A0935902B0935A02BF9184
:10191000AF919F918F913F912F910F900FBE0F909C
:101920001F901895BF92CF92DF92EF92FF920F9384
:101930001F93CF93DF93B82E34E0C32ED12CE12C2C
:1019400044E0F42E00E010E0C0E0D0E08B2D47DF53
:10195000081719070CF48C018E159F050CF47C01F7
:10196000C80FD91F81E0C81AD10881F7CE018E199E
:101970009F09801B910B97FD019695958795DF91A7
:10198000CF911F910F91FF90EF90DF90CF90BF907C
:101990000895FC0181A187FF05C06EBD0DB407FE4F
:1019A000FDCF089528E030E090E8A4A1B5A186A578
:1019B000492F462319F04C91842B03C04C918095FC
:1019C00084238C93A0A5B1A54C9180A980958423F4
:1019D0008C93A0A5B1A54C9180A9842B8C9396954E
:1019E0002150310911F70895CF93DF93EC01EAA557
:1019F000FBA590818AA9809589238083CE01C9DFC8
:101A0000EAA5FBA590818AA9892B8083DF91CF91DC
:101A100008958F929F92AF92BF92CF92DF92EF92F2
:101A2000FF920F931F93CF93DF93EC01490181E065
:101A3000881A9108860E971EC401A0E0B0E04B0101
:101A4000A12CB12C540199248824882A992AAA2AE5
:101A5000BB2A680181E0C81AD108C40ED51EC60190
:101A6000A0E0B0E06A01E12CF12C7601DD24CC2469
:101A7000C82AD92AEA2AFB2A6AE2CE01B5DF29A1BF
:101A80006B2D77278827992727FF18C06EBD0DB4C7
:101A900007FEFDCFC501AA27BB278EBD0DB407FEEB
:101AA000FDCFBB27AB2D9A2D892D8EBD0DB407FE22
:101AB000FDCF8EBC0DB407FEFDCF10C0CE0169DF97
:101AC000B50188279927CE0164DF99278B2D7A2DC0
:101AD000692DCE015EDF682DCE015BDF6BE2CE01AA
:101AE00083DF29A16F2D77278827992727FF18C023
:101AF0006EBD0DB407FEFDCFC701AA27BB278EBD63
:101B00000DB407FEFDCFBB27AF2D9E2D8D2D8EBDB5
:101B10000DB407FEFDCFCEBC0DB407FEFDCF10C047
:101B2000CE0137DFB70188279927CE0132DF992709
:101B30008F2D7E2D6D2DCE012CDF6C2DCE0129DF5A
:101B40006CE2CE01DF91CF911F910F91FF90EF904A
:101B5000DF90CF90BF90AF909F908F9045CF4F92E6
:101B60005F926F927F928F929F92AF92BF92CF922D
:101B7000DF92EF92FF920F931F93CF93DF935C015D
:101B8000FB01E9014701DC0118962D913C91199761
:101B9000621773070CF060C01A968D919C911B9789
:101BA000481759070CF058C06B01CC0EDD1ED6014A
:101BB00011977A01E00EF11EB70161507109B7FD6E
:101BC0004BC077FD49C0F7FF03C0E601E0E0F0E05D
:101BD00057FF03C0870140E050E0A217B3071CF095
:101BE000E901CE1BDF0B681779071CF08C01041B81
:101BF000150B9E01D8010E942A196B017C01BF01BF
:101C0000C50107DF26013701F50181A187FF13C058
:101C10004114510461047104F9F09EBC0DB407FE37
:101C2000FDCF8EBC0DB407FEFDCFF1E04F1A510879
:101C300061087108EDCF411451046104710461F031
:101C4000692DC501A6DE682DC501A3DE81E0481A15
:101C5000510861087108EFCFDF91CF911F910F916B
:101C6000FF90EF90DF90CF90BF90AF909F908F90BC
:101C70007F906F905F904F900895EF92FF920F9337
:101C80001F93CF93DF93EC01CB0177FD2DC06885C7
:101C900079858617970744F557FD26C06A857B85A9
:101CA000461757070CF5E32EF22EBC0101E010E0B9
:101CB00021E030E0CE01ADDE89A187FF09C0EEBC96
:101CC0000DB407FEFDCFFEBC0DB407FEFDCF0CC06A
:101CD0006E2DCE015EDE6F2DCE01DF91CF911F9173
:101CE0000F91FF90EF9055CEDF91CF911F910F9103
:101CF000FF90EF9008950F931F93CF93DF931F9260
:101D0000CDB7DEB78C01DC01ED91FC910284F38547
:101D1000E02D698319956981611102C060E201C0FB
:101D200061E2C80161DED801ED91FC910688F78976
:101D3000E02DC8010F90DF91CF911F910F91199461
:101D40001F93CF93DF93EC0163706D8B6230C1F012
:101D5000633001F1613051F080EF90E0998788871E
:101D600080E491E09B878A8718E41DC080E491E0BD
:101D70009987888780EF90E09B878A8718E213C055
:101D800080EF90E09987888780E491E09B878A873D
:101D900018E809C080E491E09987888780EF90E097
:101DA0009B878A8718EEE881F9810284F385E02D0C
:101DB000CE01199566E3CE0117DE612FCE01E9DD74
:101DC000E881F9810688F789E02DCE01DF91CF9176
:101DD0001F911994EF92FF920F931F93E12CF12C16
:101DE00002E310E024E630E044EB50E062ED70E006
:101DF0008AEF92E043D91F910F91FF90EF900895E1
:101E0000EF92FF920F931F93E12C88EFF82E02E3DD
:101E100010E022E330E044EB50E062ED70E08AEF46
:101E200092E00E942F049FE1E92EF12C22E330E0A2
:101E300044EB50E064E071E08AEF92E00E942F04EE
:101E4000C9DFEAEFF2E08AE091E0958784878DECC4
:101E500090E0978786878FEF9FEF938B828B918B94
:101E6000808B82E0848B6EE372E0CF0193D261E4D9
:101E700072E08AEF92E08ED210925B021F910F9176
:101E8000FF90EF900895FC01538D448D252F30E095
:101E9000842F90E0821B930B541710F0CF96089577
:101EA00001970895FC01918D828D981761F0828DC4
:101EB000DF01A80FB11D5D968C91928D9F5F9F737E
:101EC000928F90E008958FEF9FEF0895FC01918D20
:101ED000828D981731F0828DE80FF11D858D90E08D
:101EE00008958FEF9FEF08958DE592E00E94BA0369
:101EF00021E0892B09F420E0822F0895EF92FF92D0
:101F00000F931F93CF93DF93EC0181E0888F9B8D1C
:101F10008C8D981305C0E889F989808185FD23C0DF
:101F2000F62E0B8D10E00F5F1F4F0F731127E02E61
:101F30008C8DE8120BC00FB607FCFACFE889F9893F
:101F4000808185FFF5CFCE0170DBF2CF8B8DFE0156
:101F5000E80FF11DE35AFF4FF0820B8FEA89FB89EE
:101F60008081806207C0EE89FF896083E889F989F2
:101F700080818064808381E090E0DF91CF911F9128
:101F80000F91FF90EF900895CF93DF93EC01888D30
:101F90008823C1F0EA89FB89808185FD05C0A88975
:101FA000B9898C9186FD0EC00FB607FCF5CF8081F4
:101FB00085FFF2CFA889B9898C9185FFEDCFCE013D
:101FC00034DBE8CFDF91CF9108951F920F920FB6C7
:101FD0000F9211240BB60F922F933F934F935F9361
:101FE0006F937F938F939F93AF93BF93EF93FF93E1
:101FF0008DE592E01ADBFF91EF91BF91AF919F9138
:102000008F917F916F915F914F913F912F910F90A1
:102010000BBE0F900FBE0F901F9018951F920F923E
:102020000FB60F9211240BB60F922F938F939F939D
:10203000EF93FF93E0916D02F0916E028081E09149
:102040007302F091740282FD12C090818091760239
:102050008F5F8F7320917702821751F0E0917602A3
:10206000F0E0E35AFD4F958F8093760201C08081A6
:10207000FF91EF919F918F912F910F900BBE0F9039
:102080000FBE0F901F901895CF92DF92EF92FF92A4
:102090000F931F93CF93DF936C017A018B01C0E004
:1020A000D0E0CE15DF0589F0D8016D918D01D60104
:1020B000ED91FC910190F081E02DC6011995892BDD
:1020C00011F47E0102C02196ECCFC701DF91CF91C0
:1020D0001F910F91FF90EF90DF90CF9008952F9276
:1020E0003F924F925F926F927F928F929F92AF92A8
:1020F000BF92CF92DF92EF92FF920F931F93CF93F5
:10210000DF9300D000D0CDB7DEB72091300330E0B0
:10211000F901E853F94FE49080912D03A82FB0E026
:10212000FD01E853F94F049160912F0370E0FB012A
:10213000E853F94F949040912E0350E0FA01E85390
:10214000F94FC490F901E859F94FB490FD01E859ED
:10215000F94F7490FB01E859F94F8490FA01E8595E
:10216000F94FA49060E0FFDA60E080912E03FBDA83
:1021700010E0000F111F0255194FF801A591B491FD
:102180008C91372C309483218C93D12CF601EE0F57
:10219000FF1F9F012255394F6901F901A591B491A3
:1021A0009C918A2D809589238C9361E080913003E6
:1021B000DADA61E080912F03D6DAF12CF701EE0F25
:1021C000FF1FCF018255994F7C01FC01A591B4916D
:1021D0008C918B298C93E92DF0E0EE0FFF1FE255D7
:1021E000F94FA591B491EC9180948E228C928091BC
:1021F0002D0390E097DB4C0180912D0390E092DB62
:102200008815990524F42401481A590A03C02C01A1
:1022100048185908880E991E60E080913003A3DAAF
:1022200060E080912F039FDAF701A591B4918C9122
:10223000B0948B218C9361E080912D0394DAF801A6
:10224000A591B491EC917E2A7C9261E080912E035D
:102250008ADA80912F0390E065DB3C0180912F03A7
:1022600090E060DB861597052CF49301281B390B51
:10227000C90102C086199709039734F422242394D4
:1022800033E0431651040CF0212C660C771C61E0FE
:102290008091300368DAF701A591B491EC91BE22E8
:1022A000BC92F601A591B491EC91AE2AAC92F801E2
:1022B000A591B4918C9138223C9260E080912D03DD
:1022C00052DA80912F038BDA8C0180912D0387DA0B
:1022D000222009F438C0BC01990F880B990BC3D692
:1022E0006B017C01B801110F880B990BBCD69B01C7
:1022F000AC01C701B6011CD620E030E040E85FE346
:10230000B2D56B017C018EEF97E08819990997FD92
:10231000019695958795BC01990F880B990BA3D6CB
:102320009B01AC01C701B6012AD720E030E046E9A5
:1023300053E425D720E030E040E85AE320D760D6C8
:10234000E62F872F02C0E0E080E09A8289827C82BB
:102350006B82282D3A81462D5C816E2F782F80E08C
:1023600090E026960FB6F894DEBF0FBECDBFDF918A
:10237000CF911F910F91FF90EF90DF90CF90BF9082
:10238000AF909F908F907F906F905F904F903F9015
:102390002F9008956115710579F0FB0101900020DF
:1023A000E9F73197AF01461B570BDC01ED91FC912A
:1023B0000280F381E02D199480E090E008958F92DF
:1023C0009F92AF92BF920F931F93CF93DF93CDB79E
:1023D000DEB7A1970FB6F894DEBF0FBECDBF19A22E
:1023E000423008F44AE08E010F5D1F4F842E912C7D
:1023F000A12CB12CA501940105D5E62FB901CA0184
:1024000001501109EA3014F4E05D01C0E95CD80123
:10241000EC93232B242B252B69F7B8018DE592E053
:10242000B9DFA1960FB6F894DEBF0FBECDBFDF9126
:10243000CF911F910F91BF90AF909F908F90089573
:10244000CF92DF92EF92FF92CF93DF936B017C01EB
:10245000E0915D02F0915E020190F081E02D6DE26D
:102460008DE592E01995EC0166277727CB016C1971
:102470007D098E099F094AE0A2DF8C0F9D1FDF9125
:10248000CF91FF90EF90DF90CF900895CF93DF939F
:10249000CDB7DEB72A970FB6F894DEBF0FBECDBF1B
:1024A000789484B5826084BD84B5816084BD85B52F
:1024B000826085BD85B5816085BD80916E0081603B
:1024C00080936E00109281008091810082608093E1
:1024D00081008091810081608093810080918000E3
:1024E0008160809380008091B10084608093B1000E
:1024F0008091B00081608093B000809191008260F3
:1025000080939100809191008160809391008091EF
:1025100090008160809390008091A1008260809300
:10252000A1008091A10081608093A1008091A00012
:1025300081608093A00080912101826080932101BD
:10254000809121018160809321018091200181602F
:102550008093200180917A00846080937A0080913A
:102560007A00826080937A0080917A008160809303
:102570007A0080917A00806880937A001092C1007E
:10258000E0916D02F0916E0282E08083E091690239
:10259000F0916A021082E0916B02F0916C028FEC74
:1025A000808310927502E0917102F091720286E0D0
:1025B0008083E0916F02F09170028081806180835E
:1025C000E0916F02F0917002808188608083E091D9
:1025D0006F02F0917002808180688083E0916F02C9
:1025E000F091700280818F7D808380E092E1AAE784
:1025F000B0E08093140390931503A0931603B09357
:10260000170361E080911903AED860E0809119034F
:102610002DD861E080911803A6D861E0809118035D
:1026200025D880911B0387FD16C061E080911C03B3
:102630009AD860E080911C0319D861E080911B0357
:1026400092D861E080911B0311D880911D0387FD12
:1026500002C060E088D880911B0387FF30C0FFB6BE
:10266000F89480915C02811124C0EDEFF6E0849132
:10267000EDE9F6E09491E82FF0E0EE0FFF1FE25B4A
:10268000F94FA591B491EC91E92321F461E085E340
:102690000E94360B61E085E366D88CB580618CBD05
:1026A0008CB580648CBD61E084E35DD861E083E338
:1026B0005AD880915C028F5F80935C02FFBE80914C
:1026C0001A0387FD20C061E04ED861E080911A03B3
:1026D0000E94360B64E670E080E090E09FD860E0F6
:1026E00080911A030E94360B64E670E080E090E06F
:1026F00095D861E080911A030E94360B68EC70E077
:1027000080E090E08BD88AEF92E00E94EB0A6FEEB7
:102710008AEF92E069D963E08AEF92E03AD960E803
:102720008AEF92E036D962E08AEF92E032D96FEC1C
:102730008AEF92E059D960E08AEF92E02AD961EC01
:102740008AEF92E026D960E38AEF92E022D96DEE1B
:102750008AEF92E049D964E68AEF92E01AD963E001
:102760008AEF92E016D962E18AEF92E012D961E82D
:102770008AEF92E00ED968EE8AEF92E035D965E8EB
:102780008AEF92E006D960E08AEF92E002D968E72A
:102790008AEF92E0FED86BEC8AEF92E025D969E3EC
:1027A0008AEF92E0F6D86CE28AEF92E0F2D860E02D
:1027B0008AEF92E0EED864E38AEF92E0EAD862E032
:1027C0008AEF92E0E6D867EF8AEF92E00DD960E2F7
:1027D0008AEF92E0DED86AEE8AEF92E005D960E0F7
:1027E0008AEF92E0D6D860E08AEF92E0D2D860EC2F
:1027F0008AEF92E0F9D863E28AEF92E0CAD861ECFE
:102800008AEF92E0F1D860E18AEF92E0C2D865ECFD
:102810008AEF92E0E9D86EE38AEF92E0BAD868E2F4
:102820008AEF92E0B6D867EC8AEF92E0DDD866E8EE
:102830008AEF92E0AED866E38AEF92E0D5D868E4FA
:102840008AEF92E0A6D867E38AEF92E0CDD8809134
:102850001B0387FF09C01EBC0DB407FEFDCF1EBCC5
:102860000DB407FEFDCF08C060E08AEF92E091D87A
:1028700060E08AEF92E08DD86AE38AEF92E0B4D804
:1028800065E58AEF92E085D861EB8AEF92E0ACD8FB
:1028900060E08AEF92E07DD868E18AEF92E079D833
:1028A00066EB8AEF92E0A0D868E08AEF92E071D8F8
:1028B00062E88AEF92E06DD867E28AEF92E069D829
:1028C00062EF8AEF92E090D860E08AEF92E061D800
:1028D00066E28AEF92E088D861E08AEF92E059D808
:1028E00060EE8AEF92E080D86FE08AEF92E051D8F4
:1028F00061E38AEF92E04DD86BE28AEF92E049D82B
:102900006CE08AEF92E045D86EE08AEF92E041D821
:1029100068E08AEF92E03DD86EE48AEF92E039D821
:1029200061EF8AEF92E035D867E38AEF92E031D821
:1029300067E08AEF92E02DD860E18AEF92E029D833
:1029400063E08AEF92E025D86EE08AEF92E021D82A
:1029500069E08AEF92E01DD860E08AEF92E019D832
:1029600061EE8AEF92E040D860E08AEF92E011D801
:102970006EE08AEF92E00DD864E18AEF92E009D828
:1029800063E08AEF92E005D861E18AEF92E001D836
:1029900067E08AEF92E00E94C90C61E38AEF92E05F
:1029A0000E94C90C61EC8AEF92E00E94C90C68E4B5
:1029B0008AEF92E00E94C90C68E08AEF92E00E94E0
:1029C000C90C6FE08AEF92E00E94C90C6CE08AEFBC
:1029D00092E00E94C90C61E38AEF92E00E94C90C68
:1029E00066E38AEF92E00E94C90C6FE08AEF92E002
:1029F0000E94C90C61E18AEF92E00E94F40C68E742
:102A000070E080E090E00E940E0C69E28AEF92E0B4
:102A10000E94F40C68E770E080E090E00E940E0CE9
:102A20008AEF92E00E94240480EF90E090930303E9
:102A30008093020380E491E0909305038093040364
:102A40006FE170E08AEF92E00E94130961E08AEF83
:102A500092E076D9D5D92CE7822E26E0922EA12CB1
:102A6000B12C3CE0432E36E0532E612C712C2224F5
:102A70002A94322C34DB6D837E838D819E810B976B
:102A80000CF4C1C02CDB29833A834B835C832981FE
:102A90003A81C901330FAA0BBB0B9C01AD01265A29
:102AA000310941095109A0910403B0910503A4D152
:102AB000A50194017BD12F83388749875A872B81C1
:102AC0003C81C901330FAA0BBB0B9C01AD01285EF1
:102AD000310941095109A0910203B09103038CD13E
:102AE000A301920163D169017A0164E472E08DE58A
:102AF00092E050DC2F813885B901330F880B990B98
:102B000097FF02C09DDC02C04AE059DC67E472E036
:102B10008DE592E03FDCB6010D2C000C880B990B83
:102B200097FF02C08DDC02C04AE049DC61E472E03C
:102B30008DE592E02FDC80910403909105032F81B5
:102B40003885821B930B20915B02222371F0960142
:102B5000235D31092133310508F055C0855B9109AA
:102B6000C29708F050C04CD94EC096012550314054
:102B70002133310508F047C0855B9109C29708F001
:102B800042C080EEE82E87E0F82E02E310E022E358
:102B900030E044EB50E064E071E08AEF92E00E94A4
:102BA0002F049FE1E92EF12C22E330E044EB50E0CA
:102BB00062ED70E08AEF92E00E942F040BD988ED5D
:102BC00090E090930703809306032DEC30E0309360
:102BD00009032093080330920D0320920C033092D6
:102BE0000B0320920A0332E030930E036DE472E08F
:102BF0008AEF92E0CFDB61E472E08AEF92E0CADB19
:102C000081E080935B020E94C60334CFEDE5F2E0E1
:102C10001382128288EE93E0A0E0B0E08483958373
:102C2000A683B78384E092E09183808385EC90E073
:102C30009587848784EC90E09787868780EC90E086
:102C4000918B808B81EC90E0938B828B82EC90E077
:102C5000958B848B86EC90E0978B868B118E128EF1
:102C6000138E148EEDE2F3E088E3808387E38283A2
:102C700086E3818389E38383AAEFB2E013961C92F3
:102C80001E92129720EF30E015963C932E931497E6
:102C900080E491E017969C938E93169719963C9337
:102CA0002E9318971B969C938E931A9755961C9269
:102CB00055971D961C921E921C971F961C921E9251
:102CC0001E9781E054968C9354972FEF3FEF5396C5
:102CD0003C932E93529751963C932E935097569631
:102CE0008C93569757961C92579759961C921E9202
:102CF000589786E192E011969C938E9385E05E96BC
:102D00008C935E9786E05F968C935F978FEF90969B
:102D10008C93909791968C93919792968C9392978F
:102D200093968C9393975A961D921D921D921C9286
:102D30005D97EDECF6E0E491F0E0EE0FFF1FE25559
:102D4000F94F859194919D969C938E939C97EDE677
:102D5000F6E0E491D196EC93D197EEECF6E0E491B5
:102D6000F0E0EE0FFF1FE255F94F859194919B968D
:102D70009C938E939A97EEE6F6E0E491D296EC93CC
:102D8000D29799961C921E929897D0961C92D097A3
:102D900095961C921E9294979E961C929E9797963B
:102DA0001C921E9296979F961C920895052E97FB53
:102DB00016F400940FD057FD05D024D007FC02D0A4
:102DC00046F408C050954095309521953F4F4F4FA0
:102DD0005F4F089590958095709561957F4F8F4FC7
:102DE0009F4F089531D0A59F900DB49F900DA49F43
:102DF000800D911D11240895B7FFF4CFF3DF821BDE
:102E0000930B0895A1E21A2EAA1BBB1BFD010DC056
:102E1000AA1FBB1FEE1FFF1FA217B307E407F5078A
:102E200020F0A21BB30BE40BF50B661F771F881F66
:102E3000991F1A9469F760957095809590959B01FC
:102E4000AC01BD01CF010895A29FB001B39FC001A5
:102E5000A39F700D811D1124911DB29F700D811DC6
:102E60001124911D08955058BB27AA270ED04DC19B
:102E70003ED130F043D120F031F49F3F11F41EF4E5
:102E800033C10EF4E095E7FB29C1E92F4FD180F360
:102E9000BA17620773078407950718F071F49EF557
:102EA00067C10EF4E0950B2EBA2FA02D0B01B901CE
:102EB00090010C01CA01A0011124FF27591B99F0B0
:102EC000593F50F4503E68F11A16F040A22F232FBC
:102ED000342F4427585FF3CF469537952795A7950C
:102EE000F0405395C9F77EF41F16BA0B620B730BB3
:102EF000840BBAF09150A1F0FF0FBB1F661F771F24
:102F0000881FC2F70EC0BA0F621F731F841F48F4D8
:102F1000879577956795B795F7959E3F08F0B3CF5E
:102F20009395880F08F09927EE0F97958795089548
:102F30000CD0EBC0E3D040F0DAD030F021F45F3FAA
:102F400019F0CCC0511115C1CFC0F0D098F399231E
:102F5000C9F35523B1F3951B550BBB27AA2762175D
:102F60007307840738F09F5F5F4F220F331F441FA2
:102F7000AA1FA9F333D00E2E3AF0E0E830D09150DA
:102F80005040E695001CCAF729D0FE2F27D0660FC7
:102F9000771F881FBB1F261737074807AB07B0E806
:102FA00009F0BB0B802DBF01FF2793585F4F2AF01C
:102FB0009E3F510568F092C0DCC05F3FECF3983E45
:102FC000DCF3869577956795B795F7959F5FC9F779
:102FD000880F911D9695879597F90895E1E0660F02
:102FE000771F881FBB1F621773078407BA0720F07B
:102FF000621B730B840BBA0BEE1F88F7E0950895E4
:1030000004D06894B111B5C0089598D088F09F5746
:1030100090F0B92F9927B751A0F0D1F0660F771F24
:10302000881F991F1AF0BA95C9F712C0B13081F004
:103030009FD0B1E008959CC0672F782F8827B85F94
:1030400039F0B93FCCF3869577956795B395D9F765
:103050003EF490958095709561957F4F8F4F9F4F6F
:103060000895E89409C097FB3EF49095809570957B
:1030700061957F4F8F4F9F4F9923A9F0F92F96E9C4
:10308000BB279395F695879577956795B795F11139
:10309000F8CFFAF4BB0F11F460FF1BC06F5F7F4FD6
:1030A0008F4F9F4F16C0882311F096E911C07723E8
:1030B00021F09EE8872F762F05C0662371F096E8F1
:1030C000862F70E060E02AF09A95660F771F881FC0
:1030D000DAF7880F9695879597F9089597F99F677E
:1030E00080E870E060E008959FEF80EC0895002490
:1030F0000A941616170618060906089500240A945D
:1031000012161306140605060895092E0394000CE2
:1031100011F4882352F0BB0F40F4BF2B11F460FF71
:1031200004C06F5F7F4F8F4F9F4F089557FD90589A
:10313000440F551F59F05F3F71F04795880F97FB7B
:10314000991F61F09F3F79F0879508951216130635
:103150001406551FF2CF4695F1DF08C01616170664
:103160001806991FF1CF8695710561050894089599
:10317000E894BB2766277727CB0197F908950BD0F2
:10318000C4CFB5DF28F0BADF18F0952309F0A6CF39
:10319000ABCF1124EECFCADFA0F3959FD1F3950FEB
:1031A00050E0551F629FF001729FBB27F00DB11DCB
:1031B000639FAA27F00DB11DAA1F649F6627B00D5B
:1031C000A11D661F829F2227B00DA11D621F739F44
:1031D000B00DA11D621F839FA00D611D221F749F52
:1031E0003327A00D611D231F849F600D211D822F99
:1031F000762F6A2F11249F5750408AF0E1F08823E0
:103200004AF0EE0FFF1FBB1F661F771F881F9150EC
:103210005040A9F79E3F510570F060CFAACF5F3FA5
:10322000ECF3983EDCF3869577956795B795F7951F
:10323000E7959F5FC1F7FE2B880F911D96958795A7
:1032400097F90895EE0FFF1F881F8BBF0790F69127
:10325000E02D1994F9DD332312F48A1B9B0B01C076
:10326000F3DDB7FF0895821B930B089581E090E092
:08327000F89400C0F894FFCFB0
:10327800000000007E0F4410430FC40FBA03520F22
:10328800660F000000006A074410E60AE50AE10438
:10329800EB0A3D0EAF0D2A0517053C0A2404A00EC3
:1032A8007B0EA7046D042F0413099D083E084F4E9A
:1032B800000D0A00582000207C205920004F464667
:0232C800000004
:00000001FF
