:100000008EC30000BDC30000BBC30000B9C3000025
:10001000B7C30000B5C30000B3C30000B1C3000004
:10002000AFC30000ADC30000ABC30000A9C3000014
:10003000A7C30000A5C30000A3C30000A1C3000024
:100040009FC300009DC300009BC3000099C3000034
:1000500097C3000095C3000093C300000C944F0C9D
:100060008FC300000C94BC0F0C94930F89C3000045
:1000700087C3000085C3000083C3000081C3000064
:100080007FC300007DC300007BC3000079C3000074
:1000900077C3000075C3000073C3000071C3000084
:1000A0006FC300006DC300006BC3000069C3000094
:1000B00067C3000065C3000063C3000061C30000A4
:1000C0005FC300005DC300005BC3000059C30000B4
:1000D00057C3000055C3000053C3000051C30000C4
:1000E0004FC300006C0B6F0B5E0B620B660BA60B15
:1000F000730B770B7D0B810B850B8B0B8F0B930B8E
:10010000A60B990B9D0BA10B00000000003E5B4F5E
:100110005B3E3E6B4F6B3E1C3E7C3E1C183C7E3C67
:10012000181C577D571C1C5E7F5E1C00183C180075
:10013000FFE7C3E7FF0018241800FFE7DBE7FF3005
:10014000483A060E2629792926407F050507407F73
:1001500005253F5A3CE73C5A7F3E1C1C08081C1CE6
:100160003E7F14227F22145F5F005F5F06097F01DC
:100170007F006689956A606060606094A2FFA294C7
:1001800008047E040810207E201008082A1C080895
:100190001C2A08081E101010100C1E0C1E0C3038E3
:1001A0003E3830060E3E0E06000000000000005FE4
:1001B00000000007000700147F147F14242A7F2A00
:1001C00012231308646236495620500008070300C2
:1001D000001C2241000041221C002A1C7F1C2A080E
:1001E000083E080800807030000808080808000071
:1001F00060600020100804023E5149453E00427FE5
:10020000400072494949462141494D331814127F33
:100210001027454545393C4A4949314121110907D3
:100220003649494936464949291E00001400000054
:100230004034000000081422411414141414004126
:1002400022140802015909063E415D594E7C1211E3
:10025000127C7F494949363E414141227F4141411B
:100260003E7F494949417F090909013E4141517396
:100270007F0808087F00417F41002040413F017F07
:10028000081422417F404040407F021C027F7F04CF
:1002900008107F3E4141413E7F090909063E415118
:1002A000215E7F09192946264949493203017F0108
:1002B000033F4040403F1F2040201F3F4038403F09
:1002C000631408146303047804036159494D43001F
:1002D0007F4141410204081020004141417F040256
:1002E00001020440404040400003070800205454ED
:1002F00078407F28444438384444442838444428CB
:100300007F385454541800087E090218A4A49C781D
:100310007F0804047800447D40002040403D007F79
:100320001028440000417F40007C047804787C0859
:100330000404783844444438FC182424181824242D
:1003400018FC7C08040408485454542404043F4412
:10035000243C4040207C1C2040201C3C4030403C41
:1003600044281028444C9090907C4464544C4400A1
:100370000836410000007700000041360800020105
:100380000204023C2623263C1EA1A161123A4040F1
:10039000207A38545455592155557941225454786E
:1003A00042215554784020545579400C1E52721207
:1003B0003955555559395454545939555454580090
:1003C00000457C410002457D420001457C407D1294
:1003D00011127DF0282528F07C54554500205454F6
:1003E0007C547C0A097F4932494949323A444444A1
:1003F0003A324A4848303A4141217A3A42402078DC
:10040000009DA0A07D3D4242423D3D4040403D3CDC
:1004100024FF2424487E4943662B2FFC2F2BFF0901
:1004200029F620C0887E09032054547941000044F5
:100430007D413048484A32384040227A007A0A0AE0
:10044000727D0D19317D2629292F28262929292653
:1004500030484D4020380808080808080808382F98
:1004600010C8ACBA2F102834FA00007B0000081422
:100470002A142222142A14085500550055AA55AAF8
:1004800055AAFF55FF55FF000000FF00101010FF98
:1004900000141414FF001010FF00FF1010F010F0F3
:1004A000141414FC001414F700FF0000FF00FF14E4
:1004B00014F404FC141417101F10101F101F141430
:1004C000141F00101010F0000000001F101010107A
:1004D0001F10101010F010000000FF10101010106E
:1004E00010101010FF10000000FF140000FF00FFAC
:1004F00000001F10170000FC04F414141710171448
:1005000014F404F40000FF00F71414141414141469
:10051000F700F7141414171410101F101F141414DC
:10052000F4141010F010F000001F101F0000001F46
:1005300014000000FC140000F010F01010FF10FF79
:10054000141414FF141010101F00000000F010FF0E
:10055000FFFFFFFFF0F0F0F0F0FFFFFF00000000F2
:1005600000FFFF0F0F0F0F0F3844443844FC4A4A76
:100570004A347E02020606027E027E02635549412B
:10058000633844443C04407E201E2006027E020262
:1005900099A5E7A5991C2A492A1C4C7201724C3076
:1005A0004A4D4D303048784830BC625A463D3E494D
:1005B0004949007E0101017E2A2A2A2A2A44445FF1
:1005C000444440514A444040444A51400000FF01E5
:1005D00003E080FF000008086B6B083612362436F3
:1005E000060F090F06000018180000001010003058
:1005F00040FF0101001F01011E00191D1712003CE0
:100600003C3C3C000000000000000A0B02090C0DFD
:100610000E080703040100000000000000000000B5
:1006200000000000000000000000000000000000CA
:100630000000000012111000000000000000000087
:1006400000000000000000000000000000000000AA
:100650002100240027002A002D0030003300010172
:100660000000040107010A01546F7563682050619E
:10067000696E74210001021020200808102040102B
:100680002040800201020108040201010204081056
:100690002040808040201008040201800402018074
:1006A000402010080402010804020101020408109D
:1006B0002040800102040810204080000022002514
:1006C0000028002B002E003100340002010000053C
:1006D0000108010B010505050507050808080802C2
:1006E0000202020A0A0808040404040101010101CB
:1006F0000101010303030303030303040707070CBA
:100700000C0C0C0C0C0C0C0202020206060606066F
:100710000606060B0B0B0B0B0B0B0B000A17112419
:100720001FBECFEFD1E2DEBFCDBF00E00CBF12E0B5
:10073000A0E0B2E0E0E8F4E300E00BBF02C0079005
:100740000D92A635B107D9F723E0A6E5B2E001C0C6
:100750001D92A833B207E1F713E0CFE8D3E000E041
:1007600006C021970109802FFE010E94261ACE386B
:10077000D10780E00807A9F70E947D110C943E1A6A
:100780003FCCFC01918D228D892F90E0805C9F4FA2
:10079000821B91098F739927089580E090E0892B3F
:1007A00021F00E94220F811125C080E090E0892B6A
:1007B00041F080E090E0892B21F00E94000081113F
:1007C0001CC080E090E0892B41F080E090E0892B14
:1007D00021F00E940000811113C080E090E0892B7D
:1007E000A1F080E090E0892B81F00E94000081114F
:1007F0000AC008950E940000D8CF0E940000E1CFF7
:100800000E940000EACF0C94000008953FB7F894CE
:1008100080915B0290915C02A0915D02B0915E02BA
:1008200026B5A89B05C02F3F19F00196A11DB11D4B
:100830003FBFBA2FA92F982F8827820F911DA11D86
:10084000B11DBC01CD0142E0660F771F881F991FC3
:100850004A95D1F70895DC019C96ED91FC919D9706
:100860009081D1968C91892B80830895CF92DF92CD
:10087000EF92FF920F931F93CF93DF9300D000D09E
:10088000CDB7DEB76C01DC01ED91FC910284F385FC
:10089000E02D2D833E834B835C8369837A83199596
:1008A000D601ED91FC910684F785E02D2D813E81E6
:1008B0004B815C8169817A81C6011995D601ED91E0
:1008C000FC910688F789E02DC60126960FB6F894AC
:1008D000DEBF0FBECDBFDF91CF911F910F91FF9073
:1008E000EF90DF90CF901994EF92FF920F931F93A8
:1008F000CF93DF9300D000D0CDB7DEB77C01DC0111
:10090000ED91FC910284F385E02D2D833E834B8392
:100910005C8369837A831995D701ED91FC910288F4
:10092000F389E02D2D813E814B815C8169817A8143
:10093000C7011995D701ED91FC910688F789E02D43
:10094000C70126960FB6F894DEBF0FBECDBFDF916C
:10095000CF911F910F91FF90EF901994EF92FF921A
:100960000F931F93CF93DF9300D000D0CDB7DEB7A6
:100970007C01DC01ED91FC910284F385E02D2D8357
:100980003E834B835C8369837A831995D701ED910C
:10099000FC910088F189E02D2D813E814B815C81A5
:1009A00069817A81C7011995D701ED91FC9106887B
:1009B000F789E02DC70126960FB6F894DEBF0FBE6B
:1009C000CDBFDF91CF911F910F91FF90EF901994C0
:1009D0000F931F93CF93DF9300D000D0CDB7DEB736
:1009E0008C01DC01ED91FC910284F385E02D2D83D7
:1009F0003E834B835C8369837A831995D801ED919B
:100A0000FC910484F585E02D2D813E814B815C8134
:100A100069817A81C8011995D801ED91FC91068808
:100A2000F789E02DC80126960FB6F894DEBF0FBEF9
:100A3000CDBFDF91CF911F910F911994EF92FF924B
:100A40000F931F93DC01ED91FC910684F785E02D57
:100A5000780101E010E019951F910F91FF90EF9040
:100A60000895EF92FF920F931F93DC01ED91FC919B
:100A70000684F785E02D7801890121E030E01995A1
:100A80001F910F91FF90EF9008950895FC016370FE
:100A9000658B8481958126813781613039F063309F
:100AA00029F09187808733872287089531872087AF
:100AB0009387828708952F923F924F925F926F9211
:100AC0007F928F929F92AF92BF92CF92DF92EF92DE
:100AD000FF920F931F93CF93DF93CDB7DEB76C9741
:100AE0000FB6F894DEBF0FBECDBF9C8F8B8F5B011E
:100AF0001A011F830E833701C982DC0158964D917C
:100B00005C9159974115510509F0E5C018968D91F2
:100B10009C911997681779070CF0CAC11A968D91A4
:100B20009C911B97281639060CF0C2C18C2C912C75
:100B3000FB0136E0C39EE00DF11D1124FB87EA871F
:100B40001E161F060CF0B4C1C40133E0880F991FB4
:100B50003A95E1F79D878C87820D931D181619062B
:100B60000CF0A6C157968C91811103C0203B08F070
:100B70002F5FAB8DBC8DED91FC9111970284F385B5
:100B8000E02DCD012A8F19952A8DB5E02B9F90017C
:100B90001124F5013596FF87EE87BB82AA822501D5
:100BA000A9014A195B09598B488BC10108969B8B97
:100BB0008A8BE889F989E40DF51DE85FFE4F949171
:100BC000988761013D822C82A885A0FF13C0AB8D60
:100BD000BC8DED91FC91B981B13031F40484F5857F
:100BE000E02D2E813F8116C00684F785E02DEE8032
:100BF000FF801AC0EE81FF816E167F06F1F0AB8D8B
:100C0000BC8DED91FC91B981B13051F40484F5852E
:100C1000E02D9301A601B2018B8D9C8D19950DC01D
:100C20000684F785E02D7301840194014C815D8178
:100C30006A817B818B8D9C8D1995E885E695E88787
:100C4000FFEFCF1ADF0A2C813D81280D391D3D832E
:100C50002C834A895B89C416D50609F0B5CF5FEFAE
:100C6000451A550A8A819B81880D991D9B838A8329
:100C7000AE85BF854A165B0609F09BCFEE81FF81EA
:100C80006E167F0609F4F2C0EB8DFC8DA081B18158
:100C9000F981F13079F4B5016B5F7F4F5096ED919A
:100CA000FC915197830128E030E0A1018B8D9C8D50
:100CB0001995DCC06A857B85681979091E96ED91C6
:100CC000FC911F9773010C851D859401A1018B8DEB
:100CD0009C8D1995CBC0FA01349694913297659109
:100CE0007491291BCB01B7E02B9F800D911D11241E
:100CF000FA01259134913B8B2A8BFC01459154914B
:100D00005B834A83FC013296C490319654915E878E
:100D1000329614913196D4908981823058F0612EA8
:100D2000012E000C7708AD2D0D2C000CBB0BB987E4
:100D3000A88704C019861886612C712CAB8DBC8DD8
:100D4000ED91FC9111970284F385E02DCD01199569
:100D5000B9818B2E912C689CC001699C900D789C68
:100D6000900D1124FC01EA0DFB1DFD87EC871C8210
:100D7000712C612CE12F110FFF0B95012E0F3F1FDE
:100D80003B872A87AC0CB11CA5014E0F5F1F5F8B00
:100D90004E8BC1018D0D911DD7FC9A95998F888F2F
:100DA0004E85641608F062C0862D90E0488559850E
:100DB000480F591F489D9001499D300D589D300D99
:100DC0001124D901A20DB31DB98BA88BAA84BB84B1
:100DD0004C845D84DC80BA85DB1AE88DF98DE80FE0
:100DE000F91FFD8BEC8B8D2D8A0D2E893F89A21664
:100DF000B306B9F1877061F48A819B810196EA8913
:100E0000FB89AA81BB81EA0FFB1F74909B838A83B5
:100E100077FE20C0AB8DBC8DED91FC91B981B130D6
:100E200061F40484F585E02D2E813F814C895D8934
:100E3000B5018B8D9C8D19950DC00684F785E02D2D
:100E4000EE80FF808401940148895989B2018B8D1D
:100E50009C8D1995770CEFEFAE1ABE0A480C591C01
:100E6000C2CF3C813C0D3C8363949ACFAB8DBC8D4B
:100E7000ED91FC9111970688F789E02DCD016C96D4
:100E80000FB6F894DEBF0FBECDBFDF91CF911F919B
:100E90000F91FF90EF90DF90CF90BF90AF909F9019
:100EA0008F907F906F905F904F903F902F9019940C
:100EB0006C960FB6F894DEBF0FBECDBFDF91CF9119
:100EC0001F910F91FF90EF90DF90CF90BF90AF9068
:100ED0009F908F907F906F905F904F903F902F905A
:100EE0000895AF92BF92CF92EF92FF920F931F930C
:100EF000CF93DF93EC01262F888D998D009709F011
:100F00003FC06A3059F41D861C862C898E859F85CA
:100F100038E0239F800D911D112440C06D3009F4ED
:100F2000A8C08E898823C1F03C898C859D8546E0C8
:100F3000349F800D911D1124488559854817590704
:100F40005CF41D861C868E859F8548E0349F800D4D
:100F5000911D11249F878E87EA88FB88088919894B
:100F60004E855F856C857D85CC88CE01A4DD2C897E
:100F70008C859D8536E0239F800D911D112442C0F4
:100F80006A3079F41D861C862C89FC013696E49122
:100F90008E859F852E9F800D911D11249F878E87A2
:100FA00068C06D3009F465C0FC0134963491631754
:100FB00008F45FC03196E491E61708F45AC0FC01CA
:100FC0003296A590B490462F50E0431B510937E06C
:100FD000349FB001359F700D1124A60EB71EF50188
:100FE000329634913196E491332311F0E1110DC022
:100FF000F5013496E4912C898C859D85E29F800DC6
:10100000911D11249D878C8734C0F501359644913C
:101010005E89552311F16C89E32FF0E0E40FF11D97
:1010200047FDFA956E9FD0016F9FB00D11244C853E
:101030005D854A0F5B1FE885F985E417F5076CF4B9
:101040001D861C86FC013696E4918E859F856E9FD9
:10105000800D911D11249F878E87EA88FB8808895F
:1010600019894E855F856C857D85CC88CE0123DD11
:10107000BFCF81E090E0DF91CF911F910F91FF9062
:10108000EF90CF90BF90AF9008956F927F928F9224
:101090009F92AF92BF92CF92DF92EF92FF920F9307
:1010A0001F93CF93DF93EC014B015A016901380183
:1010B000E881F9810284F385E02D1995E881F981B1
:1010C0000288F389E02D87019601A501B401CE01C4
:1010D0001995E881F981A501460D571D4150510927
:1010E0000288F389E02D9601B401CE011995E881BB
:1010F000F9810088F189E02D9301A501B401CE01A9
:101100001995E881F981C80CD91CB60161507109A3
:101110000088F189E02D9301A501CE011995E881A0
:10112000F9810688F789E02DCE01DF91CF911F91DB
:101130000F91FF90EF90DF90CF90BF90AF909F9076
:101140008F907F906F901994CF92DF92EF92FF92E1
:101150000F931F93CF93DF9300D000D0CDB7DEB7AE
:101160006C01DC01ED91FC916217730789F404179F
:1011700015072CF4942F852FA801092F182F041B75
:10118000150B98012F5F3F4F048CF58DE02D12C099
:101190004017510709F5261737072CF4962F872F8C
:1011A000B901292F382F261B370B2F5F3F4F068C95
:1011B000F78DE02D8701C601199526960FB6F89494
:1011C000DEBF0FBECDBFDF91CF911F910F91FF907A
:1011D000EF90DF90CF9008950284F385E02D2D836A
:1011E0003E834B835C8369837A831995D601ED91A5
:1011F000FC910488F589E02D2D813E814B815C8135
:1012000069817A81C6011995D601ED91FC91068814
:10121000F789E02DC60126960FB6F894DEBF0FBE03
:10122000CDBFDF91CF911F910F91FF90EF90DF9095
:10123000CF901994EF92FF920F931F93DC01ED91E1
:10124000FC9111971A960D911C911B9718962D9150
:101250003C91199700A0F1A1E02D7B0140E050E006
:1012600060E070E019951F910F91FF90EF90089545
:101270004F925F926F927F928F929F92AF92BF92A6
:10128000CF92DF92EF92FF920F931F93CF93DF9352
:101290001F921F92CDB7DEB76C015A013901480188
:1012A000DC01ED91FC910284F385E02D69837A8362
:1012B00019956981462E7A81572E640C751CD601CA
:1012C000ED91FC91461457046CF40088F189E02DEF
:1012D00087019401A501B201C6011995BFEF4B1A10
:1012E0005B0AEDCF0688F789E02DC6010F900F90BD
:1012F000DF91CF911F910F91FF90EF90DF90CF90F2
:10130000BF90AF909F908F907F906F905F904F9025
:101310001994AF92BF92CF92DF92EF92FF920F9308
:101320001F93CF93DF9300D01F92CDB7DEB75C0140
:101330006901DC01ED91FC910284F385E02D4B8382
:101340005C8369837A831995D501ED91FC9169815C
:101350007A819B012C0D3D1D215031090488F589AE
:10136000E02D78014B815C818A01C5011995D50179
:10137000ED91FC910688F789E02DC5010F900F9043
:101380000F900F90DF91CF911F910F91FF90EF90F1
:10139000DF90CF90BF90AF901994AF92BF92CF9251
:1013A000DF92EF92FF920F931F93CF93DF9300D0C2
:1013B0001F92CDB7DEB75C016901DC01ED91FC91B4
:1013C0000284F385E02D4B835C8369837A831995CE
:1013D000D501ED91FC914B815C81C40ED51EB1E02D
:1013E000CB1AD1080488F589E02D7801860169813E
:1013F0007A819B01C5011995D501ED91FC91068873
:10140000F789E02DC5010F900F900F900F90DF919D
:10141000CF911F910F91FF90EF90DF90CF90BF90F1
:10142000AF9019940895EF92FF920F931F93DC01F0
:10143000ED91FC9100A0F1A1E02D19951F910F9164
:10144000FF90EF9008950F931F93DC01ED91FC91B5
:10145000068CF78DE02D19951F910F9108950F932C
:101460001F93DC01ED91FC91048CF58DE02D199515
:101470001F910F910895DC01ED91FC910084F1859D
:10148000E02D199408952F923F924F925F926F92A0
:101490007F928F929F92AF92BF92CF92DF92EF9204
:1014A000FF920F931F93CF93DF9300D0CDB7DEB79A
:1014B0004C017B836A836A01590117019801241B3F
:1014C000350B37FF03C0319521953109C5014A819C
:1014D0005B81841B950B97FF03C0919581959109C2
:1014E00051E059838217930714F019820BC09A2D8B
:1014F0008B2D5801092F182F9A818B81DB82CA828C
:10150000C92ED82E8A819B81A816B9065CF49C2D21
:101510008D2D6801092F182F9A818B81BB82AA8299
:10152000A92EB82E2501AA81BB814A1A5B0A38016F
:101530006C187D0877FE03C0719461947108720184
:1015400057FE03C0BFEFEB1AFB0AF594E794C016F1
:10155000D1061CF00FEF1FEF1FC001E010E01CC010
:10156000D401ED91FC91B9810484F585E02D9101C0
:10157000BB23C1F04A815B81B601C4011995E6180D
:10158000F708F7FE04C0C00ED11EE40CF51CEA817A
:10159000FB813196FB83EA834A815B81A416B50601
:1015A000FCF604C0A6016A817B81E7CF0F900F9003
:1015B0000F90DF91CF911F910F91FF90EF90DF90EF
:1015C000CF90BF90AF909F908F907F906F905F90E3
:1015D0004F903F902F900895089580E090E00895F7
:1015E0000E943A1AFC0181A187FF1EC0428D538DD3
:1015F000648D758D20E080E092E1AAE7B0E04817A5
:1016000059076A077B0740F4B695A7959795879584
:101610002F5F2630A1F727E091E09227892F806A7B
:10162000869591708CBD9DBDA4A5B5A59C9181A901
:10163000809589238C930895FC01848DDF01A80F88
:10164000B11DA35ABF4F2C91848D90E001968F73EA
:101650009927848FA689B7892C93A089B1898C9109
:1016600080648C93938D848D981306C00288F389CF
:10167000E02D80818F7D80830895362F90E0FC01DE
:10168000E85FF94F4491FC01EB58F94F2491FC01BC
:10169000EB52F94F9491992309F46BC0442309F458
:1016A00055C050E0FA013197E231F10508F04EC023
:1016B0008827EE58FF4F8F4F0C94261A8091800098
:1016C0008F7707C0809180008F7D03C0809180005C
:1016D000877F809380003AC084B58F7702C084B53D
:1016E0008F7D84BD33C08091B0008F7703C080911F
:1016F000B0008F7D8093B00029C0809190008F77DB
:1017000007C0809190008F7D03C080919000877FFB
:10171000809390001BC08091A0008F7707C08091BC
:10172000A0008F7D03C08091A000877F8093A000E0
:101730000DC0809120018F7707C0809120018F7D9F
:1017400003C080912001877F80932001E92FF0E082
:10175000EE0FFF1FE554F94FA591B4918FB7F894A0
:10176000EC91311103C020952E2301C02E2B2C9318
:101770008FBF0895CF93DF9390E0FC01EB58F94FB2
:101780002491FC01EB52F94F8491882361F190E0A0
:10179000880F991FFC01E25BF94FC591D491FC01C0
:1017A000E554F94FA591B491611109C09FB7F89420
:1017B0008881209582238883EC912E230BC0623090
:1017C00061F49FB7F8943881822F809583238883B2
:1017D000EC912E2B2C939FBF06C08FB7F894E88115
:1017E0002E2B28838FBFDF91CF910895863308F089
:1017F000865390917B00282F2870977F922B90938F
:101800007B008770806480937C0080917A00806484
:1018100080937A0080917A0086FDFCCF80917800D9
:101820002091790090E0922B08958F929F92AF9231
:10183000BF92CF92DF92EF92FF926B017C010E94E8
:1018400006044B015C01C114D104E104F104F1F080
:101850000E940604DC01CB0188199909AA09BB0979
:10186000883E9340A105B10570F321E0C21AD1086A
:10187000E108F10888EE880E83E0981EA11CB11CD7
:10188000C114D104E104F10419F7DDCFFF90EF900A
:10189000DF90CF90BF90AF909F908F9008951F9250
:1018A0000F920FB60F9211242F933F938F939F9314
:1018B000AF93BF938091570290915802A091590223
:1018C000B0915A023091560223E0230F2D3720F4B5
:1018D0000196A11DB11D05C026E8230F0296A11D8A
:1018E000B11D209356028093570290935802A09303
:1018F0005902B0935A0280915B0290915C02A091D0
:101900005D02B0915E020196A11DB11D80935B0244
:1019100090935C02A0935D02B0935E02BF91AF9181
:101920009F918F913F912F910F900FBE0F901F901D
:101930001895BF92CF92DF92EF92FF920F931F9371
:10194000CF93DF93B82E34E0C32ED12CE12C44E0AA
:10195000F42E00E010E0C0E0D0E08B2D47DF081748
:1019600019070CF48C018E159F050CF47C01C80F2F
:10197000D91F81E0C81AD10881F7CE018E199F09BD
:10198000801B910B97FD019695958795DF91CF91DF
:101990001F910F91FF90EF90DF90CF90BF9008952F
:1019A000FC0181A187FF05C06EBD0DB407FEFDCF10
:1019B000089528E030E090E8A4A1B5A186A5492FBC
:1019C000462319F04C91842B03C04C9180958423BD
:1019D0008C93A0A5B1A54C9180A9809584238C936C
:1019E000A0A5B1A54C9180A9842B8C9396952150EC
:1019F000310911F70895CF93DF93EC01EAA5FBA518
:101A000090818AA9809589238083CE01C9DFEAA5C8
:101A1000FBA590818AA9892B8083DF91CF910895BE
:101A20008F929F92AF92BF92CF92DF92EF92FF92EE
:101A30000F931F93CF93DF93EC01490181E0881A44
:101A40009108860E971EC401A0E0B0E04B01A12CC6
:101A5000B12C540199248824882A992AAA2ABB2ABD
:101A6000680181E0C81AD108C40ED51EC601A0E0E5
:101A7000B0E06A01E12CF12C7601DD24CC24C82AE7
:101A8000D92AEA2AFB2A6AE2CE01B5DF29A16B2D09
:101A900077278827992727FF18C06EBD0DB407FE4A
:101AA000FDCFC501AA27BB278EBD0DB407FEFDCF14
:101AB000BB27AB2D9A2D892D8EBD0DB407FEFDCF12
:101AC0008EBC0DB407FEFDCF10C0CE0169DFB5019D
:101AD00088279927CE0164DF99278B2D7A2D692DD0
:101AE000CE015EDF682DCE015BDF6BE2CE0183DFCE
:101AF00029A16F2D77278827992727FF18C06EBD4A
:101B00000DB407FEFDCFC701AA27BB278EBD0DB4BC
:101B100007FEFDCFBB27AF2D9E2D8D2D8EBD0DB4A5
:101B200007FEFDCFCEBC0DB407FEFDCF10C0CE0129
:101B300037DFB70188279927CE0132DF99278F2D0C
:101B40007E2D6D2DCE012CDF6C2DCE0129DF6CE2B8
:101B5000CE01DF91CF911F910F91FF90EF90DF9019
:101B6000CF90BF90AF909F908F9045CF4F925F9254
:101B70006F927F928F929F92AF92BF92CF92DF929D
:101B8000EF92FF920F931F93CF93DF935C01FB01C2
:101B9000E9014701DC0118962D913C9119976217D4
:101BA00073070CF060C01A968D919C911B97481793
:101BB00059070CF058C06B01CC0EDD1ED6011197F1
:101BC0007A01E00EF11EB70161507109B7FD4BC0FB
:101BD00077FD49C0F7FF03C0E601E0E0F0E057FF02
:101BE00003C0870140E050E0A217B3071CF0E901F1
:101BF000CE1BDF0B681779071CF08C01041B150B3B
:101C00009E01D8010E942E1A6B017C01BF01C50103
:101C100007DF26013701F50181A187FF13C04114B9
:101C2000510461047104F9F09EBC0DB407FEFDCFB0
:101C30008EBC0DB407FEFDCFF1E04F1A51086108CC
:101C40007108EDCF411451046104710461F0692DF4
:101C5000C501A6DE682DC501A3DE81E0481A510842
:101C600061087108EFCFDF91CF911F910F91FF9025
:101C7000EF90DF90CF90BF90AF909F908F907F902C
:101C80006F905F904F900895EF92FF920F931F9384
:101C9000CF93DF93EC01CB0177FD2DC0688579856B
:101CA0008617970744F557FD26C06A857B8546173A
:101CB00057070CF5E32EF22EBC0101E010E021E005
:101CC00030E0CE01ADDE89A187FF09C0EEBC0DB4C6
:101CD00007FEFDCFFEBC0DB407FEFDCF0CC06E2D80
:101CE000CE015EDE6F2DCE01DF91CF911F910F915E
:101CF000FF90EF9055CEDF91CF911F910F91FF9004
:101D0000EF9008950F931F93CF93DF931F92CDB75A
:101D1000DEB78C01DC01ED91FC910284F385E02DAE
:101D2000698319956981611102C060E201C061E2B5
:101D3000C80161DED801ED91FC910688F789E02D9C
:101D4000C8010F90DF91CF911F910F9119941F93AC
:101D5000CF93DF93EC0163706D8B6230C1F0633021
:101D600001F1613051F080EF90E09987888780E43D
:101D700091E09B878A8718E41DC080E491E09987F1
:101D8000888780EF90E09B878A8718E213C080EFF6
:101D900090E09987888780E491E09B878A8718E89C
:101DA00009C080E491E09987888780EF90E09B8765
:101DB0008A8718EEE881F9810284F385E02DCE014F
:101DC000199566E3CE0117DE612FCE01E9DDE881CA
:101DD000F9810688F789E02DCE01DF91CF911F911F
:101DE0001994FC01538D448D252F30E0842F90E011
:101DF000821B930B541710F0CF9608950197089506
:101E0000FC01918D828D981761F0828DDF01A80F02
:101E1000B11D5D968C91928D9F5F9F73928F90E024
:101E200008958FEF9FEF0895FC01918D828D981793
:101E300031F0828DE80FF11D858D90E008958FEFD0
:101E40009FEF089584E692E00E94C10321E0892B70
:101E500009F420E0822F0895EF92FF920F931F93D1
:101E6000CF93DF93EC0181E0888F9B8D8C8D98134D
:101E700005C0E889F989808185FD23C0F62E0B8D88
:101E800010E00F5F1F4F0F731127E02E8C8DE812AB
:101E90000BC00FB607FCFACFE889F989808185FF6E
:101EA000F5CFCE01C9DBF2CF8B8DFE01E80FF11D1E
:101EB000E35AFF4FF0820B8FEA89FB8980818062B1
:101EC00007C0EE89FF896083E889F9898081806491
:101ED000808381E090E0DF91CF911F910F91FF907F
:101EE000EF900895CF93DF93EC01888D8823C1F0A4
:101EF000EA89FB89808185FD05C0A889B9898C9113
:101F000086FD0EC00FB607FCF5CF808185FFF2CFAE
:101F1000A889B9898C9185FFEDCFCE018DDBE8CF03
:101F2000DF91CF9108951F920F920FB60F92112457
:101F30000BB60F922F933F934F935F936F937F93C3
:101F40008F939F93AF93BF93EF93FF9384E692E0B9
:101F500073DBFF91EF91BF91AF919F918F917F9133
:101F60006F915F914F913F912F910F900BBE0F900A
:101F70000FBE0F901F9018951F920F920FB60F92E1
:101F800011240BB60F922F938F939F93EF93FF9390
:101F9000E0917402F09175028081E0917A02F091F3
:101FA0007B0282FD12C0908180917D028F5F8F73D2
:101FB00020917E02821751F0E0917D02F0E0EC5911
:101FC000FD4F958F80937D0201C08081FF91EF913D
:101FD0009F918F912F910F900BBE0F900FBE0F907E
:101FE0001F901895CF92DF92EF92FF920F931F935D
:101FF000CF93DF936C017A018B01C0E0D0E0CE1566
:10200000DF0589F0D8016D918D01D601ED91FC912C
:102010000190F081E02DC6011995892B11F47E0104
:1020200002C02196ECCFC701DF91CF911F910F9194
:10203000FF90EF90DF90CF9008952F923F924F92B4
:102040005F926F927F928F929F92AF92BF92CF9248
:10205000DF92EF92FF920F931F93CF93DF9300D005
:1020600000D0CDB7DEB72091370330E0F901EB5255
:10207000F94FE49080913403A82FB0E0FD01EB52BA
:10208000F94F04916091360370E0FB01EB52F94F78
:1020900094904091350350E0FA01EB52F94FC4900F
:1020A000F901EB58F94FB490FD01EB58F94F7490DA
:1020B000FB01EB58F94F8490FA01EB58F94FA490CB
:1020C00060E058DB60E08091350354DB10E0000FE6
:1020D000111F0554194FF801A591B4918C91372C1B
:1020E000309483218C93D12CF601EE0FFF1F9F01BA
:1020F0002554394F6901F901A591B4919C918A2D1C
:10210000809589238C9361E08091370333DB61E014
:10211000809136032FDBF12CF701EE0FFF1FCF016B
:102120008554994F7C01FC01A591B4918C918B2928
:102130008C93E92DF0E0EE0FFF1FE554F94FA591C8
:10214000B491EC9180948E228C928091340390E033
:10215000F0DB4C018091340390E0EBDB88159905AE
:1021600024F42401481A590A03C02C0148185908BC
:10217000880E991E60E080913703FCDA60E0809160
:102180003603F8DAF701A591B4918C91B0948B21C4
:102190008C9361E080913403EDDAF801A591B4915C
:1021A000EC917E2A7C9261E080913503E3DA8091A4
:1021B000360390E0BEDB3C018091360390E0B9DB52
:1021C000861597052CF49301281B390BC90102C011
:1021D00086199709039734F42224239433E0431695
:1021E00051040CF0212C660C771C61E080913703C0
:1021F000C1DAF701A591B491EC91BE22BC92F6012F
:10220000A591B491EC91AE2AAC92F801A591B4914C
:102210008C9138223C9260E080913403ABDA80915B
:102220003603E4DA8C0180913403E0DA222009F4E9
:102230003DC0BC01990F880B990B0E9437196B01A7
:102240007C01B801110F880B990B0E9437199B0173
:10225000AC01C701B60170D720E030E040E85FE391
:1022600006D76B017C018EEF97E08819990997FDDD
:10227000019695958795BC01990F880B990BF7D717
:102280009B01AC01C701B6010E94C31920E030E0F8
:1022900046E953E40E94C31920E030E040E85AE3E5
:1022A0000E94C319B1D7E62F872F02C0E0E080E07B
:1022B0009A8289827C826B82282D3A81462D5C81AC
:1022C0006E2F782F80E090E026960FB6F894DEBF50
:1022D0000FBECDBFDF91CF911F910F91FF90EF9077
:1022E000DF90CF90BF90AF909F908F907F906F9036
:1022F0005F904F903F902F900895CF93DF93CDB78D
:10230000DEB766970FB6F894DEBF0FBECDBF7894E8
:1023100084B5826084BD84B5816084BD85B58260EA
:1023200085BD85B5816085BD80916E00816080939B
:102330006E00109281008091810082608093810004
:102340008091810081608093810080918000816014
:10235000809380008091B10084608093B10080916F
:10236000B00081608093B000809191008260809382
:102370009100809191008160809391008091900004
:102380008160809390008091A10082608093A10081
:102390008091A10081608093A1008091A000816064
:1023A0008093A0008091210182608093210180911F
:1023B00021018160809321018091200181608093BF
:1023C000200180917A00846080937A0080917A0065
:1023D000826080937A0080917A00816080937A0095
:1023E00080917A00806880937A001092C100E09119
:1023F0007402F091750282E08083E0917002F091A6
:1024000071021082E0917202F09173028FEC80836E
:1024100010927C02E0917802F091790286E080834C
:10242000E0917602F0917702808180618083E09173
:102430007602F0917702808188608083E091760255
:10244000F0917702808180688083E0917602F0913C
:10245000770280818F7D808308E616E0F801649121
:10246000611128C042E050E06EE372E084E692E041
:10247000B9DD80E092E1AAE7B0E080931B0390937E
:102480001C03A0931D03B0931E0361E08091200301
:1024900071D960E080912003F0D861E080911F0342
:1024A00069D961E080911F03E8D88091220387FFFA
:1024B00011C026C0E0916402F09165020190F081A4
:1024C000E02D84E692E019950F5F1F4F892B09F0EC
:1024D000C5CFC8CF61E0809123034CD960E08091E3
:1024E0002303CBD861E08091220344D961E080913D
:1024F0002203C3D88091240387FD02C060E03AD94B
:102500008091220387FF2FC0FFB6F89480915F026D
:10251000811123C0EAE0F7E08491EAEAF6E09491C1
:10252000E82FF0E0EE0FFF1FE25BF94FA591B491A9
:10253000EC91E92319F461E085E39FD861E085E33C
:1025400019D98CB580618CBD8CB580648CBD61E07F
:1025500084E310D961E083E30DD980915F028F5F3E
:1025600080935F02FFBE8091210387FD1DC061E063
:1025700001D961E08091210380D864E670E080E0B9
:1025800090E053D960E08091210377D864E670E051
:1025900080E090E04AD961E0809121036ED868EC38
:1025A00070E080E090E041D981E093E01BD86FEECD
:1025B00081E093E020DA63E081E093E0F1D960E824
:1025C00081E093E0EDD962E081E093E0E9D96FEC3E
:1025D00081E093E010DA60E081E093E0E1D961EC22
:1025E00081E093E0DDD960E381E093E0D9D96DEE3D
:1025F00081E093E000DA64E681E093E0D1D963E022
:1026000081E093E0CDD962E181E093E0C9D961E84E
:1026100081E093E0C5D968EE81E093E0ECD965E80C
:1026200081E093E0BDD960E081E093E0B9D968E74B
:1026300081E093E0B5D96BEC81E093E0DCD969E30C
:1026400081E093E0ADD96CE281E093E0A9D960E04C
:1026500081E093E0A5D964E381E093E0A1D962E051
:1026600081E093E09DD967EF81E093E0C4D960E217
:1026700081E093E095D96AEE81E093E0BCD960E017
:1026800081E093E08DD960E081E093E089D960EC4E
:1026900081E093E0B0D963E281E093E081D961EC1D
:1026A00081E093E0A8D960E181E093E079D965EC1D
:1026B00081E093E0A0D96EE381E093E071D968E214
:1026C00081E093E06DD967EC81E093E094D966E80E
:1026D00081E093E065D966E381E093E08CD968E41A
:1026E00081E093E05DD967E381E093E084D9809154
:1026F000220387FF09C01EBC0DB407FEFDCF1EBC20
:102700000DB407FEFDCF08C060E081E093E048D93A
:1027100060E081E093E044D96AE381E093E06BD923
:1027200065E581E093E03CD961EB81E093E063D91A
:1027300060E081E093E034D968E181E093E030D952
:1027400066EB81E093E057D968E081E093E028D917
:1027500062E881E093E024D967E281E093E020D948
:1027600062EF81E093E047D960E081E093E018D91F
:1027700066E281E093E03FD961E081E093E010D927
:1027800060EE81E093E037D96FE081E093E008D913
:1027900061E381E093E004D96BE281E093E000D94A
:1027A0006CE081E093E0FCD86EE081E093E0F8D843
:1027B00068E081E093E0F4D86EE481E093E0F0D843
:1027C00061EF81E093E0ECD867E381E093E0E8D843
:1027D00067E081E093E0E4D860E181E093E0E0D855
:1027E00063E081E093E0DCD86EE081E093E0D8D84C
:1027F00069E081E093E0D4D860E081E093E0D0D854
:1028000061EE81E093E0F7D860E081E093E0C8D822
:102810006EE081E093E0C4D864E181E093E0C0D849
:1028200063E081E093E0BCD861E181E093E0B8D857
:1028300067E081E093E0B4D861E381E093E0B0D851
:1028400061EC81E093E0ACD868E481E093E0A8D843
:1028500068E081E093E0A4D86FE081E093E0A0D845
:102860006CE081E093E09CD861E381E093E098D84C
:1028700066E381E093E094D86FE081E093E090D844
:1028800061E181E093E0B7D868E770E080E090E034
:102890000E94150C69E281E093E0ADD868E770E032
:1028A00080E090E00E94150C81E093E00E942B04F0
:1028B00080EF90E090930A038093090380E491E015
:1028C00090930C0380930B0343E150E061E472E0CA
:1028D00084E692E087DB42E050E06EE372E084E65B
:1028E00092E080DB60E070E081E093E00E941A09F2
:1028F000E12C98EFF92E08E210E028E230E040E009
:1029000050E060E070E081E093E00E94360420EE49
:10291000E22EFF24FA9428E230E040E050E068E242
:1029200070E081E093E00E94360430EEE32E37E061
:10293000F32E28E230E040E050E060E570E081E016
:1029400093E00E943604EE24EA9447E0F42E28E255
:1029500030E040E050E068E770E081E093E00E9402
:1029600036045FE1E52EF12C28E230E040E050E053
:1029700060EA70E081E093E00E9436046FE1E62EA9
:1029800068EFF62E28E230E040E050E068EC70E0BE
:1029900081E093E00E943604EE24EA94FE2C28E2C3
:1029A00030E040E050E060E070E081E093E00E94C1
:1029B000450880E098EF90936302809362023DDBCC
:1029C0006D837E838D819E810B970CF4F1C135DB85
:1029D00029833A834B835C836D837E8329813A818B
:1029E000C901330FAA0BBB0B9C01AD01285E310955
:1029F00041095109A0910903B0910A0301D32CE0C8
:102A000036E040E050E0D6D229013A014901E09099
:102A10000B03F0900C032B813C81C901330FAA0BEF
:102A2000BB0B9C01AD01265A310941095109D7015F
:102A3000E7D22CE736E040E050E0BCD22B873C8761
:102A40004D875E872B853C85388B2F872832310553
:102A50000CF01FC180916202909163029093610219
:102A60008093600238E24316510494F480E098EFBA
:102A70009093630280936202EE24EA94FE2C08E2B3
:102A800010E028E230E040E050E060E070E06DC02F
:102A900080E54816510494F480EE9FEF9093630212
:102AA00080936202EE24EA94FE2C08E210E028E211
:102AB00030E040E050E068E270E057C098E7491627
:102AC000510494F480EE97E0909363028093620245
:102AD000EE24EA94FE2C08E210E028E230E040E028
:102AE00050E060E570E041C0E0EA4E16510494F415
:102AF0008FEF97E09093630280936202EE24EA9452
:102B0000FE2C08E210E028E230E040E050E068E708
:102B100070E02BC0F8EC4F16510494F48FE190E074
:102B20009093630280936202EE24EA94FE2C08E202
:102B300010E028E230E040E050E060EA70E015C0CC
:102B400020EF42165104ACF48FE198EF90936302AA
:102B500080936202EE24EA94FE2C08E210E028E260
:102B600030E040E050E068EC70E081E093E00E94EB
:102B7000450880916002909161022091620230913B
:102B800063028217930709F413C18115984F79F4F2
:102B9000E12CE8EFFE2E08E210E028E230E040E011
:102BA00050E060E070E081E093E00E9436048091A4
:102BB000600290916102809681F470EEE72EFF240E
:102BC000FA9408E210E028E230E040E050E068E2E9
:102BD00070E081E093E00E94360480916002909161
:102BE0006102803E974081F460EEE62E67E0F62EAB
:102BF00008E210E028E230E040E050E060E570E0FC
:102C000081E093E00E94360480916002909161021D
:102C10008F3F974081F4EE24EA9457E0F52E08E2C6
:102C200010E028E230E040E050E068E770E081E04A
:102C300093E00E94360480916002909161024F9768
:102C400079F44FE1E42EF12C08E210E028E230E0C4
:102C500040E050E060EA70E081E093E00E943604DA
:102C600080916002909161028F31984F09F0A0C06D
:102C70003FE1E32E38EFF32E08E210E028E230E0E7
:102C800040E050E068EC70E081E093E00E943604A0
:102C90008FC08F8598898C970CF48AC08B859C8512
:102CA00003968E159F050CF486C082C0EF81F885CF
:102CB000F7FD0FC0F1E02F1A310829893A892E5FFC
:102CC0003F4F3A8B298B8F819885820F931F98876E
:102CD0008F839FEFA91AB90AE2E0CE0ED11C2F8193
:102CE00038852C0D3D1D38872F83C101880F991F12
:102CF000FC013196FE8BED8BE0910103F091020314
:102D0000B501640D751D0088F189E02D87012D89BD
:102D10003E898F859889821993099A878987AC01A2
:102D200081E093E01995EB85FC85EA19FB09FC8BA2
:102D3000EB8BE0910103F09102030088F189E02D13
:102D400096014B895C89B401620D731D81E093E0AB
:102D50001995E0910103F0910203B2016A197B0910
:102D60000088F189E02D2D893E8949855A8581E0C9
:102D700093E01995E0910103F09102030088F18935
:102D8000E02D96014B895C89B4016219730981E0D9
:102D900093E01995A214B3040CF488CFE0910103D9
:102DA000F09102030688F789E02D81E093E0199500
:102DB0000E94CD0304CEE0906202F0906302E091A5
:102DC0000103F09102030284F385E02D81E093E09A
:102DD0001995E0910103F09102030088F189E02D3B
:102DE000870127E030E04B855C8543505109B201F3
:102DF00081E093E01995CC24C394D12CA12CB12C63
:102E000093E0292E312C2AEF3FEF3A8B298B8EEF5E
:102E10009FEF5DCFE4E6F2E01382128288EE93E04A
:102E2000A0E0B0E084839583A683B78384E092E03A
:102E30009183808385EC90E09587848784EC90E093
:102E40009787868780EC90E0918B808B81EC90E077
:102E5000938B828B82EC90E0958B848B86EC90E058
:102E6000978B868B118E128E138E148EE4E3F3E013
:102E700088E3808387E3828386E3818389E3838396
:102E8000A1E0B3E013961C921E92129720EF30E05F
:102E900015963C932E93149780E491E017969C939B
:102EA0008E93169719963C932E9318971B969C9386
:102EB0008E931A9755961C9255971D961C921E92AA
:102EC0001C971F961C921E921E9781E054968C931D
:102ED00054972FEF3FEF53963C932E935297519672
:102EE0003C932E93509756968C93569757961C92D8
:102EF000579759961C921E92589786E192E0119628
:102F00009C938E9385E05E968C935E9786E05F96A9
:102F10008C935F978FEF90968C93909791968C936C
:102F2000919792968C93929793968C9393975A96A7
:102F30001D921D921D921C925D97EAEDF6E0E491C0
:102F4000F0E0EE0FFF1FE554F94F859194919D96A7
:102F50009C938E939C97EAE7F6E0E491D196EC93EC
:102F6000D197EBEDF6E0E491F0E0EE0FFF1FE554B2
:102F7000F94F859194919B969C938E939A97EBE74A
:102F8000F6E0E491D296EC93D29799961C921E9219
:102F90009897D0961C92D09795961C921E929497D3
:102FA0009E961C929E9797961C921E9296979F961D
:102FB0001C920895052E97FB16F400940FD057FD30
:102FC00005D024D007FC02D046F408C050954095A7
:102FD000309521953F4F4F4F5F4F089590958095C5
:102FE000709561957F4F8F4F9F4F089531D0A59F6A
:102FF000900DB49F900DA49F800D911D11240895F4
:10300000B7FFF4CFF3DF821B930B0895A1E21A2ED2
:10301000AA1BBB1BFD010DC0AA1FBB1FEE1FFF1F7C
:10302000A217B307E407F50720F0A21BB30BE40BCC
:10303000F50B661F771F881F991F1A9469F7609513
:103040007095809590959B01AC01BD01CF010895CD
:10305000A29FB001B39FC001A39F700D811D1124D9
:10306000911DB29F700D811D1124911D089550581E
:10307000BB27AA270ED04DC13ED130F043D120F05E
:1030800031F49F3F11F41EF433C10EF4E095E7FBD9
:1030900029C1E92F4FD180F3BA176207730784075C
:1030A000950718F071F49EF567C10EF4E0950B2EAC
:1030B000BA2FA02D0B01B90190010C01CA01A0018A
:1030C0001124FF27591B99F0593F50F4503E68F1E5
:1030D0001A16F040A22F232F342F4427585FF3CF26
:1030E000469537952795A795F0405395C9F77EF4F7
:1030F0001F16BA0B620B730B840BBAF09150A1F040
:10310000FF0FBB1F661F771F881FC2F70EC0BA0FC5
:10311000621F731F841F48F4879577956795B7954D
:10312000F7959E3F08F0B3CF9395880F08F0992745
:10313000EE0F9795879508950CD0EBC0E3D040F043
:10314000DAD030F021F45F3F19F0CCC0511115C135
:10315000CFC0F0D098F39923C9F35523B1F3951B51
:10316000550BBB27AA2762177307840738F09F5FA8
:103170005F4F220F331F441FAA1FA9F333D00E2E17
:103180003AF0E0E830D091505040E695001CCAF784
:1031900029D0FE2F27D0660F771F881FBB1F261749
:1031A00037074807AB07B0E809F0BB0B802DBF011C
:1031B000FF2793585F4F2AF09E3F510568F092C059
:1031C000DCC05F3FECF3983EDCF38695779567951E
:1031D000B795F7959F5FC9F7880F911D96958795CD
:1031E00097F90895E1E0660F771F881FBB1F6217EC
:1031F00073078407BA0720F0621B730B840BBA0BAA
:10320000EE1F88F7E095089504D06894B111B5C019
:10321000089598D088F09F5790F0B92F9927B7510B
:10322000A0F0D1F0660F771F881F991F1AF0BA958A
:10323000C9F712C0B13081F09FD0B1E008959CC0B1
:10324000672F782F8827B85F39F0B93FCCF3869580
:1032500077956795B395D9F73EF4909580957095DD
:1032600061957F4F8F4F9F4F0895E89409C097FB5A
:103270003EF490958095709561957F4F8F4F9F4F4D
:103280009923A9F0F92F96E9BB279395F695879591
:1032900077956795B795F111F8CFFAF4BB0F11F454
:1032A00060FF1BC06F5F7F4F8F4F9F4F16C08823FB
:1032B00011F096E911C0772321F09EE8872F762F31
:1032C00005C0662371F096E8862F70E060E02AF072
:1032D0009A95660F771F881FDAF7880F969587955E
:1032E00097F9089597F99F6780E870E060E0089586
:1032F0009FEF80EC089500240A941616170618060E
:103300000906089500240A941216130614060506E9
:103310000895092E0394000C11F4882352F0BB0F7A
:1033200040F4BF2B11F460FF04C06F5F7F4F8F4FDD
:103330009F4F089557FD9058440F551F59F05F3F18
:1033400071F04795880F97FB991F61F09F3F79F0C7
:1033500087950895121613061406551FF2CF469549
:10336000F1DF08C0161617061806991FF1CF8695CB
:103370007105610508940895E894BB2766277727AF
:10338000CB0197F908950BD0C4CFB5DF28F0BADF91
:1033900018F0952309F0A6CFABCF1124EECFCADFEA
:1033A000A0F3959FD1F3950F50E0551F629FF00158
:1033B000729FBB27F00DB11D639FAA27F00DB11DB1
:1033C000AA1F649F6627B00DA11D661F829F22273A
:1033D000B00DA11D621F739FB00DA11D621F839FC1
:1033E000A00D611D221F749F3327A00D611D231F97
:1033F000849F600D211D822F762F6A2F11249F57E5
:1034000050408AF0E1F088234AF0EE0FFF1FBB1F07
:10341000661F771F881F91505040A9F79E3F5105A6
:1034200070F060CFAACF5F3FECF3983EDCF3869557
:1034300077956795B795F795E7959F5FC1F7FE2B51
:10344000880F911D9695879597F90895EE0FFF1FA8
:10345000881F8BBF0790F691E02D1994F9DD332377
:1034600012F48A1B9B0B01C0F3DDB7FF0895821B8A
:10347000930B089581E090E0F89400C0F894FFCF9A
:10348000000000002C0FF20FF10E720FC103000FAD
:10349000140F000000007107F20FED0AEC0AE804B7
:1034A000F20A440EB60D31051E05430A2B04A70E81
:1034B000820EAE04740436041A09A40845080D0AE5
:1034C00000546F75636873637265656E2073746111
:0634D00072746564000047
:00000001FF
