:100000003DC400006CC400006AC4000068C4000065
:1000100066C4000064C4000062C4000060C4000044
:100020005EC400005CC400005AC4000058C4000054
:1000300056C4000054C4000052C4000050C4000064
:100040004EC400004CC400004AC4000048C4000074
:1000500046C4000044C4000042C400000C941B09C4
:100060003EC400009CC7000071C7000038C40000F7
:1000700036C4000034C4000032C4000030C40000A4
:100080002EC400002CC400002AC4000028C40000B4
:1000900026C4000024C4000022C4000020C40000C4
:1000A0001EC400001CC400001AC4000018C40000D4
:1000B00016C4000014C4000012C4000010C40000E4
:1000C0000EC400000CC400000AC4000008C40000F4
:1000D00006C4000004C4000002C4000000C4000004
:1000E000FEC300003408370826082A082E086E08C8
:1000F0003B083F08450849084D08530857085B0866
:100100006E086108650869080000210024002700C6
:100110002A002D0030003300010100000401070116
:100120000A01446F6E652100526F756E646564202C
:100130007265637473202866696C6C65642920207D
:100140002000526F756E646564207265637473205D
:10015000286F75746C696E6529202000547269617E
:100160006E676C6573202866696C6C656429202055
:10017000202020202000547269616E676C65732016
:10018000286F75746C696E6529202020202020005E
:10019000436972636C657320286F75746C696E6552
:1001A00029202020202020202000436972636C65D4
:1001B00073202866696C6C6564292020202020202B
:1001C0002020200052656374616E676C657320287F
:1001D00066696C6C6564292020202020200052650F
:1001E0006374616E676C657320286F75746C696EDB
:1001F0006529202020202000486F72697A2F5665DB
:100200007274204C696E65732020202020202020ED
:1002100020004C696E6573202020202020202020A3
:1002200020202020202020202020200054657874C9
:1002300020202020202020202020202020202020BE
:1002400020202020200053637265656E2066696C53
:100250006C20202020202020202020202020200072
:1002600042656E63686D61726B2020202020202023
:1002700020202020202020202054696D6520286D1A
:100280006963726F7365636F6E6473290000000A9F
:100290000B02090C0D0E080703040100000000000A
:1002A000000000000000000000000000000000004E
:1002B000000000000000000000121110000000000B
:1002C000000000000000000000000000000000002E
:1002D00000000000000000003E5B4F5B3E3E6B4FA5
:1002E0006B3E1C3E7C3E1C183C7E3C181C577D57C8
:1002F0001C1C5E7F5E1C00183C1800FFE7C3E7FF74
:100300000018241800FFE7DBE7FF30483A060E2606
:1003100029792926407F050507407F05253F5A3C5E
:10032000E73C5A7F3E1C1C08081C1C3E7F14227FA1
:1003300022145F5F005F5F06097F017F0066899579
:100340006A606060606094A2FFA29408047E040862
:1003500010207E201008082A1C08081C2A08081EE5
:10036000101010100C1E0C1E0C30383E3830060ECB
:100370003E0E06000000000000005F0000000700C5
:100380000700147F147F14242A7F2A122313086481
:100390006236495620500008070300001C22410025
:1003A0000041221C002A1C7F1C2A08083E08080065
:1003B0008070300008080808080000606000201005
:1003C0000804023E5149453E00427F4000724949BF
:1003D00049462141494D331814127F1027454545A0
:1003E000393C4A49493141211109073649494936C1
:1003F000464949291E000014000000403400000056
:100400000814224114141414140041221408020187
:100410005909063E415D594E7C1211127C7F4949B3
:1004200049363E414141227F4141413E7F49494950
:10043000417F090909013E414151737F0808087F46
:1004400000417F41002040413F017F081422417F4D
:10045000404040407F021C027F7F0408107F3E41E5
:1004600041413E7F090909063E4151215E7F09193C
:100470002946264949493203017F01033F40404054
:100480003F1F2040201F3F4038403F631408146343
:1004900003047804036159494D43007F41414102FF
:1004A00004081020004141417F0402010204404041
:1004B000404040000307080020545478407F2844FF
:1004C00044383844444428384444287F38545454E9
:1004D0001800087E090218A4A49C787F08040478F8
:1004E00000447D40002040403D007F102844000033
:1004F000417F40007C047804787C08040478384408
:10050000444438FC1824241818242418FC7C0804BB
:100510000408485454542404043F44243C404020DC
:100520007C1C2040201C3C4030403C442810284487
:100530004C9090907C4464544C4400083641000038
:1005400000770000004136080002010204023C2648
:1005500023263C1EA1A161123A4040207A3854540F
:100560005559215555794122545478422155547892
:100570004020545579400C1E527212395555555928
:10058000395454545939555454580000457C41004D
:1005900002457D420001457C407D1211127DF0280C
:1005A0002528F07C545545002054547C547C0A097D
:1005B0007F4932494949323A4444443A324A4848E8
:1005C000303A4141217A3A42402078009DA0A07DF6
:1005D0003D4242423D3D4040403D3C24FF242448B2
:1005E0007E4943662B2FFC2F2BFF0929F620C0885C
:1005F0007E090320545479410000447D413048482D
:100600004A32384040227A007A0A0A727D0D193146
:100610007D2629292F28262929292630484D4020A2
:10062000380808080808080808382F10C8ACBA2F7E
:10063000102834FA00007B000008142A1422221427
:100640002A14085500550055AA55AA55AAFF55FF6A
:1006500055FF000000FF00101010FF00141414FFDD
:10066000001010FF00FF1010F010F0141414FC0024
:100670001414F700FF0000FF00FF1414F404FC142E
:100680001417101F10101F101F1414141F00101027
:1006900010F0000000001F101010101F101010109C
:1006A000F010000000FF101010101010101010FFBC
:1006B00010000000FF140000FF00FF00001F1017D3
:1006C0000000FC04F414141710171414F404F400BC
:1006D00000FF00F714141414141414F700F7141482
:1006E00014171410101F101F141414F4141010F009
:1006F00010F000001F101F0000001F14000000FC7D
:10070000140000F010F01010FF10FF141414FF1468
:100710001010101F00000000F010FFFFFFFFFFF09F
:10072000F0F0F0F0FFFFFF0000000000FFFF0F0FF0
:100730000F0F0F3844443844FC4A4A4A347E0202C0
:100740000606027E027E0263554941633844443CFA
:1007500004407E201E2006027E020299A5E7A5998C
:100760001C2A492A1C4C7201724C304A4D4D3030C3
:1007700048784830BC625A463D3E494949007E01AE
:1007800001017E2A2A2A2A2A44445F444440514ACD
:10079000444040444A51400000FF0103E080FF0014
:1007A0000008086B6B083612362436060F090F0650
:1007B000000018180000001010003040FF01010078
:1007C0001F01011E00191D1712003C3C3C3C00009B
:1007D00000000001021020200808102040102040D6
:1007E00080020102010804020101020408102040F5
:1007F0008080402010080402018004020180402013
:10080000100804020108040201010204081020403B
:1008100080010204081020408000002200250028EA
:10082000002B002E003100340002010000050108F9
:10083000010B010505050507050808080802020265
:10084000020A0A080804040404010101010101016B
:10085000010303030303030303040707070C0C0C42
:100860000C0C0C0C0C02020202060606060606061A
:10087000060B0B0B0B0B0B0B0B00EE2011241FBEFA
:10088000CFEFD1E2DEBFCDBF00E00CBF13E0A0E0B0
:10089000B2E0E6E3F4E400E00BBF02C007900D9283
:1008A000A237B107D9F724E0A2E7B3E001C01D9257
:1008B000AC34B207E1F714E0CEE3D4E000E006C0C8
:1008C00021970109802FFE010E94F221CD33D1072B
:1008D00080E00807A9F70E9447140C94192290CBD6
:1008E000FC01538D448D252F30E0842F90E0821B36
:1008F000930B541710F0CF96089501970895FC01BB
:10090000918D828D981761F0828DDF01A80FB11D46
:100910005D968C91928D9F5F9F73928F90E008956A
:100920008FEF9FEF0895FC01918D828D981731F024
:10093000828DE80FF11D858D90E008958FEF9FEF78
:100940000895FC01918D228D892F90E0805C9F4F4E
:10095000821B91098F73992708958CE793E0F1DF4B
:1009600021E0892B09F420E0822F0895FC01848D79
:10097000DF01A80FB11DA35ABF4F2C91848D90E0C9
:1009800001968F739927848FA689B7892C93A089A4
:10099000B1898C9180648C93938D848D981306C05B
:1009A0000288F389E02D80818F7D80830895EF9206
:1009B000FF920F931F93CF93DF93EC0181E0888F19
:1009C0009B8D8C8D981305C0E889F989808185FD00
:1009D00023C0F62E0B8D10E00F5F1F4F0F731127F2
:1009E000E02E8C8DE8120BC00FB607FCFACFE88919
:1009F000F989808185FFF5CFCE01B8DFF2CF8B8DED
:100A0000FE01E80FF11DE35AFF4FF0820B8FEA89D8
:100A1000FB898081806207C0EE89FF896083E88955
:100A2000F98980818064808381E090E0DF91CF91BB
:100A30001F910F91FF90EF900895CF93DF93EC01FA
:100A4000888D8823C1F0EA89FB89808185FD05C0F6
:100A5000A889B9898C9186FD0EC00FB607FCF5CF29
:100A6000808185FFF2CFA889B9898C9185FFEDCF70
:100A7000CE017CDFE8CFDF91CF91089580E090E058
:100A8000892B19F06ADF811125C080E090E0892B65
:100A900041F080E090E0892B21F00E94000081115C
:100AA0001CC080E090E0892B41F080E090E0892B31
:100AB00021F00E940000811113C080E090E0892B9A
:100AC000A1F080E090E0892B81F00E94000081116C
:100AD0000AC008950E940000D8CF0E940000E1CF14
:100AE0000E940000EACF0C9400000895DC019C965F
:100AF000ED91FC919D979081D1968C91892B80836B
:100B00000895CF92DF92EF92FF920F931F93CF93AE
:100B1000DF9300D000D0CDB7DEB76C01DC01ED91E2
:100B2000FC910284F385E02D2D833E834B835C830F
:100B300069837A831995D601ED91FC910684F78536
:100B4000E02D2D813E814B815C8169817A81C601D6
:100B50001995D601ED91FC910688F789E02DC60123
:100B600026960FB6F894DEBF0FBECDBFDF91CF91B2
:100B70001F910F91FF90EF90DF90CF901994EF921B
:100B8000FF920F931F93CF93DF9300D000D0CDB788
:100B9000DEB77C01DC01ED91FC910284F385E02D50
:100BA0002D833E834B835C8369837A831995D701B8
:100BB000ED91FC910288F389E02D2D813E814B81DE
:100BC0005C8169817A81C7011995D701ED91FC910A
:100BD0000688F789E02DC70126960FB6F894DEBF88
:100BE0000FBECDBFDF91CF911F910F91FF90EF907E
:100BF0001994EF92FF920F931F93CF93DF9300D03E
:100C000000D0CDB7DEB77C01DC01ED91FC91028410
:100C1000F385E02D2D833E834B835C8369837A8348
:100C20001995D701ED91FC910088F189E02D2D8176
:100C30003E814B815C8169817A81C7011995D70119
:100C4000ED91FC910688F789E02DC70126960FB635
:100C5000F894DEBF0FBECDBFDF91CF911F910F91F2
:100C6000FF90EF9019940F931F93CF93DF9300D0D1
:100C700000D0CDB7DEB78C01DC01ED91FC91028490
:100C8000F385E02D2D833E834B835C8369837A83D8
:100C90001995D801ED91FC910484F585E02D2D8105
:100CA0003E814B815C8169817A81C8011995D801A7
:100CB000ED91FC910688F789E02DC80126960FB6C4
:100CC000F894DEBF0FBECDBFDF91CF911F910F9182
:100CD0001994EF92FF920F931F93DC01ED91FC9119
:100CE0000684F785E02D780101E010E019951F9149
:100CF0000F91FF90EF900895EF92FF920F931F9343
:100D0000DC01ED91FC910684F785E02D78018901E5
:100D100021E030E019951F910F91FF90EF90089519
:100D20000895FC016370658B8481958126813781EC
:100D3000613039F0633029F09187808733872287CB
:100D40000895318720879387828708950E9415220E
:100D5000FC0181A187FF1EC0428D538D648D758D6E
:100D600020E080E092E1AAE7B0E0481759076A075F
:100D70007B0740F4B695A795979587952F5F26300A
:100D8000A1F727E091E09227892F806A86959170DC
:100D90008CBD9DBDA4A5B5A59C9181A980958923F5
:100DA0008C930895AF92BF92CF92EF92FF920F93E0
:100DB0001F93CF93DF93EC01262F888D998D009799
:100DC00009F03FC06A3059F41D861C862C898E8537
:100DD0009F8538E0239F800D911D112440C06D3008
:100DE00009F4A8C08E898823C1F03C898C859D8533
:100DF00046E0349F800D911D112448855985481780
:100E000059075CF41D861C868E859F8548E0349FBB
:100E1000800D911D11249F878E87EA88FB880889A1
:100E200019894E855F856C857D85CC88CE0119D763
:100E30002C898C859D8536E0239F800D911D112482
:100E400042C06A3079F41D861C862C89FC013696D6
:100E5000E4918E859F852E9F800D911D11249F8783
:100E60008E8768C06D3009F465C0FC0134963491FA
:100E7000631708F45FC03196E491E61708F45AC08E
:100E8000FC013296A590B490462F50E0431B5109C7
:100E900037E0349FB001359F700D1124A60EB71EA8
:100EA000F501329634913196E491332311F0E1113A
:100EB0000DC0F5013496E4912C898C859D85E29FC7
:100EC000800D911D11249D878C8734C0F5013596C6
:100ED00044915E89552311F16C89E32FF0E0E40F12
:100EE000F11D47FDFA956E9FD0016F9FB00D112443
:100EF0004C855D854A0F5B1FE885F985E417F5078A
:100F00006CF41D861C86FC013696E4918E859F85C7
:100F10006E9F800D911D11249F878E87EA88FB8824
:100F2000088919894E855F856C857D85CC88CE01C1
:100F300098D6BFCF81E090E0DF91CF911F910F91C4
:100F4000FF90EF90CF90BF90AF9008951F920F92B7
:100F50000FB60F9211240BB60F922F933F934F931E
:100F60005F936F937F938F939F93AF93BF93EF9311
:100F7000FF938CE793E0FADCFF91EF91BF91AF9183
:100F80009F918F917F916F915F914F913F912F91A1
:100F90000F900BBE0F900FBE0F901F9018951F92D1
:100FA0000F920FB60F9211240BB60F922F938F93BF
:100FB0009F93EF93FF93E0918C03F0918D038081D9
:100FC000E0919203F091930382FD12C09081809191
:100FD00095038F5F8F7320919603821751F0E091F4
:100FE0009503F0E0E458FC4F958F8093950301C082
:100FF0008081FF91EF919F918F912F910F900BBE68
:101000000F900FBE0F901F901895362F90E0FC01A7
:10101000E357FD4F4491FC01ED52F84F2491FC0140
:10102000ED5CF74F9491992309F46BC0442309F4C4
:1010300055C050E0FA013197E231F10508F04EC099
:101040008827EE58FF4F8F4F0C94F221809180003B
:101050008F7707C0809180008F7D03C080918000D2
:10106000877F809380003AC084B58F7702C084B5B3
:101070008F7D84BD33C08091B0008F7703C0809195
:10108000B0008F7D8093B00029C0809190008F7751
:1010900007C0809190008F7D03C080919000877F72
:1010A000809390001BC08091A0008F7707C0809133
:1010B000A0008F7D03C08091A000877F8093A00057
:1010C0000DC0809120018F7707C0809120018F7D16
:1010D00003C080912001877F80932001E92FF0E0F9
:1010E000EE0FFF1FE75EF74FA591B4918FB7F8940D
:1010F000EC91311103C020952E2301C02E2B2C938F
:101100008FBF0895CF93DF9390E0FC01ED52F84F2D
:101110002491FC01ED5CF74F8491882361F190E00C
:10112000880F991FFC01E85FFE4FC591D491FC0127
:10113000E75EF74FA591B491611109C09FB7F8948C
:101140008881209582238883EC912E230BC0623006
:1011500061F49FB7F8943881822F80958323888328
:10116000EC912E2B2C939FBF06C08FB7F894E8818B
:101170002E2B28838FBFDF91CF9108953FB7F8942E
:101180008091780390917903A0917A03B0917B03C9
:1011900026B5A89B05C02F3F19F00196A11DB11DD2
:1011A0003FBFBA2FA92F982F8827820F911DA11D0D
:1011B000B11DBC01CD0142E0660F771F881F991F4A
:1011C0004A95D1F708958F929F92AF92BF92CF9296
:1011D000DF92EF92FF926B017C01D0DF4B015C014B
:1011E000C114D104E104F104E9F0C8DFDC01CB0152
:1011F00088199909AA09BB09883E9340A105B10540
:1012000078F321E0C21AD108E108F10888EE880ECF
:1012100083E0981EA11CB11CC114D104E104F104A7
:1012200021F7DECFFF90EF90DF90CF90BF90AF908F
:101230009F908F9008951F920F920FB60F921124D6
:101240002F933F938F939F93AF93BF93809174039A
:1012500090917503A0917603B09177033091730359
:1012600023E0230F2D3720F40196A11DB11D05C0E9
:1012700026E8230F0296A11DB11D209373038093CE
:10128000740390937503A0937603B09377038091D2
:10129000780390917903A0917A03B0917B03019632
:1012A000A11DB11D8093780390937903A0937A03D5
:1012B000B0937B03BF91AF919F918F913F912F91FD
:1012C0000F900FBE0F901F901895FC0181A187FF12
:1012D00005C06EBD0DB407FEFDCF089528E030E0D7
:1012E00090E8A4A1B5A186A5492F462319F04C91F9
:1012F000842B03C04C91809584238C93A0A5B1A529
:101300004C9180A9809584238C93A0A5B1A54C9184
:1013100080A9842B8C9396952150310911F708955B
:10132000CF93DF93EC01EAA5FBA590818AA9809574
:1013300089238083CE01C9DFEAA5FBA590818AA914
:10134000892B8083DF91CF9108958F929F92AF92E6
:10135000BF92CF92DF92EF92FF920F931F93CF93A2
:10136000DF93EC01490181E0881A9108860E971EEF
:10137000C401A0E0B0E04B01A12CB12C5401992490
:101380008824882A992AAA2ABB2A680181E0C81AD7
:10139000D108C40ED51EC601A0E0B0E06A01E12C60
:1013A000F12C7601DD24CC24C82AD92AEA2AFB2A8A
:1013B0006AE2CE01B5DF29A16B2D7727882799270F
:1013C00027FF18C06EBD0DB407FEFDCFC501AA27CB
:1013D000BB278EBD0DB407FEFDCFBB27AB2D9A2DCD
:1013E000892D8EBD0DB407FEFDCF8EBC0DB407FE5A
:1013F000FDCF10C0CE0169DFB50188279927CE0146
:1014000064DF99278B2D7A2D692DCE015EDF682D43
:10141000CE015BDF6BE2CE0183DF29A16F2D772741
:101420008827992727FF18C06EBD0DB407FEFDCF92
:10143000C701AA27BB278EBD0DB407FEFDCFBB2772
:10144000AF2D9E2D8D2D8EBD0DB407FEFDCFCEBCD4
:101450000DB407FEFDCF10C0CE0137DFB7018827DE
:101460009927CE0132DF99278F2D7E2D6D2DCE014C
:101470002CDF6C2DCE0129DF6CE2CE01DF91CF9104
:101480001F910F91FF90EF90DF90CF90BF90AF90A2
:101490009F908F9045CF4F925F926F927F928F92E5
:1014A0009F92AF92BF92CF92DF92EF92FF920F93F3
:1014B0001F93CF93DF935C01FB01E9014701DC013E
:1014C00018962D913C911997621773070CF060C024
:1014D0001A968D919C911B97481759070CF058C08C
:1014E0006B01CC0EDD1ED60111977A01E00EF11EC4
:1014F000B70161507109B7FD4BC077FD49C0F7FFD7
:1015000003C0E601E0E0F0E057FF03C0870140E0E0
:1015100050E0A217B3071CF0E901CE1BDF0B6817E0
:1015200079071CF08C01041B150B9E01D8010E9449
:10153000FA216B017C01BF01C50107DF26013701DC
:10154000F50181A187FF13C04114510461047104A6
:10155000F9F09EBC0DB407FEFDCF8EBC0DB407FEA6
:10156000FDCFF1E04F1A510861087108EDCF411429
:1015700051046104710461F0692DC501A6DE682D76
:10158000C501A3DE81E0481A510861087108EFCF58
:10159000DF91CF911F910F91FF90EF90DF90CF904F
:1015A000BF90AF909F908F907F906F905F904F9083
:1015B0000895EF92FF920F931F93CF93DF93EC0167
:1015C000CB0177FD2DC0688579858617970744F58F
:1015D00057FD26C06A857B85461757070CF5E32E15
:1015E000F22EBC0101E010E021E030E0CE01ADDEE2
:1015F00089A187FF09C0EEBC0DB407FEFDCFFEBC7C
:101600000DB407FEFDCF0CC06E2DCE015EDE6F2D3A
:10161000CE01DF91CF911F910F91FF90EF9055CEAA
:10162000DF91CF911F910F91FF90EF9008950F934D
:101630001F93CF93DF931F92CDB7DEB78C01DC01F0
:10164000ED91FC910284F385E02D69831995698100
:10165000611102C060E201C061E2C80161DED8012F
:10166000ED91FC910688F789E02DC8010F90DF917C
:10167000CF911F910F9119941F93CF93DF93EC019A
:1016800063706D8B6230C1F0633001F1613051F0F5
:1016900080EF90E09987888780E491E09B878A8734
:1016A00018E41DC080E491E09987888780EF90E07E
:1016B0009B878A8718E213C080EF90E0998788871C
:1016C00080E491E09B878A8718E809C080E491E074
:1016D0009987888780EF90E09B878A8718EEE8815A
:1016E000F9810284F385E02DCE01199566E3CE01E0
:1016F00017DE612FCE01E9DDE881F9810688F789DF
:10170000E02DCE01DF91CF911F9119946F927F92BE
:101710008F929F92AF92BF92CF92DF92EF92FF9201
:101720000F931F93CF93DF93EC014B015A01690193
:101730003801E881F9810284F385E02D1995E8816B
:10174000F9810288F389E02D87019601A501B40192
:10175000CE011995E881F981A501460D571D41502B
:1017600051090288F389E02D9601B401CE01199543
:10177000E881F9810088F189E02D9301A501B40188
:10178000CE011995E881F981C80CD91CB6016150C8
:1017900071090088F189E02D9301A501CE01199509
:1017A000E881F9810688F789E02DCE01DF91CF919C
:1017B0001F910F91FF90EF90DF90CF90BF90AF906F
:1017C0009F908F907F906F901994CF92DF92EF92BD
:1017D000FF920F931F93CF93DF9300D000D0CDB72C
:1017E000DEB76C01DC01ED91FC916217730789F49F
:1017F000041715072CF4942F852FA801092F182FF3
:10180000041B150B98012F5F3F4F048CF58DE02DC5
:1018100012C04017510709F5261737072CF4962FE9
:10182000872FB901292F382F261B370B2F5F3F4FEA
:10183000068CF78DE02D8701C601199526960FB607
:10184000F894DEBF0FBECDBFDF91CF911F910F91F6
:10185000FF90EF90DF90CF9008950284F385E02D04
:101860002D833E834B835C8369837A831995D601EC
:10187000ED91FC910488F589E02D2D813E814B810D
:101880005C8169817A81C6011995D601ED91FC913F
:101890000688F789E02DC60126960FB6F894DEBFBC
:1018A0000FBECDBFDF91CF911F910F91FF90EF90B1
:1018B000DF90CF901994EF92FF920F931F93DC016A
:1018C000ED91FC9111971A960D911C911B9718960A
:1018D0002D913C91199700A0F1A1E02D7B0140E0F2
:1018E00050E060E070E019951F910F91FF90EF902C
:1018F00008954F925F926F927F928F929F92AF92D4
:10190000BF92CF92DF92EF92FF920F931F93CF93EC
:10191000DF931F921F92CDB7DEB76C015A013901D8
:101920004801DC01ED91FC910284F385E02D69838F
:101930007A8319956981462E7A81572E640C751C1D
:10194000D601ED91FC91461457046CF40088F1899E
:10195000E02D87019401A501B201C6011995BFEFE1
:101960004B1A5B0AEDCF0688F789E02DC6010F9070
:101970000F90DF91CF911F910F91FF90EF90DF902B
:10198000CF90BF90AF909F908F907F906F905F901F
:101990004F901994AF92BF92CF92DF92EF92FF9245
:1019A0000F931F93CF93DF9300D01F92CDB7DEB775
:1019B0005C016901DC01ED91FC910284F385E02D6D
:1019C0004B835C8369837A831995D501ED91FC91F2
:1019D00069817A819B012C0D3D1D215031090488BC
:1019E000F589E02D78014B815C818A01C50119954B
:1019F000D501ED91FC910688F789E02DC5010F9086
:101A00000F900F900F90DF91CF911F910F91FF904A
:101A1000EF90DF90CF90BF90AF901994AF92BF92AC
:101A2000CF92DF92EF92FF920F931F93CF93DF93AA
:101A300000D01F92CDB7DEB75C016901DC01ED91EA
:101A4000FC910284F385E02D4B835C8369837A8368
:101A50001995D501ED91FC914B815C81C40ED51E89
:101A6000B1E0CB1AD1080488F589E02D7801860110
:101A700069817A819B01C5011995D501ED91FC9190
:101A80000688F789E02DC5010F900F900F900F90F9
:101A9000DF91CF911F910F91FF90EF90DF90CF904A
:101AA000BF90AF9019940895EF92FF920F931F93F8
:101AB000DC01ED91FC9100A0F1A1E02D19951F91A1
:101AC0000F91FF90EF9008950F931F93DC01ED911C
:101AD000FC91068CF78DE02D19951F910F910895BB
:101AE0000F931F93DC01ED91FC91048CF58DE02D9B
:101AF00019951F910F910895DC01ED91FC910084DF
:101B0000F185E02D199408952F923F924F925F92A4
:101B10006F927F928F929F92AF92BF92CF92DF92FD
:101B2000EF92FF920F931F93CF93DF9300D0CDB727
:101B3000DEB74C017B836A836A0159011701980162
:101B4000241B350B37FF03C0319521953109C501A1
:101B50004A815B81841B950B97FF03C0919581950A
:101B6000910951E059838217930714F019820BC031
:101B70009A2D8B2D5801092F182F9A818B81DB828A
:101B8000CA82C92ED82E8A819B81A816B9065CF418
:101B90009C2D8D2D6801092F182F9A818B81BB8276
:101BA000AA82A92EB82E2501AA81BB814A1A5B0AF6
:101BB00038016C187D0877FE03C071946194710838
:101BC000720157FE03C0BFEFEB1AFB0AF594E794CE
:101BD000C016D1061CF00FEF1FEF1FC001E010E090
:101BE0001CC0D401ED91FC91B9810484F585E02DF0
:101BF0009101BB23C1F04A815B81B601C4011995F3
:101C0000E618F708F7FE04C0C00ED11EE40CF51C60
:101C1000EA81FB813196FB83EA834A815B81A416CA
:101C2000B506FCF604C0A6016A817B81E7CF0F9060
:101C30000F900F90DF91CF911F910F91FF90EF9038
:101C4000DF90CF90BF90AF909F908F907F906F90DC
:101C50005F904F903F902F900895089580E090E01E
:101C600008952F923F924F925F926F927F928F9240
:101C70009F92AF92BF92CF92DF92EF92FF920F931B
:101C80001F93CF93DF93CDB7DEB76C970FB6F89461
:101C9000DEBF0FBECDBF9C8F8B8F5B011A011F83F0
:101CA0000E833701C982DC0158964D915C9159979A
:101CB0004115510509F0E5C018968D919C91199731
:101CC000681779070CF0CAC11A968D919C911B97E1
:101CD000281639060CF0C2C18C2C912CFB0136E081
:101CE000C39EE00DF11D1124FB87EA871E161F0617
:101CF0000CF0B4C1C40133E0880F991F3A95E1F7A5
:101D00009D878C87820D931D181619060CF0A6C1AD
:101D100057968C91811103C0203B08F02F5FAB8D4B
:101D2000BC8DED91FC9111970284F385E02DCD01DE
:101D30002A8F19952A8DB5E02B9F90011124F5016A
:101D40003596FF87EE87BB82AA822501A9014A1931
:101D50005B09598B488BC10108969B8B8A8BE8895C
:101D6000F989E40DF51DED52FD4F949198876101BD
:101D70003D822C82A885A0FF13C0AB8DBC8DED9158
:101D8000FC91B981B13031F40484F585E02D2E81C8
:101D90003F8116C00684F785E02DEE80FF801AC0D3
:101DA000EE81FF816E167F06F1F0AB8DBC8DED915B
:101DB000FC91B981B13051F40484F585E02D930193
:101DC000A601B2018B8D9C8D19950DC00684F785F7
:101DD000E02D7301840194014C815D816A817B81D6
:101DE0008B8D9C8D1995E885E695E887FFEFCF1AD6
:101DF000DF0A2C813D81280D391D3D832C834A89C2
:101E00005B89C416D50609F0B5CF5FEF451A550AB0
:101E10008A819B81880D991D9B838A83AE85BF85AE
:101E20004A165B0609F09BCFEE81FF816E167F0696
:101E300009F4F2C0EB8DFC8DA081B181F981F13004
:101E400079F4B5016B5F7F4F5096ED91FC915197FE
:101E5000830128E030E0A1018B8D9C8D1995DCC0B9
:101E60006A857B85681979091E96ED91FC911F970B
:101E700073010C851D859401A1018B8D9C8D199595
:101E8000CBC0FA0134969491329765917491291BD5
:101E9000CB01B7E02B9F800D911D1124FA012591F4
:101EA00034913B8B2A8BFC01459154915B834A838F
:101EB000FC013296C490319654915E87329614910B
:101EC0003196D4908981823058F0612E012E000C19
:101ED0007708AD2D0D2C000CBB0BB987A88704C06B
:101EE00019861886612C712CAB8DBC8DED91FC91FF
:101EF00011970284F385E02DCD011995B9818B2EC0
:101F0000912C689CC001699C900D789C900D1124C7
:101F1000FC01EA0DFB1DFD87EC871C82712C612CF6
:101F2000E12F110FFF0B95012E0F3F1F3B872A87D3
:101F3000AC0CB11CA5014E0F5F1F5F8B4E8BC10116
:101F40008D0D911DD7FC9A95998F888F4E856416BB
:101F500008F062C0862D90E048855985480F591FCA
:101F6000489D9001499D300D589D300D1124D90197
:101F7000A20DB31DB98BA88BAA84BB844C845D844D
:101F8000DC80BA85DB1AE88DF98DE80FF91FFD8B2F
:101F9000EC8B8D2D8A0D2E893F89A216B306B9F1DF
:101FA000877061F48A819B810196EA89FB89AA8105
:101FB000BB81EA0FFB1F74909B838A8377FE20C04E
:101FC000AB8DBC8DED91FC91B981B13061F404848D
:101FD000F585E02D2E813F814C895D89B5018B8D82
:101FE0009C8D19950DC00684F785E02DEE80FF804D
:101FF0008401940148895989B2018B8D9C8D199572
:10200000770CEFEFAE1ABE0A480C591CC2CF3C81C8
:102010003C0D3C8363949ACFAB8DBC8DED91FC91CC
:1020200011970688F789E02DCD016C960FB6F894CC
:10203000DEBF0FBECDBFDF91CF911F910F91FF90FB
:10204000EF90DF90CF90BF90AF909F908F907F9058
:102050006F905F904F903F902F9019946C960FB6B1
:10206000F894DEBF0FBECDBFDF91CF911F910F91CE
:10207000FF90EF90DF90CF90BF90AF909F908F90A8
:102080007F906F905F904F903F902F900895CF92E8
:10209000DF92EF92FF920F931F93CF93DF9360E055
:1020A00070E089E194E007DC69D86B017C01C9E14B
:1020B000D4E01D861C861F861E868FEF9FEF9B8BAC
:1020C0008A8B998B888B11E01C8B6CEA72E0CE01B5
:1020D000CCD380EE9FEF9B8B8A8B998B888B02E011
:1020E0000C8B2AE042ED54E060E070E0CE0143D377
:1020F000E881F9810190F081E02D6EE2CE01199521
:102100002AE045E050E060E070E0CE0134D32AE000
:1021100046E050E060E070E0CE012DD369EA72E065
:10212000CE0114D380E098EF9B8B8A8B998B888BA0
:1021300083E08C8B20E130E04FEE5EEB6DEA7EEDCC
:10214000CE0176D369EA72E0CE0100D380EE97E04B
:102150009B8B8A8B998B888B85E08C8B69EB72E0EB
:10216000CE0183D30C8B6FEB72E0CE017ED31C8B40
:102170006FEC72E0CE0179D36AEE72E0CE0175D3D6
:1021800065E073E0CE0171D361E273E0CE016DD3FF
:1021900065E373E0CE0169D368E473E0CE0165D3F3
:1021A00062E673E0CE0161D30E94BE086C197D091E
:1021B0008E099F09DF91CF911F910F91FF90EF90B2
:1021C000DF90CF900895CF92DF92EF92FF920F931E
:1021D0001F93CF93DF936C017A018B01C0E0D0E0B5
:1021E000CE15DF0589F0D8016D918D01D601ED91F5
:1021F000FC910190F081E02DC6011995892B11F415
:102200007E0102C02196ECCFC701DF91CF911F91D3
:102210000F91FF90EF90DF90CF9008952F923F9213
:102220004F925F926F927F928F929F92AF92BF92E6
:10223000CF92DF92EF92FF920F931F93CF93DF9392
:1022400000D000D0CDB7DEB75C014B015E834D837B
:10225000280181E090E03C01641A750ACA01919559
:1022600081959109AC01440F551F5A834983180188
:10227000CC24C394D12C522F51705B8322702C83B9
:10228000C60101972D813E81821793070CF080C013
:1022900077FC0CC08D819E8101979E838D83E9819F
:1022A000FA813296FA83E9836E0E7F1EC601880F8B
:1022B000991F0196680E791EFB81FF2379F1E09149
:1022C0001904F0911A042D813E81220F331F2F5FD4
:1022D0003F4F240D351D0088F189E02D8701A401B1
:1022E0008D819E81481B590BB6016A0D7B1D89E1CA
:1022F00094E01995E0911904F0911A040088F1898D
:10230000E02D91012D5F3F4FA4014C195D096D81B6
:102310007E816A0D7B1D89E194E019959C8199234A
:1023200081F1E0911904F0911A042D813E81220F70
:10233000331F2F5F3F4F240D351D0088F189E02D9D
:102340008701A4018D819E81481B590BB5016C1931
:102350007D0989E194E01995E0911904F0911A043E
:102360000088F189E02D91012D5F3F4FA4014C19A8
:102370005D09B5018D819E81681B790B89E194E02F
:1023800019959FEFC91AD90AE2E02E0E311C78CFB9
:1023900026960FB6F894DEBF0FBECDBFDF91CF916A
:1023A0001F910F91FF90EF90DF90CF90BF90AF9073
:1023B0009F908F907F906F905F904F903F902F9065
:1023C00008952F923F924F925F926F927F928F92D9
:1023D0009F92AF92BF92CF92DF92EF92FF920F93B4
:1023E0001F93CF93DF93EC015B014A013901180180
:1023F0002701760189019A01AB01BC0189E194E0D2
:10240000E4D982019101A301B40189E194E0DDD90D
:1024100085019E01A201B10189E194E0D6D9DF9145
:10242000CF911F910F91FF90EF90DF90CF90BF90D1
:10243000AF909F908F907F906F905F904F903F9064
:102440002F9008952F923F924F925F926F927F92BA
:102450008F929F92AF92BF92CF92DF92EF92FF92B4
:102460000F931F93CF93DF936C015B01EA0181E02F
:1024700090E04C01841A950A66247724641A750A40
:10248000660C771CE12CF12C822F8470582E822F41
:102490008270482E822F8870382E2170222EEC16E2
:1024A000FD060CF0A3C097FC06C0219782E0680EE1
:1024B000711C860C971C8FEFE81AF80AC701880F69
:1024C000991F0196880E991E552011F1E09119046B
:1024D000F0911A040484F585E02D9801A5014C0FB4
:1024E0005D1FB7016C0D7D1D89E194E01995E091A8
:1024F0001904F0911A040484F585E02D9801A701D0
:102500004A0D5B1DB6016C0F7D1F89E194E01995A2
:10251000442011F1E0911904F0911A040484F58526
:10252000E02D9801A5014C1B5D0BB7016C0D7D1DC5
:1025300089E194E01995E0911904F0911A0404845A
:10254000F585E02D9801A5014E195F09B6016C0FC4
:102550007D1F89E194E01995332011F1E091190470
:10256000F0911A040484F585E02D9801A7014A0D25
:102570005B1DB6016C1B7D0B89E194E01995E09120
:102580001904F0911A040484F585E02D9801A50141
:102590004C0F5D1FB6016E197F0989E194E0199512
:1025A000222009F47CCFE0911904F0911A040484EC
:1025B000F585E02D9801A5014E195F09B6016C1B48
:1025C0007D0B89E194E01995E0911904F0911A04CA
:1025D0000484F585E02D9801A5014C1B5D0BB60127
:1025E0006E197F0989E194E0199559CFDF91CF9158
:1025F0001F910F91FF90EF90DF90CF90BF90AF9021
:102600009F908F907F906F905F904F903F902F9012
:1026100008950F931F93CF93DF938C01C0E0D0E018
:10262000F801EC0FFD1F6491662371F0E0917C03CB
:10263000F0917D030190F081E02D8CE793E01995F6
:10264000892B11F02196ECCFCE01DF91CF911F9114
:102650000F910895CF92DF92EF92FF92CF93C82F00
:10266000C0903304D0903404E0903504F0903604E8
:1026700081E0C81686E3D8068EE6E80681E0F80613
:1026800060F080E096E3AEE6B1E08093330490938F
:102690003404A0933504B093360489E194E00E9499
:1026A000A80669ED89E194E00E94900960E189E162
:1026B00094E00E9465096C2F89E194E00E949009E2
:1026C00080913A0487FF06C01EBC0DB407FEFDCF03
:1026D000CEB529C080913C0487FD24C098E080E0FD
:1026E000E0914104F0914204308120914904209509
:1026F00023232083E0914104F09142043081209112
:102700004904232B2083880FE0913F04F09140047B
:10271000308120914804232309F08160915001F712
:10272000C82F01C0C0E089E194E00E947605C09204
:102730003304D0923404E0923504F09236048C2FA6
:10274000CF91FF90EF90DF90CF90089561157105C4
:1027500079F0FB0101900020E9F73197AF01461BAA
:10276000570BDC01ED91FC910280F381E02D19946F
:1027700080E090E008954F925F926F927F92EF9287
:10278000FF920F931F93CF93DF93CDB7DEB7A1973F
:102790000FB6F894DEBF0FBECDBF7C01FA01CB01AE
:1027A00019A2223008F42AE08E010F5D1F4F422E3D
:1027B000512C612C712CBF01A30192010E94B42104
:1027C000F901CA01015011096A3014F4605D01C0B9
:1027D000695CD8016C93232B242B252B61F7B8015E
:1027E000C701B4DFA1960FB6F894DEBF0FBECDBF10
:1027F000DF91CF911F910F91FF90EF907F906F909D
:102800005F904F900895CF93DF93482F50E060E0A2
:1028100070E020E18CE793E0AEDFEC0169EA72E062
:102820008CE793E093DF8C0F9D1FDF91CF9108958C
:102830000F931F93CF93DF93EC012115310541F4E2
:10284000E881F9810190F081E02D642F199501C094
:1028500092DF8C0169EA72E0CE0178DF800F911F70
:10286000DF91CF911F910F9108950F931F93CF93F5
:10287000DF93EC016BDF8C0169EA72E0CE0166DF69
:10288000800F911FDF91CF911F910F910895CF93EA
:10289000DF93CDB7DEB7C954D1090FB6F894DEBFC8
:1028A0000FBECDBF789484B5826084BD84B581604D
:1028B00084BD85B5826085BD85B5816085BD80910B
:1028C0006E00816080936E00109281008091810083
:1028D000826080938100809181008160809381007B
:1028E000809180008160809380008091B10084603D
:1028F0008093B1008091B00081608093B00080919E
:10290000910082608093910080919100816080931A
:102910009100809190008160809390008091A1004F
:1029200082608093A1008091A10081608093A100CA
:102930008091A00081608093A0008091210182603D
:1029400080932101809121018160809321018091F8
:10295000200181608093200180917A0084608093BF
:102960007A0080917A00826080937A0080917A0068
:10297000816080937A0080917A00806880937A00E9
:102980001092C100E0918C03F0918D0382E080836E
:10299000E0918803F09189031082E0918A03F0911D
:1029A0008B038FEC808310929403E0919003F0915D
:1029B000910386E08083E0918E03F0918F03808104
:1029C00080618083E0918E03F0918F038081886025
:1029D0008083E0918E03F0918F03808180688083F3
:1029E000E0918E03F0918F0380818F7D80836EE371
:1029F00072E08CE793E039DF80E092E1AAE7B0E093
:102A00008093330490933404A0933504B093360438
:102A100061E0809138040E94820860E0809138046F
:102A20000E94050861E0809137040E94820861E0FD
:102A3000809137040E94050880913A0487FD1BC0ED
:102A400061E080913B040E94820860E080913B0439
:102A50000E94050861E080913A040E94820861E0CA
:102A600080913A040E94050880913C0487FD03C0D0
:102A700060E00E94820880913A0487FF33C01FB74C
:102A8000F89480917203811127C0E8E6F8E0849100
:102A9000E8E0F8E09491E82FF0E0EE0FFF1FE85F28
:102AA000FE4FA591B491EC91E92321F461E085E317
:102AB0000E94050861E085E30E9482088CB5806170
:102AC0008CBD8CB580648CBD61E084E30E9482087B
:102AD00061E083E30E948208809172038F5F80939C
:102AE00072031FBF8091390487FD24C061E00E94FA
:102AF000820861E0809139040E94050864E670E074
:102B000080E090E00E94E30860E0809139040E9438
:102B1000050864E670E080E090E00E94E30861E070
:102B2000809139040E94050868EC70E080E090E034
:102B30000E94E30889E194E00E94A8066FEE89E113
:102B400094E00E94900963E089E194E00E946509A5
:102B500060E889E194E00E94650962E089E194E01F
:102B60000E9465096FEC89E194E00E94900960E0A1
:102B700089E194E00E94650961EC89E194E00E949A
:102B8000650960E389E194E00E9465096DEE89E1E1
:102B900094E00E94900964E689E194E00E9465094E
:102BA00063E089E194E00E94650962E189E194E0D3
:102BB0000E94650961E889E194E00E94650968EE78
:102BC00089E194E00E94900965E889E194E00E941F
:102BD000650960E089E194E00E94650968E789E1A0
:102BE00094E00E9465096BEC89E194E00E949009F1
:102BF00069E389E194E00E9465096CE289E194E06F
:102C00000E94650960E089E194E00E94650964E33F
:102C100089E194E00E94650962E089E194E00E9404
:102C2000650967EF89E194E00E94900960E289E11B
:102C300094E00E9465096AEE89E194E00E9490099F
:102C400060E089E194E00E94650960E089E194E038
:102C50000E94650960EC89E194E00E94900963E2BA
:102C600089E194E00E94650961EC89E194E00E94A9
:102C7000900960E189E194E00E94650965EC89E1D1
:102C800094E00E9490096EE389E194E00E94650956
:102C900068E289E194E00E94650967EC89E194E0CB
:102CA0000E94900966E889E194E00E94650966E364
:102CB00089E194E00E94900968E489E194E00E942F
:102CC000650967E389E194E00E94900980913A04E4
:102CD00087FF09C01EBC0DB407FEFDCF1EBC0DB49E
:102CE00007FEFDCF0AC060E089E194E00E9465091B
:102CF00060E089E194E00E9465096AE389E194E07B
:102D00000E94900965E589E194E00E94650961EB04
:102D100089E194E00E94900960E089E194E00E94DA
:102D2000650968E189E194E00E94650966EB89E143
:102D300094E00E94900968E089E194E00E946509AE
:102D400062E889E194E00E94650967E289E194E024
:102D50000E94650962EF89E194E00E94900960E0B9
:102D600089E194E00E94650966E289E194E00E94AD
:102D7000900961E089E194E00E94650960EE89E1D3
:102D800094E00E9490096FE089E194E00E94650957
:102D900061E389E194E00E9465096BE289E194E0D6
:102DA0000E9465096CE089E194E00E9465096EE08B
:102DB00089E194E00E94650968E089E194E00E945D
:102DC00065096EE489E194E00E94650961EF89E19B
:102DD00094E00E94650967E389E194E00E94650937
:102DE00067E089E194E00E94650960E189E194E08F
:102DF0000E94650963E089E194E00E9465096EE044
:102E000089E194E00E94650969E089E194E00E940B
:102E1000650960E089E194E00E94650961EE89E15D
:102E200094E00E94900960E089E194E00E946509C5
:102E30006EE089E194E00E94650964E189E194E033
:102E40000E94650963E089E194E00E94650961E1FF
:102E500089E194E00E94650967E089E194E00E94BD
:102E6000650961E389E194E00E94650961EC89E10B
:102E700094E00E94650968E489E194E00E94650994
:102E800068E089E194E00E9465096FE089E194E0DF
:102E90000E9465096CE089E194E00E94650961E3A4
:102EA00089E194E00E94650966E389E194E00E946B
:102EB00065096FE089E194E00E94650961E189E1BB
:102EC00094E00E94900968E770E080E090E00E9442
:102ED000E30869E289E194E00E94900968E770E004
:102EE00080E090E00E94E30889E194E00E9476058A
:102EF00080EF90E0909322048093210480E491E09D
:102F000090932404809323048AE0A4DB182F6CE4BC
:102F100072E08CE793E01ADC812F75DC8BE09ADBA2
:102F2000182F63E672E08CE793E010DC812F6BDCF6
:102F30008CE090DB182F63E772E08CE793E006DC0F
:102F4000812F61DC8DE086DB182F64E872E08CE76E
:102F500093E0FCDB812F57DC8FE07CDB182F65E9E9
:102F600072E08CE793E0F2DB812F4DDC80E692E0AB
:102F700050DB69EA72E08CE793E0E8DB6AE070E03E
:102F800080E090E00E94E30886E492E042DB0E9449
:102F9000BE086B017C0160E070E089E194E00E9472
:102FA0005B0C60E078EF89E194E00E945B0C60EEDE
:102FB00077E089E194E00E945B0C6FE170E089E1C9
:102FC00094E00E945B0C60E070E089E194E00E9474
:102FD0005B0C0E94BE08AB01BC014C195D096E0977
:102FE0007F092AE030E08CE793E022DC64EF71E0B7
:102FF00080E090E00E94E3088CE292E00ADB47D890
:10300000AB01BC012AE030E08CE793E011DC68EB17
:103010007BE080E090E00E94E30882E192E0F9DA50
:103020008090210490902204209023043090240466
:1030300060E070E089E194E00E945B0C8101015046
:1030400011091A8309830E94BE08C12CD12CC8140F
:10305000D9049CF4EE24EA9457E0F52E09811A81F4
:10306000960140E050E060E070E089E194E00E9469
:10307000E50B16E0C10ED11CEACF640121E0C21AB3
:10308000D108A12CB12CA214B30494F4EE24EA9438
:1030900047E0F42E8501960140E050E060E070E0EA
:1030A00089E194E00E94E50B36E0A30EB11CEBCF62
:1030B0000E94BE0860E070E089E194E00E945B0C31
:1030C0000E94BE08A12CB12CA814B90494F4EE24DB
:1030D000EA9437E0F32E09811A81950140E050E02F
:1030E000B60189E194E00E94E50B46E0A40EB11C14
:1030F000EBCFA12CB12CA214B30494F4EE24EA94E7
:1031000027E0F22E850120E030E040E050E0B601FB
:1031100089E194E00E94E50B56E0A50EB11CEBCFCF
:103120000E94BE0860E070E089E194E00E945B0CC0
:103130000E94BE08A12CB12CA814B9049CF4EE2462
:10314000EA9497E0F92E00E010E0950149815A8158
:1031500060E070E089E194E00E94E50B66E0A60E75
:10316000B11CEACFA12CB12CA214B30494F4EE2428
:10317000EA9487E0F82E8501960149815A8160E042
:1031800070E089E194E00E94E50B76E0A70EB11CA7
:10319000EBCF0E94BE0860E070E089E194E00E94FD
:1031A0005B0C0E94BE082B013C01A12CB12CA81481
:1031B000B90494F4EE24EA9407E0F02E00E010E065
:1031C000950149815A81B60189E194E00E94E50B9D
:1031D00086E0A80EB11CEBCFA12CB12CA214B30435
:1031E00094F4EE24EA9417E0F12E850120E030E01B
:1031F00049815A81B60189E194E00E94E50B96E08D
:10320000A90EB11CEBCF0E94BE08AB01BC01441952
:103210005509660977092AE030E08CE793E008DB7E
:1032200064EF71E080E090E00E94E30888EF91E0B5
:10323000F0D9E0902104F0902204C0902304D090B3
:10324000240460E070E089E194E00E945B0C0E943D
:10325000BE084B015C01612C712C6C147D0474F46C
:1032600000E018EF9701A30160E070E089E194E0CD
:103270000E94BF05A5E06A0E711CEFCF612C712C76
:103280006E147F0474F40FE110E0960140E050E00A
:10329000B30189E194E00E94F905B5E06B0E711C61
:1032A000EFCF0E94BE08AB01BC01481959096A0959
:1032B0007B092AE030E08CE793E0BADA64EF71E052
:1032C00080E090E00E94E3088EED91E0A2D980902A
:1032D00021049090220497FE03C0EFEF8E1A9E0AFD
:1032E00095948794C0902304D0902404D7FE03C003
:1032F000FFEFCF1ADF0AD594C79460E070E089E150
:1033000094E00E945B0C8091210490912204A09093
:103310002304B09024048A159B050CF45C010E94E0
:10332000BE082B013C01F2E02F2E312C2A143B0465
:10333000CCF4C10137FC019695958795A601481BF1
:10334000590BB401681B790BE0EEEE2EE7E0FE2E80
:103350008101910189E194E00E94860B06E0200E34
:10336000311CE4CF0E94BE08AB01BC0144195509D1
:10337000660977092AE030E08CE793E059DA64EFD8
:1033800071E080E090E00E94E30884EC91E041D994
:10339000809121049091220497FD0196959587953F
:1033A0009C01215031093A83298380912304909113
:1033B000240497FD019695958795AC0141505109DC
:1033C0005C834B8360E070E089E194E00E945B0CD9
:1033D000809121049091220460912304709124042F
:1033E0007E836D838617970714F49E838D83812CCB
:1033F000912C5401AD81BE811A161B06E4F50D8196
:103400001E81159507950E94BE082B013C01CB80BB
:10341000DC80C01AD10A29803A80201A310AB0EE25
:10342000EB2EFF24FA940D811E819801A601B101B3
:1034300089E194E00E9481050E94BE08DC01CB0175
:1034400084199509A609B709880E991EAA1EBB1EE4
:103450001FE1E12E18EFF12E0D811E819801A601CA
:10346000B10189E194E00E94860B8D819E810697CF
:103470009E838D83BFCF2AE030E0B501A4018CE7A5
:1034800093E0D6D964EF71E080E090E00E94E30819
:103490008AEA91E0BED88090210490902204A09006
:1034A0002304B090240460E070E089E194E00E947D
:1034B0005B0C0E94BE082B013C01FAE02F2E312C40
:1034C000281439040CF041C07AE0C72ED12CCA145C
:1034D000DB04BCF5E0911904F0911A040284F38531
:1034E000E02D89E194E01995E0911904F0911A0416
:1034F000A6014A5051090088F189E02D0FE118EF2B
:1035000025E130E0B10189E194E01995EFE1EE2E7B
:10351000E8EFFE2E00E010E023E04AE050E0B601C4
:10352000C1010E940E11E0911904F0911A0406885D
:10353000F789E02D89E194E01995B4E1CB0ED11C17
:10354000C6CFE4E12E0E311CBBCF0E94BE08AB01FA
:10355000BC0144195509660977092AE030E08CE777
:1035600093E066D980E991E054D88091210490914C
:1035700022048C01065F1F4F1C830B838091230460
:10358000909124048C01065F1F4F1E830D830E94BF
:10359000BE086F83788789879A87612C712C0B818D
:1035A0001C81601671060CF023C1C12CD12C830143
:1035B000065F1F4F188B0F87045111091A8B098B57
:1035C0000D811E81C016D1060CF00EC1E0911904C8
:1035D000F0911A040284F385E02D89E194E01995B5
:1035E000E0911904F0911A040484F585E02D2FEF81
:1035F0003FEFA601465F5F4FB30189E194E0199563
:10360000E0911904F0911A040484F585E02D2FEF60
:103610003FEFA6014A505109B30189E194E01995A1
:10362000E0911904F0911A040484F585E02D2FEF40
:103630003FEFA6016F85788989E194E01995E091C3
:103640001904F0911A040484F585E02D2FEF3FEF63
:10365000A60169897A8989E194E01995882483947F
:10366000912C412C512C5AE0252E312C0CEE1FEFC1
:103670001A83098367EFA62EBB24BA941FEF411A61
:10368000510A22E0820E911CA80CB91C7301E40CB3
:10369000F51CE0911904F0911A040484F585E02DDD
:1036A0002FEF3FEF8601020D131D1C870B87A8012A
:1036B000B70189E194E01995830104191509E09196
:1036C0001904F0911A040484F585E02D2FEF3FEFE3
:1036D0004B855C85B80189E194E01995E091190466
:1036E000F0911A040484F585E02D2FEF3FEFA60139
:1036F000421953095C874B87B70189E194E019951A
:10370000E0911904F0911A040484F585E02D2FEF5F
:103710003FEF4B855C85B80189E194E0199576010E
:10372000E40CF51CE0911904F0911A040484F58569
:10373000E02D2FEF3FEFA7018301020D131DB8010C
:1037400089E194E01995E0911904F0911A04048438
:10375000F585E02D2FEF3FEFA701B3016219730943
:103760007C876B8789E194E019957601E418F50868
:10377000E0911904F0911A040484F585E02D2FEFEF
:103780003FEFA701B80189E194E01995E091190490
:10379000F0911A040484F585E02D2FEF3FEFA70187
:1037A0006B857C8589E194E019954214530474F487
:1037B000B7FC64CF11E0211A310809811A810E5F2C
:1037C0001F4F1A830983A00EB11E58CFE091190430
:1037D000F0911A040688F789E02D89E194E01995A3
:1037E00074E1C70ED11CECCE14E1610E711CD7CE72
:1037F0000E94BE08AB01BC010F81188529853A855E
:10380000401B510B620B730B2AE030E08CE793E016
:103810000FD864EF71E080E090E00E94E30886E753
:1038200091E00E940913C0902104D0902204D7FE99
:1038300003C01FEFC11AD10AD594C794160121E025
:10384000221A3108009123041091240417FF02C0AA
:103850000F5F1F4F15950795780131E0E31AF108C6
:1038600060E070E089E194E00E945B0CFA82E982FA
:103870002E143F0414F43A8229820E94BE082B01C0
:103880003C01FE82ED824701A12CB12CA601401B18
:10389000510B5C834B83A981BA81AA16BB064CF5F8
:1038A0009A2D987F8A2D8C7F58E0859F6001112486
:1038B000D92A8A2D869586958695C82A0B811C81E2
:1038C000080D191D4B815C816D817E81460F571F4C
:1038D00074019401C1010E94E11175E0A70EB11CB1
:1038E0008D819E8105979E838D8395E0890E911C25
:1038F000D2CF0E94BE08AB01BC014419550966092C
:1039000077092AE030E08CE793E00E94181464EF16
:1039100071E080E090E00E94E3088CE591E00E9475
:103920000913009121041091220417FF02C00F5FB8
:103930001F4F15950795F8013197FA8BE98BC090C9
:103940002304D0902404D7FE03C0FFEFCF1ADF0A70
:10395000D594C794760121E0E21AF10860E070E0A6
:1039600089E194E00E945B0C0E94BE08FC82EB821D
:1039700049895A894E155F0514F45C834B83B7015E
:103980008B819C81681B790B7E836D831F8E18A2AF
:1039900019A21AA2D80111972496BFAFAEAF2497EF
:1039A000F60131972696FFAFEEAF269798012C19B6
:1039B0003D0928963FAF2EAF28978B819C810B97AE
:1039C0000CF420C20E94BE086EA77FA788AB99ABFB
:1039D0008B81880F982F990F990F890F8DA38C7F5A
:1039E00068E0869FA00111245BA74AA78DA1869558
:1039F00086958695482B5CA34BA324968EAD9FADF0
:103A00002497AB81BC818A0F9B1F9E8F8D8F26963A
:103A10008EAC9FAC26978A0E9B1E2896EEADFFAD0E
:103A200028970D811E81E00FF11FFC8FEB8F801610
:103A3000910654F07C01988A8F86FA83E98318876F
:103A40000F83A988BA880EC0E988FA882D813E8143
:103A5000388B2F874D8D5E8D5A83498398868F8250
:103A6000AB8CBC8CE0911904F0911A040284F385AC
:103A7000E02D89E194E019956F8178858F8598898B
:103A80006817790781F5A981BA81AA15BB055CF091
:103A90009A2D8B2DAA16BB0614F499818A81BA82BD
:103AA000A982A92EB82EE981FA81EE16FF0634F01C
:103AB000AE14BF040CF45701E980FA80E0911904B8
:103AC000F0911A0495012E193F092F5F3F4F02888C
:103AD000F389E02D0BA11CA14F815885B70189E125
:103AE00094E019954FC189819A818A199B099401A3
:103AF0000F811885201B310BA7014A195B095C87D0
:103B00004B876F857889601B710B7C8B6B8BD70122
:103B1000E981FA81AE1BBF0BB88FAF8B0F85188977
:103B2000081919091FA30EA34F85588984169506F5
:103B300031F0B401615071097DA76CA702C09DA648
:103B40008CA62F803884412C512C3201C12CD12CD1
:103B50007601A901330F660B770B4AAB5BAB6CABFD
:103B60007DAB0B891C89012E000C220B330B0EAB95
:103B70001FAB28AF39AF9C01990F440B550B2AAFEF
:103B80003BAF4CAF5DAF4B855C85052E000C660BE3
:103B9000770B22964CAF5DAF6EAF7FAF2297ACA58F
:103BA000BDA5A215B3050CF456C0C701B6012AA9DC
:103BB0003BA94CA95DA9FAD3B501620F731F2A96E0
:103BC0007FAF6EAF2A97C301B2012EA93FA948ADBE
:103BD00059ADECD32A0D3B1D8AAD9BADACADBDAD4F
:103BE000C80ED91EEA1EFB1E22964CAD5DAD6EAD11
:103BF0007FAD2297440E551E661E771E2A966EAD27
:103C00007FAD2A972617370764F429969FAD299729
:103C10002A968FAD2A972A963FAF2EAF2A97292F43
:103C2000382FE0911904F0911A042A968EAD9FADB9
:103C30002A97281B390B2F5F3F4F0288F389E02D0D
:103C40000BA11CA1A101BC0189E194E019959FEF92
:103C5000291A390AA4CFC10188199909EF89F88D69
:103C6000E89F6001E99FD00CF89FD00C11240D2C27
:103C7000000CEE08FF08C1010F811885801B910B15
:103C80002B853C85289F2001299F500C389F500C84
:103C90001124052C000C660877084EA15FA1052EA3
:103CA000000C660B770B4EA35FA368A779A76B89FF
:103CB0007C89072E000C880B990B6B8B7C8B8D8B72
:103CC0009E8BCF01092E000CAA0BBB0B8F8B988FFC
:103CD000A98FBA8F8901012E000C220B330B0B87A1
:103CE0001C872D873E87AF85B889A215B3050CF4D4
:103CF00049C0C701B6012EA13FA148A559A556D379
:103D000069817A81620F731F78876F83C301B20163
:103D10002B893C894D895E8949D32A0D3B1D8F89AA
:103D2000988DA98DBA8DC80ED91EEA1EFB1E4B8533
:103D30005C856D857E85440E551E661E771E6F81DF
:103D400078852617370734F49F81888538872F8335
:103D5000292F382FE0911904F0911A048F8198854A
:103D6000281B390B2F5F3F4F0288F389E02D0BA1F1
:103D70001CA1A101BC0189E194E019959FEF291ACA
:103D8000390AB1CFE0911904F0911A040688F78935
:103D9000E02D89E194E019950E94BE08DC01CB0179
:103DA0000EA51FA528A939A9801B910BA20BB30B47
:103DB0002F8D38A149A15AA1280F391F4A1F5B1F17
:103DC0002F8F38A349A35AA38DA1887FCAA4DBA44F
:103DD000D82A74010D8D1E8D94014B8D5C8D6D81E3
:103DE0007E8189899A890E94E1114B815C814550CD
:103DF00051095C834B836D817E816B5F7F4F7E8336
:103E00006D83DBCD2AE030E04F8D58A169A17AA106
:103E10008CE793E00E94181464EF71E080E090E07A
:103E20000E94E30882E491E00E940913809121043A
:103E30009091220497FD019695958795DC01119745
:103E4000BC83AB83809123049091240497FD019659
:103E500095958795FC013197FE83ED8360E070E0D6
:103E600089E194E00E945B0C8091210490912204EE
:103E70004090230450902404841595050CF42C01E3
:103E80000E94BE086F83788789879A871C861B8665
:103E9000AB85BC85A415B5050CF0ACC08B859C85A5
:103EA00097FD019695958795FB85F87FBF2ECB846E
:103EB000DC84D7FE03C007E0C00ED11C73E0D594AC
:103EC000C7947A95E1F78D809E80881A990AEB80D5
:103ED000FC80E81AF90AE0911904F0911A040284AE
:103EE000F385E02D89E194E01995C601880F991FAB
:103EF0006B847C84681A790A17012C0C3D1CE091B4
:103F00001904F0911A040288F389E02D00E01B2DBA
:103F10009301A401B10189E194E019952B853C85B9
:103F2000280D391D3A832983E0911904F0911A0470
:103F3000A901415051090288F389E02D9301B10193
:103F400089E194E019958C0C9D1CE0911904F09185
:103F50001A040088F189E02D9301A401B70189E1D9
:103F600094E019954B855C85E40EF51EE0911904EB
:103F7000F0911A04B701615071090088F189E02DB0
:103F80009301A40189E194E0199521E0A601B4010F
:103F9000C1010E94221237016C187D0851E0651A98
:103FA000710822E0A601B401C3010E942212898097
:103FB0009A808C189D0861E0861A910824E0A60179
:103FC000B401C3010E94221228E0A601B401C1017C
:103FD0000E942212E0911904F0911A040688F789D0
:103FE000E02D89E194E019958B859C8506969C8748
:103FF0008B874ECF0E94BE08AB01BC010F81188594
:1040000029853A85401B510B620B730B2AE030E087
:104010008CE793E00E94181464EF71E080E090E078
:104020000E94E30888E291E00E9409138091210434
:104030009091220497FD0196959587959C012150BA
:1040400031093E832D83809123049091240497FDB0
:10405000019695958795AC014150510958874F833A
:1040600060E070E089E194E00E945B0C0E94BE0871
:104070002B013C0180912104909122046091230442
:10408000709124047C876B878617970714F49C87AC
:104090008B872B853C85253131050CF46DC08B85D4
:1040A0009C85959587952B852C7F78E0279F10011F
:1040B00011248B849C8433E0959487943A95E1F79E
:1040C000CF80D884C81AD90AAD81BE81A81BB90B8C
:1040D000BA83A983E0911904F0911A040284F3854C
:1040E000E02D89E194E01995C401880F991FAB84F4
:1040F000BC84A81AB90AE981FA81E80DF91DFC838C
:10410000EB83E0911904F0911A040684F785E02D01
:1041100071010B851C859501A6016B817C8189E16C
:1041200094E01995F1E0AF1AB108C80CD91C898147
:104130009A81800F911F88199909850121E0A401B6
:10414000B60101970E940E1122E0A401B6018B81F5
:104150009C810E940E11E0911904F0911A040688C6
:10416000F789E02D89E194E019950B851C850650AF
:1041700011091C870B878DCF0E94BE08AB01BC01C3
:1041800044195509660977092AE030E08CE793E085
:104190000E94181464EF71E080E090E00E94E30850
:1041A00082E291E00E94091369EA72E08CE793E0F1
:1041B0000E94A61310E0612F89E194E00E943C0B5D
:1041C0000E94471068EE73E080E090E00E94E308F0
:1041D0001F5F143081F70E943E05ECCFECE7F3E05F
:1041E0001382128288EE93E0A0E0B0E0848395838E
:1041F000A683B78384E092E09183808385EC90E08E
:104200009587848784EC90E09787868780EC90E0A0
:10421000918B808B81EC90E0938B828B82EC90E091
:10422000958B848B86EC90E0978B868B118E128E0B
:10423000138E148EA9E1B4E013961C921E9212976D
:1042400020EF30E015963C932E93149780E491E094
:1042500017969C938E93169719963C932E931897C6
:104260001B969C938E931A9755961C9255971D9664
:104270001C921E921C971F961C921E921E9781E004
:1042800054968C9354972FEF3FEF53963C932E9375
:10429000529751963C932E93509756968C935697DF
:1042A00057961C92579759961C921E92589786E1E2
:1042B00092E011969C938E9385E05E968C935E9728
:1042C00086E05F968C935F978FEF90968C93909794
:1042D00091968C93919792968C93929793968C93B8
:1042E00093975A961D921D921D921C925D97E8E33A
:1042F000F8E0E491F0E0EE0FFF1FE75EF74F8591E5
:1043000094919D969C938E939C97E8EDF7E0E491B1
:10431000D196EC93D197E9E3F8E0E491F0E0EE0F69
:10432000FF1FE75EF74F859194919B969C938E9328
:104330009A97E9EDF7E0E491D296EC93D2979996AB
:104340001C921E929897D0961C92D09795961C928C
:104350001E9294979E961C929E9797961C921E92E0
:1043600096979F961C920895A1E21A2EAA1BBB1B3A
:10437000FD010DC0AA1FBB1FEE1FFF1FA217B30731
:10438000E407F50720F0A21BB30BE40BF50B661F47
:10439000771F881F991F1A9469F76095709580950B
:1043A00090959B01AC01BD01CF010895052E97FBAF
:1043B00016F400940FD057FD05D0D6DF07FC02D0CD
:1043C00046F408C050954095309521953F4F4F4F8A
:1043D0005F4F089590958095709561957F4F8F4FB1
:1043E0009F4F0895EE0FFF1F881F8BBF0790F69118
:1043F000E02D199405D0332312F48A1B9B0B10C0B7
:10440000A29FB001B39FC001A39F700D811D112415
:10441000911DB29F700D811D1124911D0895F0DF33
:10442000B7FF0895821B930B089581E090E0F89404
:0644300000C0F894FFCF6C
:1044360000000000D704E31070041D05A1047F04EA
:10444600930400000000D206E3102E0E2D0E330654
:10445600A806D90A4B0A7C066906840D76053C0B2C
:10446600170BF905BF0581055B0CE50B860B494C5F
:1044760049393334312054657374210044697370AB
:104486006C617920506F776572204D6F64653A20B4
:104496003078004D414443544C204D6F64653A20BA
:1044A600307800506978656C20466F726D61743A99
:1044B60020307800496D61676520466F726D6174C2
:1044C6003A2030780053656C6620446961676E6FE8
:1044D600737469633A203078000D0A0048656C6C85
:1044E6006F20576F726C64210047726F6F700049BE
:1044F60020696D706C6F726520746865652C006D3F
:104506007920666F6F6E74696E67207475726C6958
:104516006E6764726F6D65732E00416E6420686FFE
:104526006F7074696F75736C79206472616E676CF5
:1045360065206D650077697468206372696E6B6CBF
:10454600792062696E646C65777572646C65732C2C
:10455600004F7220492077696C6C2072656E64206A
:104566007468656500696E2074686520676F6262AD
:10457600657277617274730077697468206D79204B
:10458600626C7572676C656372756E6368656F6E73
:104596002C00736565206966204920646F6E277458
:0245A6002100F2
:00000001FF
