:1000000033C5000062C5000060C500005EC5000089
:100010005CC500005AC5000058C5000056C5000068
:1000200054C5000052C5000050C500004EC5000078
:100030004CC500004AC5000048C5000046C5000088
:1000400044C5000042C5000040C500003EC5000098
:100050003CC500003AC5000038C500000C94CB1820
:1000600034C500000C94BB170C9492172EC50000E9
:100070002CC500002AC5000028C5000026C50000C8
:1000800024C5000022C5000020C500001EC50000D8
:100090001CC500001AC5000018C5000016C50000E8
:1000A00014C5000012C5000010C500000EC50000F8
:1000B0000CC500000AC5000008C5000006C5000008
:1000C00004C5000002C5000000C50000FEC4000019
:1000D000FCC40000FAC40000F8C40000F6C400002C
:1000E000F4C4000020182318121816181A185A18E9
:1000F00027182B183118351839183F184318471886
:100100005A184D1851185518446F6E652100526FDA
:10011000756E646564207265637473202866696C0B
:100120006C65642920202000526F756E6465642020
:10013000726563747320286F75746C696E6529200D
:100140002000547269616E676C6573202866696C63
:100150006C656429202020202020200054726961D1
:100160006E676C657320286F75746C696E652920E5
:10017000202020202000436972636C657320286F63
:1001800075746C696E6529202020202020202000B5
:10019000436972636C6573202866696C6C656429B9
:1001A0002020202020202020200052656374616ED2
:1001B000676C6573202866696C6C65642920202053
:1001C0002020200052656374616E676C657320287F
:1001D0006F75746C696E6529202020202000486F9F
:1001E00072697A2F56657274204C696E657320208F
:1001F00020202020202020004C696E6573202020C4
:1002000020202020202020202020202020202020EE
:1002100020005465787420202020202020202020D9
:1002200020202020202020202020200053637265E1
:10023000656E2066696C6C20202020202020202004
:1002400020202020200042656E63686D61726B2063
:10025000202020202020202020202020202020546A
:10026000696D6520286D6963726F7365636F6E6475
:100270007329006D61746368657320746865207408
:1002800075746F7269616C2E00416C736F206966C2
:10029000207573696E672074686520627265616B92
:1002A0006F75742C20646F75626C652D636865636F
:1002B0006B207468617420616C6C20776972696E60
:1002C00067004966207573696E67207468652062EF
:1002D0007265616B6F757420626F6172642C206946
:1002E000742073686F756C64204E4F5420626520D3
:1002F00023646566696E6564210073686F756C645C
:100300002061707065617220696E20746865206C70
:100310006962726172792068656164657220284142
:10032000646166727569745F5446542E68292E00A4
:10033000202023646566696E65205553455F4144FE
:100340004146525549545F534849454C445F5049D2
:100350004E4F5554004966207573696E6720746866
:100360006520416461667275697420322E382220DE
:100370005446542041726475696E6F2073686965D4
:100380006C642C20746865206C696E653A00556E4B
:100390006B6E6F776E204C43442064726976657291
:1003A00020636869703A2000466F756E6420485873
:1003B0003833353744204C43442064726976657283
:1003C00000466F756E6420494C4939333431204CF6
:1003D00043442064726976657200466F756E6420CE
:1003E00048583833343747204C4344206472697688
:1003F000657200466F756E6420494C493933323856
:10040000204C43442064726976657200466F756EB5
:100410006420494C4939333235204C4344206472BE
:1004200069766572005573696E6720416461667212
:1004300075697420322E3822205446542042726549
:10044000616B6F757420426F6172642050696E6FCA
:10045000757400544654204C4344207465737400F2
:1004600000000000003E5B4F5B3E3E6B4F6B3E1C4E
:100470003E7C3E1C183C7E3C181C577D571C1C5E65
:100480007F5E1C00183C1800FFE7C3E7FF0018243C
:100490001800FFE7DBE7FF30483A060E26297929E6
:1004A00026407F050507407F05253F5A3CE73C5A1B
:1004B0007F3E1C1C08081C1C3E7F14227F22145FF8
:1004C0005F005F5F06097F017F006689956A606053
:1004D00060606094A2FFA29408047E040810207E4D
:1004E000201008082A1C08081C2A08081E101010D2
:1004F000100C1E0C1E0C30383E3830060E3E0E0618
:10050000000000000000005F00000007000700146A
:100510007F147F14242A7F2A122313086462364929
:100520005620500008070300001C22410000412211
:100530001C002A1C7F1C2A08083E08080080703016
:100540000008080808080000606000201008040285
:100550003E5149453E00427F40007249494946218B
:1005600041494D331814127F1027454545393C4AFF
:100570004949314121110907364949493646494916
:10058000291E00001400000040340000000814225E
:1005900041141414141400412214080201590906CC
:1005A0003E415D594E7C1211127C7F494949363ECD
:1005B000414141227F4141413E7F494949417F09B3
:1005C0000909013E414151737F0808087F00417FBE
:1005D00041002040413F017F081422417F404040BC
:1005E000407F021C027F7F0408107F3E4141413E54
:1005F0007F090909063E4151215E7F0919294626D6
:100600004949493203017F01033F4040403F1F20D9
:1006100040201F3F4038403F6314081463030478B0
:1006200004036159494D43007F41414102040810D0
:1006300020004141417F040201020440404040400B
:10064000000307080020545478407F284444383879
:1006500044444428384444287F38545454180008EB
:100660007E090218A4A49C787F0804047800447DC5
:1006700040002040403D007F1028440000417F4062
:10068000007C047804787C080404783844444438B6
:10069000FC1824241818242418FC7C080404084896
:1006A0005454542404043F44243C4040207C1C20E7
:1006B00040201C3C4030403C44281028444C909042
:1006C000907C4464544C440008364100000077009C
:1006D00000004136080002010204023C2623263CA9
:1006E0001EA1A161123A4040207A38545455592134
:1006F000555579412254547842215554784020541C
:100700005579400C1E527212395555555939545469
:10071000545939555454580000457C410002457DD8
:10072000420001457C407D1211127DF0282528F001
:100730007C545545002054547C547C0A097F49322E
:10074000494949323A4444443A324A4848303A41A5
:1007500041217A3A42402078009DA0A07D3D42424E
:10076000423D3D4040403D3C24FF2424487E4943D7
:10077000662B2FFC2F2BFF0929F620C0887E09034A
:1007800020545479410000447D413048484A323871
:100790004040227A007A0A0A727D0D19317D26299D
:1007A000292F28262929292630484D402038080895
:1007B000080808080808382F10C8ACBA2F102834C9
:1007C000FA00007B000008142A142222142A1408BC
:1007D0005500550055AA55AA55AAFF55FF55FF00CB
:1007E0000000FF00101010FF00141414FF00101080
:1007F000FF00FF1010F010F0141414FC001414F794
:1008000000FF0000FF00FF1414F404FC1414171080
:100810001F10101F101F1414141F00101010F000D0
:100820000000001F101010101F10101010F010000A
:100830000000FF101010101010101010FF1000001A
:1008400000FF140000FF00FF00001F10170000FC55
:1008500004F414141710171414F404F40000FF0027
:10086000F714141414141414F700F71414141714B0
:1008700010101F101F141414F4141010F010F000B6
:10088000001F101F0000001F14000000FC140000D7
:10089000F010F01010FF10FF141414FF14101010BB
:1008A0001F00000000F010FFFFFFFFFFF0F0F0F06E
:1008B000F0FFFFFF0000000000FFFF0F0F0F0F0F02
:1008C0003844443844FC4A4A4A347E02020606024E
:1008D0007E027E0263554941633844443C04407EB5
:1008E000201E2006027E020299A5E7A5991C2A492E
:1008F0002A1C4C7201724C304A4D4D3030487848B9
:1009000030BC625A463D3E494949007E0101017EA4
:100910002A2A2A2A2A44445F444440514A444040F7
:10092000444A51400000FF0103E080FF0000080836
:100930006B6B083612362436060F090F06000018B6
:10094000180000001010003040FF0101001F0101DD
:100950001E00191D1712003C3C3C3C00000000002A
:1009600000000A0B02090C0D0E0807030401000029
:100970000000000000000000000000000000000077
:100980000000000000000000000000001211100034
:100990000000000000000000000000000000000057
:1009A00000000000000000002100240027002A00B1
:1009B0002D003000330001010000040107010A018D
:1009C0000102102020080810204010204080020161
:1009D0000201080402010102040810204080804046
:1009E0002010080402018004020180402010080445
:1009F00002010804020101020408102040800102E3
:100A000004081020408000002200250028002B0050
:100A10002E003100340002010000050108010B0125
:100A200005050505070508080808020202020A0A6A
:100A30000808040404040101010101010101030388
:100A4000030303030303040707070C0C0C0C0C0C33
:100A50000C0C0202020206060606060606060B0B30
:100A60000B0B0B0B0B0BF12A11241FBECFEFD1E2A6
:100A7000DEBFCDBF00E00CBF13E0A0E0B2E0E6E8CF
:100A8000F8E500E00BBF02C007900D92AC32B10751
:100A9000D9F723E0ACE2B3E001C01D92AE3FB2074C
:100AA000E1F715E0C4E3D5E000E006C021970109B5
:100AB000802FFE010E941A2CC333D10780E0080763
:100AC000A9F70E94471D0C94412C9ACA0895FC0175
:100AD0006370658B8481958126813781613039F01F
:100AE000633029F091878087338722870895318783
:100AF00020879387828708952F923F924F925F922B
:100B00006F927F928F929F92AF92BF92CF92DF921D
:100B1000EF92FF920F931F93CF93DF93CDB7DEB782
:100B20006C970FB6F894DEBF0FBECDBF9C8F8B8F36
:100B30005B011A011F830E833701C982DC015896BD
:100B40004D915C9159974115510509F0E5C01896F2
:100B50008D919C911997681779070CF0CAC11A9664
:100B60008D919C911B97281639060CF0C2C18C2CD4
:100B7000912CFB0136E0C39EE00DF11D1124FB8793
:100B8000EA871E161F060CF0B4C1C40133E0880FBB
:100B9000991F3A95E1F79D878C87820D931D181652
:100BA00019060CF0A6C157968C91811103C0203B09
:100BB00008F02F5FAB8DBC8DED91FC9111970284F5
:100BC000F385E02DCD012A8F19952A8DB5E02B9F55
:100BD00090011124F5013596FF87EE87BB82AA822A
:100BE0002501A9014A195B09598B488BC101089657
:100BF0009B8B8A8BE889F989E40DF51DE05AFB4F40
:100C00009491988761013D822C82A885A0FF13C032
:100C1000AB8DBC8DED91FC91B981B13031F4048480
:100C2000F585E02D2E813F8116C00684F785E02DE5
:100C3000EE80FF801AC0EE81FF816E167F06F1F014
:100C4000AB8DBC8DED91FC91B981B13051F4048430
:100C5000F585E02D9301A601B2018B8D9C8D199530
:100C60000DC00684F785E02D7301840194014C8149
:100C70005D816A817B818B8D9C8D1995E885E695D8
:100C8000E887FFEFCF1ADF0A2C813D81280D391D3F
:100C90003D832C834A895B89C416D50609F0B5CFFC
:100CA0005FEF451A550A8A819B81880D991D9B83A8
:100CB0008A83AE85BF854A165B0609F09BCFEE811D
:100CC000FF816E167F0609F4F2C0EB8DFC8DA081CA
:100CD000B181F981F13079F4B5016B5F7F4F5096A6
:100CE000ED91FC915197830128E030E0A1018B8DBB
:100CF0009C8D1995DCC06A857B85681979091E96DB
:100D0000ED91FC911F9773010C851D859401A10144
:100D10008B8D9C8D1995CBC0FA01349694913297A6
:100D200065917491291BCB01B7E02B9F800D911D1C
:100D30001124FA01259134913B8B2A8BFC014591BA
:100D400054915B834A83FC013296C490319654914E
:100D50005E87329614913196D4908981823058F012
:100D6000612E012E000C7708AD2D0D2C000CBB0B55
:100D7000B987A88704C019861886612C712CAB8DA1
:100D8000BC8DED91FC9111970284F385E02DCD018E
:100D90001995B9818B2E912C689CC001699C900D8E
:100DA000789C900D1124FC01EA0DFB1DFD87EC875A
:100DB0001C82712C612CE12F110FFF0B95012E0F5E
:100DC0003F1F3B872A87AC0CB11CA5014E0F5F1F4C
:100DD0005F8B4E8BC1018D0D911DD7FC9A95998F1C
:100DE000888F4E85641608F062C0862D90E0488595
:100DF0005985480F591F489D9001499D300D589DB8
:100E0000300D1124D901A20DB31DB98BA88BAA8472
:100E1000BB844C845D84DC80BA85DB1AE88DF98D57
:100E2000E80FF91FFD8BEC8B8D2D8A0D2E893F89E4
:100E3000A216B306B9F1877061F48A819B8101968D
:100E4000EA89FB89AA81BB81EA0FFB1F74909B830F
:100E50008A8377FE20C0AB8DBC8DED91FC91B9816A
:100E6000B13061F40484F585E02D2E813F814C89F9
:100E70005D89B5018B8D9C8D19950DC00684F78514
:100E8000E02DEE80FF808401940148895989B201E8
:100E90008B8D9C8D1995770CEFEFAE1ABE0A480C1E
:100EA000591CC2CF3C813C0D3C8363949ACFAB8DDF
:100EB000BC8DED91FC9111970688F789E02DCD014D
:100EC0006C960FB6F894DEBF0FBECDBFDF91CF9109
:100ED0001F910F91FF90EF90DF90CF90BF90AF9058
:100EE0009F908F907F906F905F904F903F902F904A
:100EF00019946C960FB6F894DEBF0FBECDBFDF918C
:100F0000CF911F910F91FF90EF90DF90CF90BF9006
:100F1000AF909F908F907F906F905F904F903F9099
:100F20002F900895AF92BF92CF92EF92FF920F93BE
:100F30001F93CF93DF93EC01262F888D998D009717
:100F400009F03FC06A3059F41D861C862C898E85B5
:100F50009F8538E0239F800D911D112440C06D3086
:100F600009F4A8C08E898823C1F03C898C859D85B1
:100F700046E0349F800D911D1124488559854817FE
:100F800059075CF41D861C868E859F8548E0349F3A
:100F9000800D911D11249F878E87EA88FB88088920
:100FA00019894E855F856C857D85CC88CE01A4DD51
:100FB0002C898C859D8536E0239F800D911D112401
:100FC00042C06A3079F41D861C862C89FC01369655
:100FD000E4918E859F852E9F800D911D11249F8702
:100FE0008E8768C06D3009F465C0FC013496349179
:100FF000631708F45FC03196E491E61708F45AC00D
:10100000FC013296A590B490462F50E0431B510945
:1010100037E0349FB001359F700D1124A60EB71E26
:10102000F501329634913196E491332311F0E111B8
:101030000DC0F5013496E4912C898C859D85E29F45
:10104000800D911D11249D878C8734C0F501359644
:1010500044915E89552311F16C89E32FF0E0E40F90
:10106000F11D47FDFA956E9FD0016F9FB00D1124C1
:101070004C855D854A0F5B1FE885F985E417F50708
:101080006CF41D861C86FC013696E4918E859F8546
:101090006E9F800D911D11249F878E87EA88FB88A3
:1010A000088919894E855F856C857D85CC88CE0140
:1010B00023DDBFCF81E090E0DF91CF911F910F91B1
:1010C000FF90EF90CF90BF90AF9008956F927F9276
:1010D0008F929F92AF92BF92CF92DF92EF92FF9248
:1010E0000F931F93CF93DF93EC014B015A016901DA
:1010F0003801E881F9810284F385E02D1995E881B2
:10110000F9810288F389E02D87019601A501B401D8
:10111000CE011995E881F981A501460D571D415071
:1011200051090288F389E02D9601B401CE01199589
:10113000E881F9810088F189E02D9301A501B401CE
:10114000CE011995E881F981C80CD91CB60161500E
:1011500071090088F189E02D9301A501CE0119954F
:10116000E881F9810688F789E02DCE01DF91CF91E2
:101170001F910F91FF90EF90DF90CF90BF90AF90B5
:101180009F908F907F906F901994CF92DF92EF9203
:10119000FF920F931F93CF93DF9300D000D0CDB772
:1011A000DEB76C01DC01ED91FC916217730789F4E5
:1011B000041715072CF4942F852FA801092F182F39
:1011C000041B150B98012F5F3F4F048CF58DE02D0C
:1011D00012C04017510709F5261737072CF4962F30
:1011E000872FB901292F382F261B370B2F5F3F4F31
:1011F000068CF78DE02D8701C601199526960FB64E
:10120000F894DEBF0FBECDBFDF91CF911F910F913C
:10121000FF90EF90DF90CF9008950284F385E02D4A
:101220002D833E834B835C8369837A831995D60132
:10123000ED91FC910488F589E02D2D813E814B8153
:101240005C8169817A81C6011995D601ED91FC9185
:101250000688F789E02DC60126960FB6F894DEBF02
:101260000FBECDBFDF91CF911F910F91FF90EF90F7
:10127000DF90CF901994EF92FF920F931F93DC01B0
:10128000ED91FC9111971A960D911C911B97189650
:101290002D913C91199700A0F1A1E02D7B0140E038
:1012A00050E060E070E019951F910F91FF90EF9072
:1012B00008954F925F926F927F928F929F92AF921A
:1012C000BF92CF92DF92EF92FF920F931F93CF9333
:1012D000DF931F921F92CDB7DEB76C015A0139011F
:1012E0004801DC01ED91FC910284F385E02D6983D6
:1012F0007A8319956981462E7A81572E640C751C64
:10130000D601ED91FC91461457046CF40088F189E4
:10131000E02D87019401A501B201C6011995BFEF27
:101320004B1A5B0AEDCF0688F789E02DC6010F90B6
:101330000F90DF91CF911F910F91FF90EF90DF9071
:10134000CF90BF90AF909F908F907F906F905F9065
:101350004F901994AF92BF92CF92DF92EF92FF928B
:101360000F931F93CF93DF9300D01F92CDB7DEB7BB
:101370005C016901DC01ED91FC910284F385E02DB3
:101380004B835C8369837A831995D501ED91FC9138
:1013900069817A819B012C0D3D1D21503109048802
:1013A000F589E02D78014B815C818A01C501199591
:1013B000D501ED91FC910688F789E02DC5010F90CC
:1013C0000F900F900F90DF91CF911F910F91FF9091
:1013D000EF90DF90CF90BF90AF901994AF92BF92F3
:1013E000CF92DF92EF92FF920F931F93CF93DF93F1
:1013F00000D01F92CDB7DEB75C016901DC01ED9131
:10140000FC910284F385E02D4B835C8369837A83AE
:101410001995D501ED91FC914B815C81C40ED51ECF
:10142000B1E0CB1AD1080488F589E02D7801860156
:1014300069817A819B01C5011995D501ED91FC91D6
:101440000688F789E02DC5010F900F900F900F903F
:10145000DF91CF911F910F91FF90EF90DF90CF9090
:10146000BF90AF9019940895EF92FF920F931F933E
:10147000DC01ED91FC9100A0F1A1E02D19951F91E7
:101480000F91FF90EF9008950F931F93DC01ED9162
:10149000FC91068CF78DE02D19951F910F91089501
:1014A0000F931F93DC01ED91FC91048CF58DE02DE1
:1014B00019951F910F910895DC01ED91FC91008425
:1014C000F185E02D199408952F923F924F925F92EB
:1014D0006F927F928F929F92AF92BF92CF92DF9244
:1014E000EF92FF920F931F93CF93DF9300D0CDB76E
:1014F000DEB74C017B836A836A01590117019801A9
:10150000241B350B37FF03C0319521953109C501E7
:101510004A815B81841B950B97FF03C09195819550
:10152000910951E059838217930714F019820BC077
:101530009A2D8B2D5801092F182F9A818B81DB82D0
:10154000CA82C92ED82E8A819B81A816B9065CF45E
:101550009C2D8D2D6801092F182F9A818B81BB82BC
:10156000AA82A92EB82E2501AA81BB814A1A5B0A3C
:1015700038016C187D0877FE03C07194619471087E
:10158000720157FE03C0BFEFEB1AFB0AF594E79414
:10159000C016D1061CF00FEF1FEF1FC001E010E0D6
:1015A0001CC0D401ED91FC91B9810484F585E02D36
:1015B0009101BB23C1F04A815B81B601C401199539
:1015C000E618F708F7FE04C0C00ED11EE40CF51CA7
:1015D000EA81FB813196FB83EA834A815B81A41611
:1015E000B506FCF604C0A6016A817B81E7CF0F90A7
:1015F0000F900F90DF91CF911F910F91FF90EF907F
:10160000DF90CF90BF90AF909F908F907F906F9022
:101610005F904F903F902F900895089580E090E064
:101620000895FC01A38DB48D9C9187A189238C938F
:10163000808591859C01215031098150A58DB68D01
:101640002C9190A592239C9394E092B9A78DB0A180
:101650002C9191A592239C93A78DB0A12C9195A13B
:10166000922B9C93A58DB68D2C9194A1922B9C933B
:1016700032B9A78DB0A12C9191A592239C93A78DEF
:10168000B0A12C9195A1922B9C93A58DB68D2C91F8
:1016900090A592239C9395E092B9A78DB0A12C912F
:1016A00091A592239C93A78DB0A12C9195A1922BEB
:1016B0009C93A58DB68D2C9194A1922B9C9382B96D
:1016C000A78DB0A19C9181A589238C93A78DB0A1F2
:1016D0009C9185A1892B8C93828593859C012150B7
:1016E00031098150A58DB68D2C9190A592239C93A4
:1016F00098E092B9A78DB0A12C9191A592239C93CB
:10170000A78DB0A12C9195A1922B9C93A58DB68D00
:101710002C9194A1922B9C9332B9A78DB0A12C91BE
:1017200091A592239C93A78DB0A12C9195A1922B6A
:101730009C93A58DB68D2C9190A592239C9399E0B6
:1017400092B9A78DB0A12C9191A592239C93A78DBE
:10175000B0A12C9195A1922B9C93A58DB68D2C9127
:1017600094A1922B9C9382B9A78DB0A19C9181A545
:1017700089238C93A78DB0A19C9185A1892B8C93F3
:10178000A38DB48D9C9183A1892B8C930895EF92A6
:10179000FF920F931F93CF93DF93EC01CB017A015C
:1017A000EB8DFC8D50814FA1452340834A8D411123
:1017B000B6C14D89423089F0433021F1413091F575
:1017C0004FEE50E0DA01A01BB10B4E195F09FA0190
:1017D00089019A017C01CD0127C06FEE70E0AB0159
:1017E000421B530B9B01281B390B8FE391E0DC015B
:1017F000A01BB10B8C010E191F09B801F9017D0165
:10180000CA0112C04FE351E0DA01A21BB30B9A01E7
:10181000261B370BC901B901F70198018C01C701DB
:101820007D0102C0B701FC01AD8DBE8D5C9148A564
:1018300045234C9312B8AF8DB8A15C9149A54523BF
:101840004C93AF8DB8A15C914DA1452B4C9340E5D5
:1018500042B9AF8DB8A15C9149A545234C93AF8D9A
:10186000B8A15C914DA1452B4C93AD8DBE8D5C9183
:101870004CA1452B4C9392B9AF8DB8A14C9199A531
:1018800094239C93AF8DB8A14C919DA1942B9C93D4
:1018900082B9AF8DB8A19C9189A589238C93AF8D16
:1018A000B8A19C918DA1892B8C93AD8DBE8D9C91FF
:1018B00088A589238C9312B8AF8DB8A19C9189A576
:1018C00089238C93AF8DB8A19C918DA1892B8C938A
:1018D00081E582B9AF8DB8A19C9189A589238C93AC
:1018E000AF8DB8A19C918DA1892B8C93AD8DBE8DB0
:1018F0009C918CA1892B8C9332B9AF8DB8A19C910E
:1019000089A589238C93AF8DB8A19C918DA1892B3A
:101910008C9322B9AF8DB8A19C9189A589238C9312
:10192000AF8DB8A19C918DA1892B8C93AD8DBE8D6F
:101930009C9188A589238C9312B8AF8DB8A19C91F6
:1019400089A589238C93AF8DB8A19C918DA1892BFA
:101950008C9382E582B9AF8DB8A19C9189A589232A
:101960008C93AF8DB8A19C918DA1892B8C93AD8D5B
:10197000BE8D9C918CA1892B8C93F2B8AF8DB8A1B0
:101980009C9189A589238C93AF8DB8A19C918DA141
:10199000892B8C93E2B8AF8DB8A19C9189A589233E
:1019A0008C93AF8DB8A19C918DA1892B8C93AD8D1B
:1019B000BE8D9C9188A589238C9312B8AF8DB8A158
:1019C0009C9189A589238C93AF8DB8A19C918DA101
:1019D000892B8C9383E582B9AF8DB8A19C9189A5A1
:1019E00089238C93AF8DB8A19C918DA1892B8C9369
:1019F000AD8DBE8D9C918CA1892B8C9312B9AF8D2E
:101A0000B8A19C9189A589238C93AF8DB8A19C9195
:101A10008DA1892B8C9302B9AF8DB8A19C9189A51A
:101A200089238C93AF8DB8A19C918DA1892B8C9328
:101A3000AD8DBE8D9C9188A589238C9312B8AF8DF6
:101A4000B8A19C9189A589238C93AF8DB8A19C9155
:101A50008DA1892B8C9380E282B9AF8DB8A19C9126
:101A600089A589238C93AF8DB8A19C918DA1892BD9
:101A70008C93AD8DBE8D9C918CA1892B8C93F2B9EA
:101A8000AF8DB8A19C9189A589238C93AF8DB8A106
:101A90009C918DA1892B8C93E2B9EF8DF8A1908157
:101AA00089A589238083EF8DF8A190818DA1892B51
:101AB0008083ED8DFE8D908188A58923808312B867
:101AC000EF8DF8A1908189A589238083EF8DF8A1FE
:101AD00090818DA1892B808381E282B9EF8DF8A15D
:101AE000908189A589238083EF8DF8A190818DA1B4
:101AF000892B8083ED8DFE8D90818CA1892B808335
:101B000072B9EF8DF8A1908189A589238083EF8D2B
:101B1000F8A190818DA1892B808362B92FC14130BA
:101B200009F039C1ED8DFE8D508148A545234083D4
:101B300042E042B9EF8DF8A1508149A54523408389
:101B4000EF8DF8A150814DA1452B4083ED8DFE8D89
:101B500050814CA1452B408392B9EF8DF8A1408173
:101B600099A594239083EF8DF8A140819DA1942B9A
:101B70009083ED8DFE8D408198A59423908393E012
:101B800092B9EF8DF8A1408199A594239083EF8DB0
:101B9000F8A140819DA1942B9083ED8DFE8D408115
:101BA0009CA1942B908382B9EF8DF8A1908189A597
:101BB00089238083EF8DF8A190818DA1892B80836B
:101BC000ED8DFE8D908188A58923808386E082B982
:101BD000EF8DF8A1908189A589238083EF8DF8A1ED
:101BE00090818DA1892B8083ED8DFE8D90818CA1BC
:101BF000892B8083F2B8EF8DF8A1908189A5892384
:101C00008083EF8DF8A190818DA1892B8083ED8D4C
:101C1000FE8D908188A58923808387E082B9EF8D2E
:101C2000F8A1908189A589238083EF8DF8A1908107
:101C30008DA1892B8083ED8DFE8D90818CA1892BC8
:101C40008083E2B8EF8DF8A1908189A589238083F4
:101C5000EF8DF8A190818DA1892B8083ED8DFE8D74
:101C6000908188A58923808384E082B9EF8DF8A1D3
:101C7000908189A589238083EF8DF8A190818DA122
:101C8000892B8083ED8DFE8D90818CA1892B8083A3
:101C900032B9EF8DF8A1908189A589238083EF8DDA
:101CA000F8A190818DA1892B8083ED8DFE8D90818F
:101CB00088A58923808385E082B9EF8DF8A1908182
:101CC00089A589238083EF8DF8A190818DA1892B2F
:101CD0008083ED8DFE8D90818CA1892B808322B92C
:101CE000EF8DF8A1908189A589238083EF8DF8A1DC
:101CF00090818DA1892B8083ED8DFE8D908188A5AB
:101D00008923808388E082B9EF8DF8A1908189A52D
:101D100089238083EF8DF8A190818DA1892B808309
:101D2000ED8DFE8D90818CA1892B808312B9EF8D72
:101D3000F8A1908189A589238083EF8DF8A19081F6
:101D40008DA1892B8083ED8DFE8D908188A58923BF
:101D5000808389E082B9EF8DF8A1908189A58923DC
:101D60008083EF8DF8A190818DA1892B8083ED8DEB
:101D7000FE8D90818CA1892B808302B9EF8DF8A113
:101D8000908189A589238083EF8DF8A190818DA111
:101D9000892B80832FC04250423060F5092E000C01
:101DA000AA0BBB0BDC0199278827A901330F660B0F
:101DB000770B9A01AB01282B392B4A2B5B2B6AE25C
:101DC000CE010E941519A701FF0C660B770BBA0113
:101DD00055274427012E000C220B330BDB01CA01CF
:101DE000802B912BA22BB32B9C01AD016BE2CE017A
:101DF0000E941519EB8DFC8D90818BA1892B80831E
:101E0000DF91CF911F910F91FF90EF900895CF92A6
:101E1000DF92EF92FF920F931F93CF93DF9360E0D7
:101E200070E082ED93E017D40E946E186B017C0184
:101E3000C2EDD3E01D861C861F861E868FEF9FEFA6
:101E40009B8B8A8B998B888B11E01C8B82E692E0AE
:101E50000E94AF1980EE9FEF9B8B8A8B998B888BAA
:101E600002E00C8B2AE042ED54E060E070E0CE012D
:101E70000E94791CE881F9810190F081E02D6EE2E9
:101E8000CE0119952AE045E050E060E070E0CE0117
:101E90000E94791C2AE046E050E060E070E0CE014C
:101EA0000E94791CCE010E94291D80E098EF9B8B37
:101EB0008A8B998B888B83E08C8B20E130E04FEE0E
:101EC0005EEB6DEA7EEDCE010E942C1DCE010E94DC
:101ED000291D80EE97E09B8B8A8B998B888B85E000
:101EE0008C8B8FE692E00E94AF190C8B85E792E015
:101EF0000E94AF191C8B85E892E00E94AF1980EA1E
:101F000092E00E94AF198BEB92E00E94AF1987ED2F
:101F100092E00E94AF198BEE92E00E94AF198EEF13
:101F200092E00E94AF1988E193E00E94AF190E94ED
:101F30006E186C197D098E099F09DF91CF911F9151
:101F40000F91FF90EF90DF90CF9008951F93CF9364
:101F5000DF93FC01A38DB48D9C9187A189238C9381
:101F6000A58DB68D9C9180A589238C93828D82301E
:101F700091F081110EC012B8A78DB0A19C9181A5DE
:101F800089238C93A78DB0A19C9185A1892B8C93DB
:101F900004C0833011F48CE201C082E282B9A78DC3
:101FA000B0A19C9181A589238C93A78DB0A19C9110
:101FB00085A1892B8C93A58DB68D9C9184A1892BAD
:101FC0008C9372B9A78DB0A19C9181A589238C9324
:101FD000A78DB0A19C9185A1892B8C9362B9A78D07
:101FE000B0A19C9181A589238C93A78DB0A19C91D0
:101FF00085A1892B8C932150310941095109DA01BE
:10200000C90136E0B695A795979587953A95D1F78A
:102010007613F9C0019708F465C060E1A78DB0A1FF
:10202000CC9171A57C237C93A78DB0A1CC9175A197
:102030007C2B7C93A78DB0A1CC9171A57C237C9344
:10204000A78DB0A1CC9175A17C2B7C93A78DB0A15D
:10205000CC9171A57C237C93A78DB0A1CC9175A167
:102060007C2B7C93A78DB0A1CC9171A57C237C9314
:10207000A78DB0A1CC9175A17C2B7C93A78DB0A12D
:10208000CC9171A57C237C93A78DB0A1CC9175A137
:102090007C2B7C93A78DB0A1CC9171A57C237C93E4
:1020A000A78DB0A1CC9175A17C2B7C93A78DB0A1FD
:1020B000CC9171A57C237C93A78DB0A1CC9175A107
:1020C0007C2B7C93A78DB0A1CC9171A57C237C93B4
:1020D000A78DB0A1CC9175A17C2B7C93615009F0A8
:1020E0009DCF98CF2F732150C8F0A78DB0A19C91A0
:1020F00081A589238C93A78DB0A19C9185A1892B63
:102100008C93A78DB0A19C9181A589238C93A78DD9
:10211000B0A19C9185A1892B8C93E5CFA38DB48D23
:102120009C9183A1892B8C93DF91CF911F9108956E
:1021300072B9C78DD0A11881B1A5B123B883C78D5D
:10214000D0A11881B5A1B12BB88362B9C78DD0A138
:102150001881B1A5B123B883C78DD0A11881B5A1CD
:10216000B12BB88372B9C78DD0A11881B1A5B123A5
:10217000B883C78DD0A11881B5A1B12BB88362B93E
:10218000C78DD0A11881B1A5B123B883C78DD0A1C7
:102190001881B5A1B12BB88372B9C78DD0A11881B0
:1021A000B1A5B123B883C78DD0A11881B5A1B12B3A
:1021B000B88362B9C78DD0A11881B1A5B123B88306
:1021C000C78DD0A11881B5A1B12BB88372B9C78DC5
:1021D000D0A11881B1A5B123B883C78DD0A1188132
:1021E000B5A1B12BB88362B9C78DD0A11881B1A5B3
:1021F000B123B883C78DD0A11881B5A1B12BB88305
:10220000A15009F095CF019710F0A0E191CF2F7365
:10221000215008F483CF72B9A78DB0A19C9181A5FC
:1022200089238C93A78DB0A19C9185A1892B8C9338
:1022300062B9A78DB0A19C9181A589238C93A78DAC
:10224000B0A19C9185A1892B8C93E2CFEF92FF9254
:102250000F931F93CF93DF93EC01F22EE32E77FDC4
:10226000F3C157FDF1C188859985681779070CF08E
:10227000EBC18A859B85481759070CF0E5C1EB8DAA
:10228000FC8D90818FA1892380838A8D8111B6C0B6
:102290008D89823059F08330B1F08130D1F48FEEE6
:1022A00090E0841B950BAB01BC0113C08FEE90E056
:1022B0009C01261B370BB9018FE391E09C01241B85
:1022C000350BA90106C08FE391E0861B970BBA017D
:1022D000AC01ED8DFE8D908188A58923808312B895
:1022E000EF8DF8A1908189A589238083EF8DF8A1D6
:1022F00090818DA1892B808380E282B9EF8DF8A136
:10230000908189A589238083EF8DF8A190818DA18B
:10231000892B8083ED8DFE8D90818CA1892B80830C
:1023200072B9EF8DF8A1908189A589238083EF8D03
:10233000F8A190818DA1892B808362B9EF8DF8A1DE
:10234000908189A589238083EF8DF8A190818DA14B
:10235000892B8083ED8DFE8D908188A589238083D4
:1023600012B8EF8DF8A1908189A589238083EF8D24
:10237000F8A190818DA1892B808381E282B9EF8DB4
:10238000F8A1908189A589238083EF8DF8A19081A0
:102390008DA1892B8083ED8DFE8D90818CA1892B61
:1023A000808352B9EF8DF8A1908189A5892380831C
:1023B000EF8DF8A190818DA1892B808342B9EF8D9B
:1023C000F8A1908189A589238083EF8DF8A1908160
:1023D0008DA1892B8083ED8DFE8D908188A5892329
:1023E000808312B8EF8DF8A1908189A5892380831D
:1023F000EF8DF8A190818DA1892BD5C0813009F096
:10240000D5C0ED89E150E33028F4F0E0E75FFD4FFF
:10241000908101C090E0ED8DFE8D208188A5822302
:10242000808386E182B9EF8DF8A1208189A582237E
:102430008083EF8DF8A120818DA1822B8083ED8D8B
:10244000FE8D20818CA1822B808392B9EF8DF8A123
:10245000908189A589238083EF8DF8A190818DA13A
:10246000892B8083ED8DFE8D908188A589238083C3
:1024700082E082B9EF8DF8A1908189A589238083BC
:10248000EF8DF8A190818DA1892B8083ED8DFE8D3C
:1024900090818CA1892B808372B9EF8DF8A19081F6
:1024A00089A589238083EF8DF8A190818DA1892B47
:1024B0008083ED8DFE8D908188A58923808383E0C4
:1024C00082B9EF8DF8A1908189A589238083EF8D52
:1024D000F8A190818DA1892B8083ED8DFE8D908157
:1024E0008CA1892B808362B9EF8DF8A1908189A599
:1024F00089238083EF8DF8A190818DA1892B808322
:10250000ED8DFE8D908188A58923808386E082B938
:10251000EF8DF8A1908189A589238083EF8DF8A1A3
:1025200090818DA1892B8083ED8DFE8D90818CA172
:10253000892B808352B9EF8DF8A1908189A58923D9
:102540008083EF8DF8A190818DA1892B8083ED8D03
:10255000FE8D908188A58923808387E082B9EF8DE5
:10256000F8A1908189A589238083EF8DF8A19081BE
:102570008DA1892B8083ED8DFE8D90818CA1892B7F
:10258000808342B9EF8DF8A1908189A5892380834A
:10259000EF8DF8A190818DA1892B8083ED8DFE8D2B
:1025A000908188A58923808382E21BC0825082307B
:1025B00008F044C00A851B8501501109288539851A
:1025C00021503109CE01E3D8EB8DFC8D90818FA194
:1025D00089238083ED8DFE8D908188A5892380835A
:1025E0008CE282B9EF8DF8A1908189A5892380833F
:1025F000EF8DF8A190818DA1892B8083ED8DFE8DCB
:1026000090818CA1892B8083E2B8EF8DF8A1908115
:1026100089A589238083EF8DF8A190818DA1892BD5
:102620008083F2B8EF8DF8A1908189A589238083FA
:10263000EF8DF8A190818DA1892B8083EB8DFC8D8E
:1026400090818BA1892B8083DF91CF911F910F9176
:10265000FF90EF900895EF92FF920F931F93CF9307
:10266000DF93EC017B018A8D81119DC0ED89E150E2
:10267000E33060F4F0E0DF01AA5FBD4F8C91EE0F14
:10268000FF1FE050FE4F2081318104C020E030E088
:1026900080E090E0EB8DFC8D40819FA1942390839E
:1026A000ED8DFE8D408198A59423908312B8EF8D17
:1026B000F8A1408199A594239083EF8DF8A14081E2
:1026C0009DA1942B908390E292B9EF8DF8A1408167
:1026D00099A594239083EF8DF8A140819DA1942B1F
:1026E0009083ED8DFE8D40819CA1942B908312B838
:1026F000EF8DF8A1408199A594239083EF8DF8A1E7
:1027000040819DA1942B908382B9EF8DF8A1908197
:1027100089A589238083EF8DF8A190818DA1892BD4
:102720008083ED8DFE8D908188A58923808312B8EA
:10273000EF8DF8A1908189A589238083EF8DF8A181
:1027400090818DA1892B808381E282B9EF8DF8A1E0
:10275000908189A589238083EF8DF8A190818DA137
:10276000892B8083ED8DFE8D90818CA1892B8083B8
:1027700032B9EF8DF8A1908189A589238083EF8DEF
:10278000F8A190818DA1892B808322B9EF8DF8A1CA
:10279000908189A589238083EF8DF8A190818DA1F7
:1027A000892B808312C08150833078F40A851B8581
:1027B00001501109288539852150310940E050E048
:1027C00060E070E0CE010E94C70B20E03CE241E0F7
:1027D00050E0B701CE01DF91CF911F910F91FF9093
:1027E000EF90B4CB8F929F92AF92BF92CF92DF9235
:1027F000EF92FF920F931F93CF93DF93EC0147016A
:10280000121613060CF06AC0101611060CF066C002
:10281000A885B9856A177B070CF060C0CA84DB8481
:102820004C155D050CF05AC05B01A20EB31EC5012C
:10283000019797FD53C07A01E00EF11EF701319721
:10284000F7FD4CC077FF48C060E070E057FD02C064
:10285000780102C040E050E08A179B072CF0CD01C0
:1028600001975D01A61AB70AEC15FD052CF0F601DB
:1028700031977601E41AF50A8F019C01CE010E947E
:10288000C70B9701D5010E94222C9B01AC01B4011A
:10289000CE015CDB8A8D811110C00A851B85015039
:1028A0001109288539852150310940E050E060E068
:1028B00070E0CE010E94C70B11C0CE01DF91CF9115
:1028C0001F910F91FF90EF90DF90CF90BF90AF904E
:1028D0009F908F900C94110B5901B8CFDF91CF913D
:1028E0001F910F91FF90EF90DF90CF90BF90AF902E
:1028F0009F908F900895CF92DF92EF92FF920F9367
:102900001F93CF93DF93EC016801121613060CF0AE
:102910004EC077FD4CC088859985681779070CF003
:1029200046C0EA85FB854E175F070CF040C07A0170
:10293000E20EF31E87010150110917FD38C057FF41
:1029400034C040E050E00E171F0734F08F010150F3
:1029500011097F01E41AF50A9B01CE010E94C70B01
:102960009701FF0C440B550BB601CE01EFDA8A8DAF
:10297000811110C00A851B850150110928853985F0
:102980002150310940E050E060E070E0CE010E944B
:10299000C70B0DC0CE01DF91CF911F910F91FF901A
:1029A000EF90DF90CF900C94110B7901CCCFDF9199
:1029B000CF911F910F91FF90EF90DF90CF900895EE
:1029C000CF92DF92EF92FF920F931F93CF93DF93FB
:1029D000EC016801121613060CF04DC057FD4BC0F8
:1029E0008A859B85481759070CF045C0E885F9850D
:1029F0006E177F070CF03FC07B01E20EF31EC7018C
:102A0000019797FD38C077FF34C060E070E08E1703
:102A10009F072CF0CF0101977F01E61AF70A8A0180
:102A20009C01CE010E94C70B9701FF0C440B550B74
:102A3000B601CE018BDA8A8D811110C00A851B8503
:102A400001501109288539852150310940E050E0B5
:102A500060E070E0CE010E94C70B0DC0CE01DF9197
:102A6000CF911F910F91FF90EF90DF90CF900C943A
:102A7000110B7901CCCFDF91CF911F910F91FF9076
:102A8000EF90DF90CF900895FC01538D448D252F5A
:102A900030E0842F90E0821B930B541710F0CF96F8
:102AA000089501970895FC01918D828D981761F02A
:102AB000828DDF01A80FB11D5D968C91928D9F5F75
:102AC0009F73928F90E008958FEF9FEF0895FC0120
:102AD000918D828D981731F0828DE80FF11D858DD3
:102AE00090E008958FEF9FEF0895FC01918D228D66
:102AF000892F90E0805C9F4F821B91098F739927EB
:102B0000089585E393E0F1DF21E0892B09F420E0CB
:102B1000822F0895FC01848DDF01A80FB11DA35AF7
:102B2000BF4F2C91848D90E001968F739927848FED
:102B3000A689B7892C93A089B1898C9180648C93E4
:102B4000938D848D981306C00288F389E02D8081CF
:102B50008F7D80830895EF92FF920F931F93CF9301
:102B6000DF93EC0181E0888F9B8D8C8D981305C0DD
:102B7000E889F989808185FD23C0F62E0B8D10E050
:102B80000F5F1F4F0F731127E02E8C8DE8120BC0C3
:102B90000FB607FCFACFE889F989808185FFF5CF68
:102BA000CE01B8DFF2CF8B8DFE01E80FF11DE35AA5
:102BB000FF4FF0820B8FEA89FB898081806207C01A
:102BC000EE89FF896083E889F98980818064808348
:102BD00081E090E0DF91CF911F910F91FF90EF90F6
:102BE0000895CF93DF93EC01888D8823C1F0EA89A3
:102BF000FB89808185FD05C0A889B9898C9186FDF6
:102C00000EC00FB607FCF5CF808185FFF2CFA889F3
:102C1000B9898C9185FFEDCFCE017CDFE8CFDF91C4
:102C2000CF91089580E090E0892B19F06ADF81113F
:102C300025C080E090E0892B41F080E090E0892B76
:102C400021F00E94000081111CC080E090E0892BDF
:102C500041F080E090E0892B21F00E94000081117A
:102C600013C080E090E0892BA1F080E090E0892BF8
:102C700081F00E94000081110AC008950E940000A6
:102C8000D8CF0E940000E1CF0E940000EACF0C9450
:102C9000000008950E943D2CEF92FF920F931F9326
:102CA000CF93DF93EC010E946705EB8DFC8D908143
:102CB0008FA1892380838A8D81115DC0ED89E150C8
:102CC000E33038F4F0E0EE0FFF1FE15FFD4F90813D
:102CD00001C090E3ED8DFE8D208188A58223808345
:102CE00012B8EF8DF8A1208189A582238083EF8D12
:102CF000F8A120818DA1822B808383E082B9EF8DA2
:102D0000F8A1208189A582238083EF8DF8A12081FD
:102D10008DA1822B8083ED8DFE8D20818CA1822B55
:102D2000808380E182B9EF8DF8A1208189A582237B
:102D30008083EF8DF8A120818DA1822B808392B9B1
:102D4000EF8DF8A1908189A589238083EF8DF8A16B
:102D500090818DA1892B80830A851B8501501109E3
:102D6000288539852150310940E050E060E070E06D
:102D7000CE010E94C70B8A8D8130A1F5ED89E1500B
:102D8000E33028F4F0E0E45FFD4F908101C090E073
:102D9000ED8DFE8D208188A58223808386E182B916
:102DA000EF8DF8A1208189A582238083EF8DF8A182
:102DB00020818DA1822B8083ED8DFE8D20818CA1C1
:102DC000822B808392B9EF8DF8A1908189A5892308
:102DD0008083EF8DF8A190818DA1892B8083CE0116
:102DE0000E94110B8A8D823009F049C08D89813093
:102DF00071F050F0823029F0833059F458E2E52E1A
:102E000008C068E4E62E05C048E8E42E02C038EEAB
:102E1000E32EED8DFE8D908188A58923808386E346
:102E200082B9EF8DF8A1908189A589238083EF8DE8
:102E3000F8A190818DA1892B8083ED8DFE8D9081ED
:102E40008CA1892B8083E2B8EF8DF8A1908189A5B0
:102E500089238083EF8DF8A190818DA1892B8083B8
:102E60000A851B85015011092885398521503109B2
:102E700040E050E060E070E0CE010E94C70B8A8D18
:102E8000833009F048C08D89813069F048F0823084
:102E900029F0833051F420E6F22E07C0F12C05C052
:102EA00090ECF92E02C080EAF82EED8DFE8D908117
:102EB00088A58923808386E382B9EF8DF8A190816C
:102EC00089A589238083EF8DF8A190818DA1892B1D
:102ED0008083ED8DFE8D90818CA1892B8083F2B84B
:102EE000EF8DF8A1908189A589238083EF8DF8A1CA
:102EF00090818DA1892B80830A851B850150110942
:102F0000288539852150310940E050E060E070E0CB
:102F1000CE010E94C70BDF91CF911F910F91FF90BF
:102F2000EF9008951F920F920FB60F9211240BB6D7
:102F30000F922F933F934F935F936F937F938F9352
:102F40009F93AF93BF93EF93FF9385E393E0E2DD0D
:102F5000FF91EF91BF91AF919F918F917F916F9171
:102F60005F914F913F912F910F900BBE0F900FBE2D
:102F70000F901F9018951F920F920FB60F92112469
:102F80000BB60F922F938F939F93EF93FF93E09144
:102F90004503F09146038081E0914B03F0914C038F
:102FA00082FD12C0908180914E038F5F8F732091BC
:102FB0004F03821751F0E0914E03F0E0EB5CFC4FC1
:102FC000958F80934E0301C08081FF91EF919F9177
:102FD0008F912F910F900BBE0F900FBE0F901F90EF
:102FE0001895362F90E0FC01E05AF64F4491FC0111
:102FF000E054F64F2491FC01E05EF54F9491992343
:1030000009F46BC0442309F455C050E0FA0131972C
:10301000E231F10508F04EC08827EE58FF4F8F4F80
:103020000C941A2C809180008F7707C080918000CB
:103030008F7D03C080918000877F809380003AC09D
:1030400084B58F7702C084B58F7D84BD33C08091F5
:10305000B0008F7703C08091B0008F7D8093B00067
:1030600029C0809190008F7707C0809190008F7D5C
:1030700003C080919000877F809390001BC0809157
:10308000A0008F7707C08091A0008F7D03C0809142
:10309000A000877F8093A0000DC0809120018F77D2
:1030A00007C0809120018F7D03C080912001877F20
:1030B00080932001E92FF0E0EE0FFF1FEA5FF54F4C
:1030C000A591B4918FB7F894EC91311103C020957C
:1030D0002E2301C02E2B2C938FBF08953FB7F89459
:1030E0008091310390913203A0913303B091340366
:1030F00026B5A89B05C02F3F19F00196A11DB11D53
:103100003FBFBA2FA92F982F8827820F911DA11D8D
:10311000B11DBC01CD0142E0660F771F881F991FCA
:103120004A95D1F708958F929F92AF92BF92CF9216
:10313000DF92EF92FF926B017C01D0DF4B015C01CB
:10314000C114D104E104F104E9F0C8DFDC01CB01D2
:1031500088199909AA09BB09883E9340A105B105C0
:1031600078F321E0C21AD108E108F10888EE880E50
:1031700083E0981EA11CB11CC114D104E104F10428
:1031800021F7DECFFF90EF90DF90CF90BF90AF9010
:103190009F908F9008951F920F920FB60F92112457
:1031A0002F933F938F939F93AF93BF9380912D0362
:1031B00090912E03A0912F03B091300330912C03F6
:1031C00023E0230F2D3720F40196A11DB11D05C06A
:1031D00026E8230F0296A11DB11D20932C03809396
:1031E0002D0390932E03A0932F03B093300380916F
:1031F000310390913203A0913303B09134030196CF
:10320000A11DB11D8093310390933203A09333032A
:10321000B0933403BF91AF919F918F913F912F91C4
:103220000F900FBE0F901F901895CF92DF92EF92E4
:10323000FF92FC01A38DB48D9C9187A189238C936F
:10324000A58DB68D9C9180A589238C9362B9A78D9D
:10325000B0A19C9181A589238C93A78DB0A19C914D
:1032600085A1892B8C93A58DB68D9C9184A1892BEA
:103270008C9383E290E0DC011197F1F7C52EDD24F9
:10328000EE24FF24C2B8A78DB0A17C9161A567236D
:103290006C93A78DB0A17C9165A1672B6C93DC0129
:1032A0001197F1F76A01EE24FF24C2B8A78DB0A1EF
:1032B0007C9161A567236C93A78DB0A17C9165A1DA
:1032C000672B6C93DC011197F1F7C32ED42EE52EFA
:1032D000FF24C2B8A78DB0A17C9161A567236C9330
:1032E000A78DB0A17C9165A1672B6C930197F1F735
:1032F00022B9A78DB0A19C9181A589238C93A78D1C
:10330000B0A19C9185A1892B8C93A38DB48D9C91A8
:1033100083A1892B8C93FF90EF90DF90CF9008953D
:1033200090E0FC01E054F64F2491FC01E05EF54F83
:103330008491882399F090E0880F991FFC01EA5549
:10334000F64FA591B491FC01EA5FF54F85919491F8
:103350008FB7F894EC91E22BEC938FBF0895CF9345
:10336000DF93BC0182ED93E05FD3EC0182ED93E04B
:1033700070D38C0F9D1FDF91CF9108952F923F92B4
:103380004F925F926F927F928F929F92AF92BF9275
:10339000CF92DF92EF92FF920F931F93CF93DF9321
:1033A00000D000D0CDB7DEB75C014B015E834D830A
:1033B000280181E090E03C01641A750ACA019195E8
:1033C00081959109AC01440F551F5A834983180117
:1033D000CC24C394D12C522F51705B8322702C8348
:1033E000C60101972D813E81821793070CF068C0BA
:1033F00077FC0CC08D819E8101979E838D83E9812E
:10340000FA813296FA83E9836E0E7F1EC601880F19
:10341000991F0196680E791EFB81FF2319F12D81FA
:103420003E81220F331F2F5F3F4F240D351D870133
:10343000A4018D819E81481B590BB6016A0D7B1D2D
:1034400082ED93E00E94500A91012D5F3F4FA4014D
:103450004C195D096D817E816A0D7B1D82ED93E0C3
:103460000E94500A9C81992321F12D813E81220FD7
:10347000331F2F5F3F4F240D351D8701A401ED81C0
:10348000FE814E1B5F0BB5016C197D0982ED93E047
:103490000E94500A91012D5F3F4FA4014C195D0914
:1034A000B5018D819E81681B790B82ED93E00E94AE
:1034B000500A9FEFC91AD90AE2E02E0E311C90CFB4
:1034C00026960FB6F894DEBF0FBECDBFDF91CF9129
:1034D0001F910F91FF90EF90DF90CF90BF90AF9032
:1034E0009F908F907F906F905F904F903F902F9024
:1034F00008952F923F924F925F926F927F928F9298
:103500009F92AF92BF92CF92DF92EF92FF920F9372
:103510001F93CF93DF93EC015B014A01390118013E
:103520002701760189019A01AB01BC0182ED93E08C
:103530000E94C50882019101A301B40182ED93E0CC
:103540000E94C50885019E01A201B10182ED93E0B0
:103550000E94C508DF91CF911F910F91FF90EF90CE
:10356000DF90CF90BF90AF909F908F907F906F90A3
:103570005F904F903F902F9008952F923F924F92DF
:103580005F926F927F928F929F92AF92BF92CF92F3
:10359000DF92EF92FF920F931F93CF93DF936C0113
:1035A0005B01EA0181E090E04C01841A950A6624EF
:1035B0007724641A750A660C771CE12CF12C822F93
:1035C0008470582E822F8270482E822F8870382E59
:1035D0002170222EEC16FD060CF073C097FC06C07D
:1035E000219782E0680E711C860C971C8FEFE81AF9
:1035F000F80AC701880F991F0196880E991E552059
:10360000B1F09801A5014C0F5D1FB7016C0D7D1D38
:1036100082ED93E00E945C0A9801A7014A0D5B1DB0
:10362000B6016C0F7D1F82ED93E00E945C0A44207E
:10363000B1F09801A5014C1B5D0BB7016C0D7D1D10
:1036400082ED93E00E945C0A9801A5014E195F0982
:10365000B6016C0F7D1F82ED93E00E945C0A33205F
:10366000B1F09801A7014A0D5B1DB6016C1B7D0BE3
:1036700082ED93E00E945C0A9801A5014C0F5D1F4A
:10368000B6016E197F0982ED93E00E945C0A222048
:1036900009F4A0CF9801A5014E195F09B6016C1B72
:1036A0007D0B82ED93E00E945C0A9801A5014C1B02
:1036B0005D0BB6016E197F0982ED93E00E945C0AF2
:1036C00089CFDF91CF911F910F91FF90EF90DF9005
:1036D000CF90BF90AF909F908F907F906F905F90B2
:1036E0004F903F902F9008950F931F93CF93DF93A8
:1036F0008C01C0E0D0E0F801EC0FFD1F649166235F
:1037000071F0E0913503F09136030190F081E02DE6
:1037100085E393E01995892B11F02196ECCFCE012A
:10372000DF91CF911F910F910895CF93DF93DCDF4D
:10373000EC0185E393E08DD18C0F9D1FDF91CF913C
:103740000895E091ED03F091EE0390818091F503EF
:10375000892B8083E091F103F091F20390818091B5
:10376000F703892B8083E091F303F091F4039081B8
:103770008091F803892B80838091FD03882359F081
:1037800060E02FDC62E070E080E090E0CCDC61E0A3
:103790008091FD0326DCE091ED03F091EE03908132
:1037A0008091F90389238083E091EF03F091F00386
:1037B00090818091FA038923808312B8E091F1030C
:1037C000F091F20390818091FB0389238083E09143
:1037D000F103F091F20390818091F703892B8083AC
:1037E00083E0E091F103F091F20320819091FB03DB
:1037F00092239083E091F103F091F2032081909164
:10380000F703922B9083815061F7E091ED03F091E3
:10381000EE0390818091F503892B80830895E2ED7A
:10382000F3E0A1A1B2A19C9182A589238C9300C051
:1038300000C000C0000080B1A1A1B2A12C9196A14E
:10384000922B9C930895CF92DF92EF92FF92CF93A9
:10385000DF93C2EDD3E0EB8DFC8D20819FA19223FD
:103860009083ED8DFE8D208198A59223908382B95F
:10387000EF8DF8A1908189A589238083EF8DF8A130
:1038800090818DA1892B808311B8ED8DFE8D908163
:103890008CA1892B808383EC90E00197F1F7BFDF47
:1038A000C82ED12CE12CF12CFE2CED2CDC2CCC24C0
:1038B000B6DFC82AFE2CED2CDC2CCC24B0DFC82AC5
:1038C000FE2CED2CDC2CCC24AADFEB8DFC8D208192
:1038D0009BA1922B90839FEF91B9A7019601282B72
:1038E000CA01B901DF91CF91FF90EF90DF90CF90A7
:1038F00008954F925F926F927F92EF92FF920F9393
:103900001F93CF93DF93CDB7DEB7A1970FB6F8948F
:10391000DEBF0FBECDBF7C01FA01CB0119A2223060
:1039200008F42AE08E010F5D1F4F422E512C612CAE
:10393000712CBF01A30192010E94DC2BF901CA0185
:10394000015011096A3014F4605D01C0695CD8014E
:103950006C93232B242B252B61F7B801C70164D06E
:10396000A1960FB6F894DEBF0FBECDBFDF91CF9109
:103970001F910F91FF90EF907F906F905F904F900D
:103980000895CF92DF92EF92FF92CF93DF936B0176
:103990007C01E0913503F09136030190F081E02D38
:1039A0006DE285E393E01995EC0144275527BA01B0
:1039B0004C195D096E097F092AE085E393E099DFE0
:1039C0008C0F9D1FDF91CF91FF90EF90DF90CF90F4
:1039D0000895CF92DF92EF92FF920F931F93CF93B0
:1039E000DF936C017A018B01C0E0D0E0CE15DF05DA
:1039F00089F0D8016D918D01D601ED91FC91019076
:103A0000F081E02DC6011995892B11F47E0102C0C9
:103A10002196ECCFC701DF91CF911F910F91FF90BD
:103A2000EF90DF90CF9008956115710579F0FB015B
:103A300001900020E9F73197AF01461B570BDC01DD
:103A4000ED91FC910280F381E02D199480E090E0EB
:103A5000089568E273E0E8CF0F931F93CF93DF934D
:103A6000EC012115310541F4E881F9810190F081E3
:103A7000E02D642F199501C03CDF8C01CE01E9DFF8
:103A8000800F911FDF91CF911F910F910895CF93D8
:103A9000DF93CDB7DEB7C954D1090FB6F894DEBFB6
:103AA0000FBECDBF789484B5826084BD84B581603B
:103AB00084BD85B5826085BD85B5816085BD8091F9
:103AC0006E00816080936E00109281008091810071
:103AD0008260809381008091810081608093810069
:103AE000809180008160809380008091B10084602B
:103AF0008093B1008091B00081608093B00080918C
:103B00009100826080939100809191008160809308
:103B10009100809190008160809390008091A1003D
:103B200082608093A1008091A10081608093A100B8
:103B30008091A00081608093A0008091210182602B
:103B400080932101809121018160809321018091E6
:103B5000200181608093200180917A0084608093AD
:103B60007A0080917A00826080937A0080917A0056
:103B7000816080937A0080917A00806880937A00D7
:103B80001092C100E0914503F091460382E08083EA
:103B9000E0914103F09142031082E0914303F091E0
:103BA00044038FEC808310924D03E0914903F09120
:103BB0004A0386E08083E0914703F09148038081C7
:103BC00080618083E0914703F091480380818860A1
:103BD0008083E0914703F09148038081806880836F
:103BE000E0914703F091480380818F7D808383E5D6
:103BF00094E09BDD85E294E098DD63E572E085E387
:103C000093E012DF4091DA035091DB03052E000CA4
:103C1000660B770B77FF04C0CB01BA01B2DE04C09C
:103C20002AE085E393E065DE60E672E085E393E0F9
:103C3000FBDE4091DC035091DD03052E000C660B8A
:103C4000770B77FF04C0CB01BA019BDE04C02AE0EA
:103C500085E393E04EDE85E393E0FBDE72DD05E075
:103C600010E083EDF0DD6134734911F40C94C12A46
:103C700001501109B1F784E0E6DD61157048810556
:103C8000910509F45CC0E091ED03F091EE039081A1
:103C90008091F90389238083E091EF03F091F00391
:103CA00090818091FA038923808312B8E091F10317
:103CB000F091F20390818091FB0389238083E0914E
:103CC000F103F091F20390818091F703892B8083B7
:103CD000E091F103F091F20390818091FB0389233D
:103CE0008083E091F103F091F20390818091F703DA
:103CF000892B808311B8E091EF03F091F00390815C
:103D00008091F603892B80838ADD182F88DD9FEF51
:103D100091B9E091ED03F091EE0320819091F503CC
:103D2000922B9083412F50E0542F4427482B45324B
:103D300063E9560709F092C08CE094E0ACC0E091D2
:103D4000ED03F091EE0390818091F9038923808344
:103D5000E091EF03F091F00390818091FA038923C1
:103D6000808389EB82B9E091F103F091F2039081B5
:103D70008091FB0389238083E091F103F091F203AA
:103D800090818091F703892B8083E091EF03F0917C
:103D9000F00390818091F603892B808383E290E089
:103DA000FC013197F1F72FEF22B9E091F103F09187
:103DB000F20330812091FB0323232083E091F10360
:103DC000F091F20330812091F703232B2083FC0133
:103DD0003197F1F723E822B9E091F103F091F20372
:103DE00030812091FB0323232083E091F103F091A4
:103DF000F20330812091F703232B20830197F1F701
:103E000087E582B9E091F103F091F203908180910E
:103E1000FB0389238083E091F103F091F203908109
:103E20008091F703892B8083E091ED03F091EE03FD
:103E300090818091F503892B80836CE271E080E0B2
:103E400090E071D980EDFFDC61157105894991051C
:103E500009F019CF07E513E80C94C32A4832B3E9F7
:103E60005B0719F483EF93E016C04537E5E75E077B
:103E700019F48AED93E00FC08A010134F3E91F07BA
:103E800019F481EC93E007C0073523E8120709F025
:103E900099C388EA93E049DC54DC68EC70E080E088
:103EA00090E041D982E08093EC03E091ED03F09142
:103EB000EE0390818091F90389238083E091EF03E1
:103EC000F091F00390818091FA038923808381E04F
:103ED00082B9E091F103F091F20390818091FB03AC
:103EE00089238083E091F103F091F2039081809126
:103EF000F703892B8083E091EF03F091F003908129
:103F00008091F603892B808312B8E091F103F09140
:103F1000F20390818091FB0389238083E091F10378
:103F2000F091F20390818091F703892B808362E303
:103F300070E080E090E0F7D8E091EF03F091F003BB
:103F400090818091FA038923808388E282B9E0918D
:103F5000F103F091F20390818091FB038923808328
:103F6000E091F103F091F20390818091F703892BA6
:103F70008083E091EF03F091F00390818091F6034C
:103F8000892B808312B8E091F103F091F2039081C4
:103F90008091FB0389238083E091F103F091F20388
:103FA00090818091F703892B8083E091EF03F0915A
:103FB000F00390818091FA038923808390EC92B979
:103FC000E091F103F091F20320818091FB038223C1
:103FD0008083E091F103F091F20320818091F70357
:103FE000822B8083E091EF03F091F0032081809198
:103FF000F603822B808383E282B9E091F103F09192
:10400000F20320818091FB0382238083E091F103FE
:10401000F091F20320818091F703822B8083E0915D
:10402000EF03F091F00320818091FA0382238083D3
:1040300081EC82B9E091F103F091F203208180914B
:10404000FB0382238083E091F103F091F20320814E
:104050008091F703822B8083E091EF03F091F003CE
:1040600020818091F603822B808380E182B9E091E8
:10407000F103F091F20320818091FB03822380837E
:10408000E091F103F091F20320818091F703822BFC
:104090008083E091EF03F091F00320818091FA0397
:1040A0008223808312B8E091F103F091F203208122
:1040B0008091FB0382238083E091F103F091F2036E
:1040C00020818091F703822B808385EC82B9E09177
:1040D000F103F091F20320818091FB03822380831E
:1040E000E091F103F091F20320818091F703822B9C
:1040F0008083E091EF03F091F00320818091F6033B
:10410000822B80832BE222B9E091F103F091F2033C
:1041100030818091FB0383238083E091F103F09150
:10412000F20330818091F703832B808322B9E091E1
:10413000F103F091F20320818091FB0382238083BD
:10414000E091F103F091F20320818091F703822B3B
:104150008083E091EF03F091F00320818091FA03D6
:104160008223808387EC82B9E091F103F091F2031E
:1041700020818091FB0382238083E091F103F09101
:10418000F20320818091F703822B8083E091EF037B
:10419000F091F00320818091F603822B808392B905
:1041A000E091F103F091F20390818091FB03892368
:1041B0008083E091F103F091F20390818091F70305
:1041C000892B8083E091EF03F091F003908180913F
:1041D000FA038923808386E382B9E091F103F091A9
:1041E000F20390818091FB0389238083E091F103A6
:1041F000F091F20390818091F703892B8083E09105
:10420000EF03F091F00390818091F603892B808376
:1042100088E882B9E091F103F091F20390818091F6
:10422000FB0389238083E091F103F091F2039081F5
:104230008091F703892B8083E091EF03F091F003E5
:1042400090818091FA03892380838AE382B9E09187
:10425000F103F091F20390818091FB038923808325
:10426000E091F103F091F20390818091F703892BA3
:104270008083E091EF03F091F00390818091F60349
:10428000892B808385E582B9E091F103F091F203F7
:1042900090818091FB0389238083E091F103F09169
:1042A000F20390818091F703892B8083E091EF03E3
:1042B000F091F00390818091FA038923808312B8F2
:1042C000E091F103F091F20390818091FB03892347
:1042D0008083E091F103F091F20390818091F703E4
:1042E000892B808381EB82B9E091F103F091F20395
:1042F00090818091FB0389238083E091F103F09109
:10430000F20390818091F703892B8083E091EF0382
:10431000F091F00390818091F603892B808312B88D
:10432000E091F103F091F20390818091FB038923E6
:104330008083E091F103F091F20390818091F70383
:10434000892B80838BE182B9E091F103F091F20334
:1043500090818091FB0389238083E091F103F091A8
:10436000F20390818091F703892B8083E091EF0322
:10437000F091F00390818091FA038923808387EB89
:1043800082B9E091F103F091F20390818091FB03F7
:1043900089238083E091F103F091F2039081809171
:1043A000F703892B8083E091EF03F091F003908174
:1043B0008091F603892B808387E082B9E091F10335
:1043C000F091F20390818091FB0389238083E09137
:1043D000F103F091F20390818091F703892B8083A0
:1043E000E091EF03F091F00390818091FA0389232B
:1043F000808381E182B9E091F103F091F203908131
:104400008091FB0389238083E091F103F091F20313
:1044100090818091F703892B8083E091EF03F091E5
:10442000F00390818091F603892B808312B8E0918C
:10443000F103F091F20390818091FB038923808343
:10444000E091F103F091F20390818091F703892BC1
:10445000808366E970E080E090E00E949318E0912C
:10446000EF03F091F00390818091FA038923808318
:1044700089E282B9E091F103F091F2039081809199
:10448000FB0389238083E091F103F091F203908193
:104490008091F703892B8083E091EF03F091F00383
:1044A00090818091F603892B808312B8E091F1030B
:1044B000F091F20390818091FB0389238083E09146
:1044C000F103F091F20390818091F703892B8083AF
:1044D00064EF71E080E090E00E9493180FE311E038
:1044E0002FEE30E040E050E060E070E082ED93E0DD
:1044F0000E94C70B86E492E018D98CE292E0F4D8CF
:104500000E946E186B017C0160E070E082ED93E028
:104510000E942B1360E078EF82ED93E00E942B1352
:1045200060EE77E082ED93E00E942B136FE170E084
:1045300082ED93E00E942B1360E070E082ED93E047
:104540000E942B130E946E18AB01BC014C195D092F
:104550006E097F092AE030E085E393E07DDA64EFBD
:1045600071E080E090E00E94931882E192E0BCD874
:104570000E94070FAB01BC012AE030E085E393E025
:104580006BDA68EB7BE080E090E00E94931888EFA4
:1045900091E0AAD88090DA039090DB032090DC03AE
:1045A0003090DD0360E070E082ED93E00E942B1319
:1045B000A101415051095A8349830E946E18C12CB0
:1045C000D12C1FC08EE893E08FD8A80160E070E086
:1045D00020E185E393E08DD985E393E03ADA85E540
:1045E00093E0A3D880E393E0A0D88AEF92E09DD82F
:1045F00082EC92E09AD889E892E097D883E792E03B
:10460000AAC7C814D9049CF4EE24EA9457E0F52E06
:1046100009811A81960140E050E060E070E082ED8F
:1046200093E00E94C50856E0C50ED11CEACF640194
:1046300061E0C61AD108A12CB12CA214B30494F4E1
:10464000EE24EA9447E0F42E8501960140E050E024
:1046500060E070E082ED93E00E94C50876E0A70E6E
:10466000B11CEBCF0E946E1860E070E082ED93E029
:104670000E942B130E946E18A12CB12CA814B9040F
:1046800094F4EE24EA9437E0F32E09811A8195011F
:1046900040E050E0B60182ED93E00E94C50886E05C
:1046A000A80EB11CEBCFA12CB12CA214B30494F42E
:1046B000EE24EA9427E0F22E850120E030E040E08D
:1046C00050E0B60182ED93E00E94C50896E0A90E85
:1046D000B11CEBCF0E946E1860E070E082ED93E0B9
:1046E0000E942B130E946E18A12CB12CA814B9049F
:1046F0009CF4EE24EA9497E0F92E00E010E0950196
:1047000049815A8160E070E082ED93E00E94C50823
:10471000A6E0AA0EB11CEACFA12CB12CA214B304BE
:1047200094F4EE24EA9487E0F82E850196014981FD
:104730005A8160E070E082ED93E00E94C508B6E027
:10474000AB0EB11CEBCF0E946E1860E070E082ED02
:1047500093E00E942B130E946E182B013C01A12CA8
:10476000B12CA814B90494F4EE24EA9407E0F02ED6
:1047700000E010E0950149815A81B60182ED93E095
:104780000E94C508E6E0AE0EB11CEBCFA12CB12C07
:10479000A214B30494F4EE24EA9417E0F12E8501F8
:1047A00020E030E049815A81B60182ED93E00E9419
:1047B000C508F6E0AF0EB11CEBCF0E946E18AB013E
:1047C000BC0144195509660977092AE030E085E300
:1047D00093E042D964EF71E080E090E00E9493188A
:1047E0008EED91E00E94741BE090DA03F090DB0301
:1047F000C090DC03D090DD0360E070E082ED93E0D8
:104800000E942B130E946E184B015C01612C712CCD
:104810006C147D0474F400E018EF9701A30160E0CC
:1048200070E082ED93E00E94E01405E0600E711CE0
:10483000EFCF612C712C6E147F0474F40FE110E043
:10484000960140E050E0B30182ED93E00E947B14BA
:1048500015E0610E711CEFCF0E946E18AB01BC0118
:10486000481959096A097B092AE030E085E393E099
:10487000F3D864EF71E080E090E00E94931884EC3C
:1048800091E00E94741B8090DA039090DB0397FE06
:1048900003C02FEF821A920A95948794C090DC038C
:1048A000D090DD03D7FE03C03FEFC31AD30AD594DF
:1048B000C79460E070E082ED93E00E942B1380913A
:1048C000DA039091DB03A090DC03B090DD038A153E
:1048D0009B050CF45C010E946E182B013C01F2E078
:1048E0002F2E312C2A143B04CCF4C10137FC019645
:1048F00095958795A601481B590BB401681B790B48
:10490000E0EEEE2EE7E0FE2E8101910182ED93E0D4
:104910000E94660846E0240E311CE4CF0E946E1807
:10492000AB01BC0144195509660977092AE030E05A
:1049300085E393E091D864EF71E080E090E00E941D
:1049400093188AEA91E00E94741B8091DA03909197
:10495000DB0397FD019695958795BC016150710920
:104960007A8369838091DC039091DD0397FD019642
:1049700095958795DC011197BC83AB8360E070E06F
:1049800082ED93E00E942B138091DA039091DB0378
:10499000E091DC03F091DD03FE83ED838E179F072A
:1049A00014F49E838D83812C912C54012D813E81A2
:1049B00012161306ECF50D811E81159507950E94C0
:1049C0006E182B013C01CB80DC80C01AD10A2980F3
:1049D0003A80201A310A10EEE12EFF24FA940D815C
:1049E0001E819801A601B10182ED93E00E94F213AD
:1049F0000E946E18DC01CB0184199509A609B7093C
:104A0000880E991EAA1EBB1E0FE1E02E08EFF02EA5
:104A10000D811E819801A601B10182ED93E00E94F3
:104A200066080D811E81065011091E830D83BECFBD
:104A30002AE030E0B501A40185E393E00DD864EFEE
:104A400071E080E090E00E94931880E991E00E947C
:104A5000741BA090DA03B090DB038090DC0390908D
:104A6000DD0360E070E082ED93E00E942B130E9472
:104A70006E182B013C01AAE02A2E312C2A143B048B
:104A80003CF5EAE0CE2ED12CC814D904ECF4A601F2
:104A90004A5051090FE118EF25E130E0B10182EDF4
:104AA00093E00E94500AFFE1EF2EF8EFFF2E00E0A6
:104AB00010E023E04AE050E0B601C1010E94BE19B7
:104AC00034E1C30ED11CE0CF44E1240E311CD6CF1B
:104AD0000E946E18AB01BC0144195509660977099B
:104AE0002AE030E085E393E00E942C1D86E791E008
:104AF0000E94741B8091DA039091DB038C01065FA6
:104B00001F4F1C830B838091DC039091DD038C018C
:104B1000065F1F4F1E830D830E946E186F83788778
:104B200089879A87612C712C0B811C816016710614
:104B30000CF0C7C0C12CD12C8301065F1F4F188B0E
:104B40000F87045111091C8B0B8B0D811E81C01620
:104B5000D1060CF0B2C02FEF3FEFA601465F5F4FCA
:104B6000B30182ED93E00E945C0A2FEF3FEFA601B4
:104B70004A505109B30182ED93E00E945C0A2FEF85
:104B80003FEFA6016F85788982ED93E00E945C0A71
:104B90002FEF3FEFA6016B897C8982ED93E00E94A5
:104BA0005C0A88248394912C412C512C6AE0262E97
:104BB000312C0CEE1FEF1A83098377EFA72EBB244D
:104BC000BA941FEF411A510A22E0820E911CA80CE0
:104BD000B91C7301E40CF51C2FEF3FEF8601020DA9
:104BE000131D1C870B87A801B70182ED93E00E947B
:104BF0005C0A8301041915092FEF3FEF4B855C8593
:104C0000B80182ED93E00E945C0A2FEF3FEFA6010E
:104C1000421953095C874B87B70182ED93E00E94EC
:104C20005C0A2FEF3FEF4B855C85B80182ED93E086
:104C30000E945C0A7601E40CF51C2FEF3FEFA70100
:104C40008301020D131DB80182ED93E00E945C0AFE
:104C50002FEF3FEFA701B301621973097C876B87C0
:104C600082ED93E00E945C0A7601E418F5082FEFCC
:104C70003FEFA701B80182ED93E00E945C0A2FEF9D
:104C80003FEFA7016B857C8582ED93E00E945C0A73
:104C90004214530474F4B7FC94CF11E0211A310884
:104CA00009811A810E5F1F4F1A830983A00EB11E5E
:104CB00088CF74E1C70ED11C48CF14E1610E711C7E
:104CC00033CF0E946E18AB01BC010F811885298576
:104CD0003A85401B510B620B730B2AE030E085E3F1
:104CE00093E00E942C1D64EF71E080E090E00E9450
:104CF00093188CE591E00E94741BC090DA03D09069
:104D0000DB03D7FE03C01FEFC11AD10AD594C794A5
:104D1000160121E0221A31080091DC031091DD0315
:104D200017FF02C00F5F1F4F15950795780131E0FF
:104D3000E31AF10860E070E082ED93E00E942B132B
:104D4000FA82E9822E143F0414F43A8229820E94E6
:104D50006E182B013C01FE82ED824701A12CB12C83
:104D6000A601401B510B5C834B83E981FA81AE168F
:104D7000BF061CF56501DD2423E0D594C7942A9570
:104D8000E1F70B811C816D817E81060F171F4B811E
:104D90005C81480D591D7B019B01B401C1010E943A
:104DA000791A75E0A70EB11C85E0881A9108AD81CB
:104DB000BE811596BE83AD83D8CF0E946E18AB011D
:104DC000BC0144195509660977092AE030E085E3FA
:104DD00093E00E942C1D64EF71E080E090E00E945F
:104DE000931882E491E00E94741B0091DA03109101
:104DF000DB0317FF02C00F5F1F4F15950795980142
:104E0000215031093C832B83C090DC03D090DD031B
:104E1000D7FE03C03FEFC31AD30AD594C7947601D7
:104E200041E0E41AF10860E070E082ED93E00E9456
:104E30002B130E946E18FA82E9826B817C816E15B9
:104E40007F0514F47A836983470189819A81881ADE
:104E5000990A1D8E1E8E1F8E18A2D80111972496B6
:104E6000BFAFAEAF2497F60131972696FFAFEEAFF6
:104E7000269798012C193D0928963FAF2EAF289709
:104E800069817A816B3071050CF4DDC10E946E1866
:104E90006DA77EA78FA798AB398139AB832F8C7F05
:104EA00068E0869FA00111245EA34DA389819A81A9
:104EB000992713E0959587951A95E1F7482B592B7B
:104EC0005AA349A324968EAD9FAD2497A981BA8198
:104ED0008A0F9B1F98878F832696AEACBFAC269710
:104EE000AA0EBB1E2896EEADFFAD2897E80DF91D62
:104EF000FE83ED83A814B9043CF4A814B90479F531
:104F00009F016B817C810AC08A149B0409F043C312
:104F10002B813C818D819E816F81788582179307DB
:104F200054F0522F432F2817390714F4582F492FC4
:104F3000C901252F342F681779072CF0261737075A
:104F40000CF49B01BC01261B370B2F5F3F4F09A1BF
:104F50001AA1A40182ED93E00E94440A42C12F816C
:104F600038850D811E81201B310B4B815C81401BDC
:104F7000510B588B4F87B4016A197B097C8B6B8B63
:104F80008B819C81AF81B8858A1B9B0B9C878B870B
:104F9000788F6F8BF5013197F8A7EFA39AA689A6B2
:104FA0001C8F0B8FBCA7ABA7BCA2ABA280E090E08C
:104FB0002BA03CA0412C512C3201C12CD12C7601CC
:104FC000AC01990F660B770B4AAB5BAB6CAB7DAB5F
:104FD0006B897C89072E000C880B990B6EAB7FAB1D
:104FE00088AF99AFC901330FAA0BBB0B8AAF9BAF38
:104FF000ACAFBDAF0F851889012E000C220B330B0F
:1050000022960CAF1DAF2EAF3FAF2297EFA1F8A5B0
:10501000E215F3050CF453C0C701B6012AA93BA958
:105020004CA95DA9EBD36B8D7C8D620F731F2A9603
:105030007FAF6EAF2A97C301B2012EA93FA948AD39
:1050400059ADDCD38B8D9C8D280F391F4AAD5BADDC
:105050006CAD7DADC40ED51EE61EF71E22966CAD5E
:105060007DAD8EAD9FAD2297460E571E681E791EF0
:105070002A968EAD9FAD2A972817390764F4299692
:105080009FAD29972A968FAD2A972A963FAF2EAFCC
:105090002A97292F382F2A96AEADBFAD2A972A1B03
:1050A0003B0B2F5F3F4F09A11AA1A101BD0182ED6A
:1050B00093E00E94440ABFEF2B1A3B0AA7CFC1011D
:1050C0008A199B090B851C85089F6001099FD00CDC
:1050D000189FD00C11240D2C000CEE08FF08C10104
:1050E0002BA13CA1821B930B4F855889489F20011F
:1050F000499F500C589F500C1124052C000C660839
:1051000077086F89788D072E000C880B990B6F8BB1
:10511000788F898F9A8F8B899C89092E000CAA0B16
:10512000BB0B8B8B9C8BAD8BBE8B012E000C220B93
:10513000330B0B871C872D873E879A01032E000CAB
:10514000440B550B2F87388B498B5A8BE9A5FAA551
:10515000E215F3050CF445C0C701B6012F89388D5F
:10516000498D5A8D4BD36BA57CA5620F731F7CA311
:105170006BA3C301B2012B893C894D895E893ED363
:105180008B8D9C8D280F391F4B855C856D857E85A9
:10519000C40ED51EE61EF71E6F85788989899A8907
:1051A000460E571E681E791E8BA19CA12817390731
:1051B00034F49BA18CA13CA32BA3292F382FABA1A6
:1051C000BCA12A1B3B0B2F5F3F4F09A11AA1A101D4
:1051D000BD0182ED93E00E94440ABFEF2B1A3B0A07
:1051E000B5CF0E946E18DC01CB010DA51EA52FA521
:1051F00038A9801B910BA20BB30B2D8D3E8D4F8DCB
:1052000058A1280F391F4A1F5B1F2D8F3E8F4F8FCC
:1052100058A389A9887FCDA0DEA0D82A75010F8167
:10522000188595014D815E81B4018B819C810E941E
:10523000791A49815A81455051095A83498355E069
:10524000850E911C1DCE2AE030E04D8D5E8D6F8D58
:1052500078A185E393E00E942C1D64EF71E080E06B
:1052600090E00E94931888E291E00E94741B809164
:10527000DA039091DB0397FD019695958795DC0104
:105280001197BC83AB838091DC039091DD0397FD84
:10529000019695958795FC013197FE83ED8360E03B
:1052A00070E082ED93E00E942B138091DA039091DD
:1052B000DB030091DC031091DD031A83098380175F
:1052C000910714F49A8389830E946E186F837887FC
:1052D00089879A871C861B86AB85BC85E981FA8104
:1052E000AE17BF070CF07DC08B859C8597FD01969E
:1052F000959587951B85187F312ECB84DC84D7FE4E
:1053000003C027E0C20ED11C73E0D594C7947A95F0
:10531000E1F7ED80FE80E81AF90AAB80BC80A81A9C
:10532000B90AC601880F991F8B849C84881A990A30
:1053300035016C0C7D1C00E0132D9401A701B30115
:1053400082ED93E00E94440A4B845C844E0C5F1C07
:10535000A201415051099401B30182ED93E00E94F2
:10536000440AEC0CFD1C9401A701B50182ED93E009
:105370000E94500A4B855C85A40EB51EB501615094
:1053800071099401A70182ED93E00E94500A21E087
:10539000A601B701C3010E94BD1AAC18BD084501A2
:1053A00051E0851A910822E0A601B701C4010E94CC
:1053B000BD1A5201AC18BD0861E0A61AB10824E07C
:1053C000A601B501C4010E94BD1A28E0A601B501DD
:1053D000C3010E94BD1A8B859C8506969C878B878E
:1053E0007BCF0E946E18AB01BC010F811885298507
:1053F0003A85401B510B620B730B2AE030E085E3CA
:1054000093E00E942C1D64EF71E080E090E00E9428
:1054100093188EE091E00E94741B8091DA039091C2
:10542000DB0397FD0196959587959C0121503109E5
:105430003E832D838091DC039091DD0397FD0196DF
:1054400095958795AC014150510958874F8360E08D
:1054500070E082ED93E00E942B130E946E182B01E6
:105460003C018091DA039091DB036091DC03709141
:10547000DD037C876B878617970714F49C878B87DF
:105480000B851C85053111050CF44FC08B859C855F
:10549000959587952B852C7F78E0279F1001112407
:1054A0008B849C8433E0959487943A95E1F7AF80A0
:1054B000B884A81AB90AAD81BE81A81BB90BBA83FA
:1054C000A983C401880F991FCB84DC84C81AD90A28
:1054D000A80DB91DBC83AB8371010B851C8596019A
:1054E000A501BD0182ED93E00E94340AB1E0CB1A20
:1054F000D108A80CB91C89819A81800F911F881945
:105500009909860121E0A401B50101970E94BE1905
:1055100022E0A401B5018B819C810E94BE19EB851C
:10552000FC853697FC87EB87ABCF0E946E18AB01EA
:10553000BC0144195509660977092AE030E085E382
:1055400093E00E942C1D64EF71E080E090E00E94E7
:10555000931888E091E00E94951B10E0612F82ED86
:1055600093E00E944C160E94070F60ED77E080E008
:1055700090E00E9493181F5F143081F70E9412166A
:10558000ECCF01E413E9083223E9120711F00C947F
:105590003D1F0C94321F2D813E814B815C81241B69
:1055A000350BC501881999096F817885641B750BC6
:1055B000788B6F879C8B8B8BAF81B885ED81FE815B
:1055C000AE1BBF0BBC87AB87BAA6A9A65C8F4B8F5F
:1055D000FCA7EBA79CA28BA2B8A6AFA2188E1F8A2D
:1055E000E7CCBF92CF92DF92EF92FF920F931F937F
:1055F000CF93DF93E5E3F3E01382128288EE93E02A
:10560000A0E0B0E084839583A683B78389E192E02C
:105610009183808385EC90E09587848784EC90E08B
:105620009787868780EC90E0918B808B81EC90E06F
:10563000938B828B82EC90E0958B848B86EC90E050
:10564000978B868B118E128E138E148EC2EDD3E043
:105650001B821A8280EFE82EF12CFD82EC8200E49E
:1056600011E01F830E83F986E8861B870A871D8A4F
:105670001D861C861F861E86BB24B394BC8ACC2440
:10568000CA94DC2CDB8ACA8AD98AC88ABE8A1F8A55
:10569000198E188E8BE292E09983888386E08BA71F
:1056A000E3E5FAE0E491F0E0EE0FFF1FEA5FF54F6B
:1056B000A591B491BC8FAB8FE4E5FAE0E491F0E002
:1056C000EE0FFF1FEA5FF54F859194919E8F8D8FAE
:1056D000E5E2FAE0E491F0E0EE0FFF1FEA5FF54F3C
:1056E0008591949198A38F8FE0E2FAE0E491F0E045
:1056F000EE0FFF1FEA5FF54F859194919AA389A35E
:10570000E3EFF9E084918BA3E4EFF9E034913CA35B
:10571000E5ECF9E024912DA3E0ECF9E094919EA34F
:10572000482F40954FA3E32FE095E8A7E22FE0959F
:10573000E9A7E92FE095EAA7EC91E82BEC93ED8D32
:10574000FE8D90818CA1892B8083EF8DF8A19081B3
:105750008DA1892B8083E9A1FAA190818EA1892B4B
:10576000808383E30E94901984E30E94901985E06E
:105770000E94901980E00E94901961E086E00E94EA
:10578000F11786E00E9490198FEF81B91D8A1D865E
:105790001C861F861E86BC8AD98AC88AF986E88636
:1057A0001B870A87DF91CF911F910F91FF90EF9098
:1057B000DF90CF90BF900895A1E21A2EAA1BBB1BC9
:1057C000FD010DC0AA1FBB1FEE1FFF1FA217B307CD
:1057D000E407F50720F0A21BB30BE40BF50B661FE3
:1057E000771F881F991F1A9469F7609570958095A7
:1057F00090959B01AC01BD01CF010895052E97FB4B
:1058000016F400940FD057FD05D0D6DF07FC02D068
:1058100046F408C050954095309521953F4F4F4F25
:105820005F4F089590958095709561957F4F8F4F4C
:105830009F4F0895EE0FFF1F881F8BBF0790F691B3
:10584000E02D199405D0332312F48A1B9B0B10C052
:10585000A29FB001B39FC001A39F700D811D1124B1
:10586000911DB29F700D811D1124911D0895F0DFCF
:10587000B7FF0895821B930B089581E090E0F894A0
:0658800000C0F894FFCF08
:1058860000003F013F01EFEF0060C0A060C0A0280C
:10589600100010181000000000AB15E91C4415F1AB
:1058A60015751553156715000000009207E91C0EC3
:1058B6000B0D0B2611630A5C0A340A500A440A646B
:1058C6000A330A4C1666057B14E014F2132B13C533
:1058D6000866085446542073697A65206973200067
:1058E600780048656C6C6F20576F726C64210047B6
:1058F600726F6F70004920696D706C6F72652074ED
:105906006865652C006D7920666F6F6E74696E67C9
:10591600207475726C696E6764726F6D65732E00A4
:10592600416E6420686F6F7074696F75736C79204F
:105936006472616E676C65206D65007769746820B6
:105946006372696E6B6C792062696E646C657775DB
:1059560072646C65732C004F7220492077696C6CF9
:105966002072656E64207468656500696E207468CF
:105976006520676F6262657277617274730077691A
:105986007468206D7920626C7572676C65637275D8
:105996006E6368656F6E2C007365652069662049C5
:0C59A60020646F6E277421000D0A0000C1
:00000001FF
